{
	"data": {
		"bytecode": {
			"linkReferences": {},
			"object": "6080604052670de0b6b3a76400006002553480156200001d57600080fd5b5060405162003a6938038062003a698339810160408190526200004091620000f5565b6200004a62000093565b600380546001600160a01b0319166001600160a01b03929092169190911790556001805461ffff60a01b1916601960a31b1761ffff60b01b191661027160b41b17905562000125565b6000546001600160a01b031615620000aa57600080fd5b600080546001600160a01b03191633178082556040516001600160a01b039190911691907fe9a5158ac7353c7c7322ececc080bc8e89334efa5795b6e21e40eb266b0003d6908290a3565b60006020828403121562000107578081fd5b81516001600160a01b03811681146200011e578182fd5b9392505050565b61393480620001356000396000f3fe60806040526004361061019c5760003560e01c80638da5cb5b116100ec578063be9418e31161008a578063cfe0008b11610064578063cfe0008b1461045d578063d2be9f1c14610472578063f2fde38b14610492578063ff66a772146104b25761019c565b8063be9418e314610413578063c12e90e914610433578063c54e44eb146104485761019c565b8063abc14ca7116100c6578063abc14ca7146103b4578063af49fcab146103c9578063b17e15c7146103e9578063b3b4250f146103fe5761019c565b80638da5cb5b1461035f5780639acd81b314610374578063a52f9d8a146103945761019c565b80634bdb9eef11610159578063615157931161013357806361515793146102df57806364e0bf6c146102ff5780637861e6521461031f5780638d398204146103325761019c565b80634bdb9eef1461027b57806355cbe3b4146102a85780635f53837f146102c85761019c565b806306cb68d1146101a15780630bd2411c146101d75780630db60f37146101f75780631d402c3714610219578063430a4fbf146102395780634b4a0d2a1461025b575b600080fd5b3480156101ad57600080fd5b506101c16101bc366004613384565b6104d2565b6040516101ce9190613739565b60405180910390f35b3480156101e357600080fd5b506101c16101f2366004613604565b6105ea565b34801561020357600080fd5b5061020c61066b565b6040516101ce9190613819565b34801561022557600080fd5b506101c16102343660046133a0565b61067c565b34801561024557600080fd5b5061024e611240565b6040516101ce9190613828565b34801561026757600080fd5b5061024e6102763660046133a0565b611246565b34801561028757600080fd5b5061029b610296366004613626565b611305565b6040516101ce9190613669565b3480156102b457600080fd5b5061024e6102c33660046133a0565b61133e565b3480156102d457600080fd5b506102dd6113ed565b005b3480156102eb57600080fd5b5061024e6102fa3660046133a0565b61144e565b34801561030b57600080fd5b5061024e61031a366004613384565b6114c3565b6101c161032d3660046133cb565b61151e565b34801561033e57600080fd5b5061035261034d366004613384565b611b76565b6040516101ce9190613744565b34801561036b57600080fd5b5061029b611c66565b34801561038057600080fd5b506101c161038f3660046133a0565b611c75565b3480156103a057600080fd5b5061024e6103af366004613384565b61231f565b3480156103c057600080fd5b5061024e612350565b3480156103d557600080fd5b506101c16103e43660046133a0565b612356565b3480156103f557600080fd5b5061024e612866565b34801561040a57600080fd5b5061024e612877565b34801561041f57600080fd5b5061024e61042e3660046133a0565b612888565b34801561043f57600080fd5b5061020c6128f4565b34801561045457600080fd5b5061029b612905565b34801561046957600080fd5b5061029b612914565b34801561047e57600080fd5b5061024e61048d3660046133a0565b612923565b34801561049e57600080fd5b506102dd6104ad366004613384565b612aa5565b3480156104be57600080fd5b506101c16104cd366004613604565b612b92565b600080546001600160a01b03163314610520576040805162461bcd60e51b815260206004820181905260248201526000805160206138b5833981519152604482015290519081900360640190fd5b6001600160a01b03821661053357600080fd5b6001600160a01b03821660009081526006602052604090205460ff16151560011461055d57600080fd5b6001600160a01b0382166000908152600860205260409020548061058057600080fd5b6001600160a01b0383166000818152600860205260408120556105a4903383612c13565b7ffd8ff1a6aeb2cf8cbc2955feb1600a2184b840b5d6302ebb4da586375881139e3384836040516105d7939291906136e2565b60405180910390a160019150505b919050565b600080546001600160a01b03163314610638576040805162461bcd60e51b815260206004820181905260248201526000805160206138b5833981519152604482015290519081900360640190fd5b60008261ffff161161064957600080fd5b506001805461ffff8316600160b01b0261ffff60b01b19909116178155919050565b600154600160a01b900461ffff1681565b600080821161068a57600080fd5b60035460405163c4228d8160e01b81526001600160a01b039091169063c4228d81906106ba908690600401613669565b60006040518083038186803b1580156106d257600080fd5b505afa1580156106e6573d6000803e3d6000fd5b505050506040513d6000823e601f3d908101601f1916820160405261070e9190810190613419565b516080015165ffffffffffff1642111561072757600080fd5b60035460405163c4228d8160e01b81526000916001600160a01b03169063c4228d8190610758908790600401613669565b60006040518083038186803b15801561077057600080fd5b505afa158015610784573d6000803e3d6000fd5b505050506040513d6000823e601f3d908101601f191682016040526107ac9190810190613419565b5160e001516040516370a0823160e01b815290915083906001600160a01b038316906370a08231906107e2903390600401613669565b60206040518083038186803b1580156107fa57600080fd5b505afa15801561080e573d6000803e3d6000fd5b505050506040513d601f19601f82011682018060405250810190610832919061363e565b101561083d57600080fd5b60035460405163c4228d8160e01b81526001600160a01b039091169063c4228d819061086d908790600401613669565b60006040518083038186803b15801561088557600080fd5b505afa158015610899573d6000803e3d6000fd5b505050506040513d6000823e601f3d908101601f191682016040526108c19190810190613419565b604001516108ce57600080fd5b60035460405163c4228d8160e01b81526000916001600160a01b03169063c4228d81906108ff908890600401613669565b60006040518083038186803b15801561091757600080fd5b505afa15801561092b573d6000803e3d6000fd5b505050506040513d6000823e601f3d908101601f191682016040526109539190810190613419565b51516003546040516315099a8160e11b81529192506001600160a01b031690632a13350290610986908490600401613669565b60006040518083038186803b15801561099e57600080fd5b505afa1580156109b2573d6000803e3d6000fd5b505050506040513d6000823e601f3d908101601f191682016040526109da9190810190613555565b608001516109e757600080fd5b6001600160a01b03821660009081526006602052604090205460ff16610a6b576007805460018082019092557fa66cc928b5edb82af9bd49922954155ab7b0942694bea4ce44661d9a8736c6880180546001600160a01b0319166001600160a01b0385169081179091556000908152600660205260409020805460ff191690911790555b836000610a788783611246565b90506000610a868884611246565b6001600160a01b0389166000908152600460205260408120549192509015610ac6576001600160a01b038916600090815260046020526040902054610ac8565b425b9050610ad261313f565b604051806101e00160405280838152602001600460008d6001600160a01b03166001600160a01b03168152602001908152602001600020600101548152602001886001600160a01b03168152602001600360009054906101000a90046001600160a01b03166001600160a01b031663c4228d818d6040518263ffffffff1660e01b8152600401610b629190613669565b60006040518083038186803b158015610b7a57600080fd5b505afa158015610b8e573d6000803e3d6000fd5b505050506040513d6000823e601f3d908101601f19168201604052610bb69190810190613419565b516101400151151581526001600160a01b038c16600090815260046020908152604090912060030154910190610bed908890612c6a565b81526001600160a01b038c1660009081526004602081815260409092200154910190610c1a908890612c6a565b8152600354604051631fd57f9b60e01b81526020909201916001600160a01b0390911690631fd57f9b90610c52908f90600401613669565b60806040518083038186803b158015610c6a57600080fd5b505afa158015610c7e573d6000803e3d6000fd5b505050506040513d601f19601f82011682018060405250810190610ca291906134e0565b6040908101516001600160a01b0390811683526003549151631fd57f9b60e01b8152602090930192911690631fd57f9b90610ce1908f90600401613669565b60806040518083038186803b158015610cf957600080fd5b505afa158015610d0d573d6000803e3d6000fd5b505050506040513d601f19601f82011682018060405250810190610d3191906134e0565b606001516001600160a01b0390811682528c16600090815260046020908152604090912060070154910190610d67908790612c6a565b81526001600160a01b038c16600090815260046020908152604090912060080154910190610d96908790612c6a565b81526001600160a01b038c16600090815260046020908152604090912060090154910190610dc5908690612c6a565b81526001600160a01b038c166000908152600460209081526040909120600a0154910190610df4908690612c6a565b815260035460405163c4228d8160e01b81526020909201916001600160a01b039091169063c4228d8190610e2c908f90600401613669565b60006040518083038186803b158015610e4457600080fd5b505afa158015610e58573d6000803e3d6000fd5b505050506040513d6000823e601f3d908101601f19168201604052610e809190810190613419565b516040908101516001600160a01b0390811683528d8116600081815260046020818152858320600c81018054838a0152600d8201805499890199909952949093528181528751835587015160018301559386015160028201805460608901511515600160a01b0260ff60a01b199387166001600160a01b031992831617939093169290921790556080870151600383015560a08701519482019490945560c086015160058201805491851691861691909117905560e0860151600682018054918516918616919091179055610100860151600782015561012086015160088201556101408601516009820155610160860151600a820155610180860151600b909101805491841691909416179092556101a08401519091556101c0830151909155909150610fb290881633308c612ccb565b600354604051631fd57f9b60e01b81526001600160a01b03909116906328947a34908290631fd57f9b90610fea908f90600401613669565b60806040518083038186803b15801561100257600080fd5b505afa158015611016573d6000803e3d6000fd5b505050506040513d601f19601f8201168201806040525081019061103a91906134e0565b6040015133876040518463ffffffff1660e01b815260040161105e939291906136e2565b602060405180830381600087803b15801561107857600080fd5b505af115801561108c573d6000803e3d6000fd5b505050506040513d601f19601f820116820180604052508101906110b091906133ff565b50600354604051631fd57f9b60e01b81526001600160a01b03909116906328947a34908290631fd57f9b906110e9908f90600401613669565b60806040518083038186803b15801561110157600080fd5b505afa158015611115573d6000803e3d6000fd5b505050506040513d601f19601f8201168201806040525081019061113991906134e0565b6060015133866040518463ffffffff1660e01b815260040161115d939291906136e2565b602060405180830381600087803b15801561117757600080fd5b505af115801561118b573d6000803e3d6000fd5b505050506040513d601f19601f820116820180604052508101906111af91906133ff565b506001600160a01b0387166000908152600560205260409020546111d4908a90612c6a565b6001600160a01b0388166000908152600560205260409081902091909155517fed4ea2ca077b2ec157f3ff3392b9b6c339174b7f0149f35ab2f8ca58bd1f7776906112269033908d908b908e9061367d565b60405180910390a160019750505050505050505b92915050565b60025481565b60035460405163c4228d8160e01b815260009182916001600160a01b039091169063c4228d819061127b908790600401613669565b60006040518083038186803b15801561129357600080fd5b505afa1580156112a7573d6000803e3d6000fd5b505050506040513d6000823e601f3d908101601f191682016040526112cf9190810190613419565b5161012001519050601260006112fb600a84900a6112f587670de0b6b3a7640000612d2b565b90612d84565b9695505050505050565b600754600090821061131657600080fd5b6007828154811061132357fe5b6000918252602090912001546001600160a01b031692915050565b60035460405163c4228d8160e01b815260009182916001600160a01b039091169063c4228d8190611373908790600401613669565b60006040518083038186803b15801561138b57600080fd5b505afa15801561139f573d6000803e3d6000fd5b505050506040513d6000823e601f3d908101601f191682016040526113c79190810190613419565b5161012001519050601260006112fb670de0b6b3a76400006112f587600a87900a612d2b565b6000546001600160a01b03161561140357600080fd5b600080546001600160a01b03191633178082556040516001600160a01b039190911691907fe9a5158ac7353c7c7322ececc080bc8e89334efa5795b6e21e40eb266b0003d6908290a3565b6001600160a01b0382166000908152600460205260408120600a01548190611482906112f585670de0b6b3a7640000612d2b565b6001600160a01b0385166000908152600460205260408120600d0154919250906114ba90670de0b6b3a7640000906112f59085612d2b565b95945050505050565b60006001600160a01b0382166114d857600080fd5b6001600160a01b03821660009081526006602052604090205460ff16151560011461150257600080fd5b506001600160a01b031660009081526008602052604090205490565b60006001600160a01b03841661153357600080fd5b6000831161154057600080fd5b6001600160a01b038085166000908152600460208190526040918290206005015491516370a0823160e01b81529190921691859183916370a082319161158891339101613669565b60206040518083038186803b1580156115a057600080fd5b505afa1580156115b4573d6000803e3d6000fd5b505050506040513d601f19601f820116820180604052508101906115d8919061363e565b10156115e357600080fd5b60006115ef8686612923565b90508381146115fd57600080fd5b6001600160a01b038681166000908152600460205260409020600b015416611631578334101561162c57600080fd5b611764565b60035460405163c4228d8160e01b815285916001600160a01b03169063c4228d8190611661908a90600401613669565b60006040518083038186803b15801561167957600080fd5b505afa15801561168d573d6000803e3d6000fd5b505050506040513d6000823e601f3d908101601f191682016040526116b59190810190613419565b60000151604001516001600160a01b03166370a08231336040518263ffffffff1660e01b81526004016116e89190613669565b60206040518083038186803b15801561170057600080fd5b505afa158015611714573d6000803e3d6000fd5b505050506040513d601f19601f82011682018060405250810190611738919061363e565b50506001600160a01b038087166000908152600460205260409020600b01546117649116333084612ccb565b6001600160a01b03861660009081526004602052604090206008015485111561178c57600080fd5b60035460405163c4228d8160e01b81526001600160a01b039091169063c4228d81906117bc908990600401613669565b60006040518083038186803b1580156117d457600080fd5b505afa1580156117e8573d6000803e3d6000fd5b505050506040513d6000823e601f3d908101601f191682016040526118109190810190613419565b516080015165ffffffffffff1642111561182957600080fd5b6001600160a01b03861660009081526004602052604090206008015461184f9086612dc6565b6001600160a01b03871660009081526004602052604090206008810191909155600d015461187e908290612c6a565b6001600160a01b0387166000908152600460205260409020600d810191909155600c01546118ad908290612c6a565b6001600160a01b0387166000908152600460205260408120600c01919091556118d6878761133e565b6001600160a01b038816600090815260046020819052604090912001549091506119009082612dc6565b6001600160a01b0388166000908152600460208190526040822001919091556001546119469061ffff600160b01b82048116916112f5918691600160a01b900416612d2b565b6001600160a01b038916600090815260046020526040902060010154909150611970908290612c6a565b6001600160a01b03808a16600090815260046020908152604080832060018101959095556002909401549092168152600890915220546119b1908290612c6a565b6001600160a01b03808a166000908152600460209081526040808320600201549093168252600890522055611a0f336119ea8484612dc6565b6001600160a01b03808c16600090815260046020526040902060020154169190612c13565b6001600160a01b038089166000908152600460209081526040808320600201549093168252600590522054611a449083612dc6565b6001600160a01b03808a16600081815260046020818152604080842060028101548716855260058084528286209890985560035495909452908290529190940154905163782261df60e11b81529183169363f044c3be93611aac9392169133918d91016136e2565b602060405180830381600087803b158015611ac657600080fd5b505af1158015611ada573d6000803e3d6000fd5b505050506040513d601f19601f82011682018060405250810190611afe91906133ff565b506001600160a01b03808916600090815260046020526040908190206005810154600b9091015491517f0740936eb219670da6ea50dab917c4540d09bafa95f81a12ccaa01b71a15dc3f93611b609333938e93908316928e9216908a906136a7565b60405180910390a1506001979650505050505050565b611b7e61313f565b6001600160a01b038216611b9157600080fd5b506001600160a01b0390811660009081526004602081815260409283902083516101e08101855281548152600182015492810192909252600281015480861694830194909452600160a01b90930460ff1615156060820152600383015460808201529082015460a08201526005820154831660c08201526006820154831660e0820152600782015461010082015260088201546101208201526009820154610140820152600a820154610160820152600b820154909216610180830152600c8101546101a0830152600d01546101c082015290565b6000546001600160a01b031690565b6000808211611c8357600080fd5b60035460405163c4228d8160e01b81526001600160a01b039091169063c4228d8190611cb3908690600401613669565b60006040518083038186803b158015611ccb57600080fd5b505afa158015611cdf573d6000803e3d6000fd5b505050506040513d6000823e601f3d908101601f19168201604052611d079190810190613419565b516080015165ffffffffffff16421115611d2057600080fd5b6001600160a01b03808416600090815260046020819052604091829020600581015460069091015492516370a0823160e01b8152908416939290921691859184916370a0823191611d7391339101613669565b60206040518083038186803b158015611d8b57600080fd5b505afa158015611d9f573d6000803e3d6000fd5b505050506040513d601f19601f82011682018060405250810190611dc3919061363e565b1015611dce57600080fd5b6040516370a0823160e01b815284906001600160a01b038316906370a0823190611dfc903390600401613669565b60206040518083038186803b158015611e1457600080fd5b505afa158015611e28573d6000803e3d6000fd5b505050506040513d601f19601f82011682018060405250810190611e4c919061363e565b1015611e5757600080fd5b6001600160a01b038516600090815260046020526040902060080154841115611e7f57600080fd5b6001600160a01b0385166000908152600460205260409020600a0154841115611ea757600080fd5b6001600160a01b038516600090815260046020526040902060080154611ecd9085612dc6565b6001600160a01b03861660009081526004602052604090206008810191909155600a0154611efb9085612dc6565b6001600160a01b0386166000908152600460205260408120600a0191909155611f24868661133e565b6001600160a01b03871660009081526004602081905260409091200154909150611f4e9082612dc6565b6001600160a01b038716600090815260046020819052604082200191909155600154611f949061ffff600160b01b82048116916112f5918691600160a01b900416612d2b565b6001600160a01b038816600090815260046020526040902060010154909150611fbe908290612c6a565b6001600160a01b03808916600090815260046020819052604080832060010194909455600354935163c4228d8160e01b815291939092169163c4228d8191612008918c9101613669565b60006040518083038186803b15801561202057600080fd5b505afa158015612034573d6000803e3d6000fd5b505050506040513d6000823e601f3d908101601f1916820160405261205c9190810190613419565b5160e001519050612082336120718585612dc6565b6001600160a01b0384169190612c13565b6001600160a01b0381166000908152600860205260409020546120a6908390612c6a565b6001600160a01b0382166000908152600860209081526040808320939093556005905220546120d59084612dc6565b6001600160a01b0380831660009081526005602052604090819020929092556003549151631fd57f9b60e01b815291169063f044c3be908290631fd57f9b90612122908d90600401613669565b60806040518083038186803b15801561213a57600080fd5b505afa15801561214e573d6000803e3d6000fd5b505050506040513d601f19601f8201168201806040525081019061217291906134e0565b60400151338a6040518463ffffffff1660e01b8152600401612196939291906136e2565b602060405180830381600087803b1580156121b057600080fd5b505af11580156121c4573d6000803e3d6000fd5b505050506040513d601f19601f820116820180604052508101906121e891906133ff565b50600354604051631fd57f9b60e01b81526001600160a01b039091169063f044c3be908290631fd57f9b90612221908d90600401613669565b60806040518083038186803b15801561223957600080fd5b505afa15801561224d573d6000803e3d6000fd5b505050506040513d601f19601f8201168201806040525081019061227191906134e0565b60600151338a6040518463ffffffff1660e01b8152600401612295939291906136e2565b602060405180830381600087803b1580156122af57600080fd5b505af11580156122c3573d6000803e3d6000fd5b505050506040513d601f19601f820116820180604052508101906122e791906133ff565b507fe59b6adfb5f841ef0b93c04f7d8469420ea10c6a6804ea2b9e7807263d73885b3389898487604051611b60959493929190613706565b60006001600160a01b03821661233457600080fd5b506001600160a01b031660009081526005602052604090205490565b60075490565b60006001600160a01b03831661236b57600080fd5b6000821161237857600080fd5b6001600160a01b038084166000908152600460208190526040918290206006015491516370a0823160e01b81529190921691849183916370a08231916123c091339101613669565b60206040518083038186803b1580156123d857600080fd5b505afa1580156123ec573d6000803e3d6000fd5b505050506040513d601f19601f82011682018060405250810190612410919061363e565b101561241b57600080fd5b60035460405163c4228d8160e01b81526001600160a01b039091169063c4228d819061244b908790600401613669565b60006040518083038186803b15801561246357600080fd5b505afa158015612477573d6000803e3d6000fd5b505050506040513d6000823e601f3d908101601f1916820160405261249f9190810190613419565b516080015165ffffffffffff1642116124b757600080fd5b60006124c38585612888565b905060006124d1868661144e565b6001600160a01b0387166000908152600460205260409020600a01549091506124fa9086612dc6565b6001600160a01b0387166000908152600460208190526040909120600a81019290925501546125299083612dc6565b6001600160a01b038716600090815260046020819052604090912090810191909155600d01546125599082612dc6565b6001600160a01b0387166000908152600460205260409020600d015581156126d0576001546000906125a59061ffff600160b01b82048116916112f5918791600160a01b900416612d2b565b6001600160a01b0388166000908152600460205260409020600101549091506125cf908290612c6a565b6001600160a01b0380891660009081526004602090815260408083206001810195909555600290940154909216815260089091522054612610908290612c6a565b6001600160a01b03808916600090815260046020908152604080832060020154909316825260089052205561266e336126498584612dc6565b6001600160a01b03808b16600090815260046020526040902060020154169190612c13565b6001600160a01b0380881660009081526004602090815260408083206002015490931682526005905220546126a39084612dc6565b6001600160a01b038089166000908152600460209081526040808320600201549093168252600590522055505b8015612754576001600160a01b038681166000908152600460205260409020600b01541661272b57604051339082156108fc029083906000818181858888f19350505050158015612725573d6000803e3d6000fd5b50612754565b6001600160a01b038087166000908152600460205260409020600b015461275491163383612c13565b6003546001600160a01b0387811660009081526004602081905260409182902060060154915163782261df60e11b81529383169363f044c3be9361279e93169133918b91016136e2565b602060405180830381600087803b1580156127b857600080fd5b505af11580156127cc573d6000803e3d6000fd5b505050506040513d601f19601f820116820180604052508101906127f091906133ff565b506001600160a01b03808716600090815260046020526040908190206002810154600b9091015491517f1af4c5616ef194d958c1f1a05bf8a442a481516b6ae7e4967df1615fb405b69d936128529333938c93908316928992169088906136a7565b60405180910390a150600195945050505050565b600154600160a01b900461ffff1690565b600154600160b01b900461ffff1690565b6001600160a01b0382166000908152600460205260408120600a015481906128bc906112f585670de0b6b3a7640000612d2b565b6001600160a01b038516600090815260046020819052604082200154919250906114ba90670de0b6b3a7640000906112f59085612d2b565b600154600160b01b900461ffff1681565b6001546001600160a01b031681565b6003546001600160a01b031681565b60035460405163c4228d8160e01b815260009182916001600160a01b039091169063c4228d8190612958908790600401613669565b60006040518083038186803b15801561297057600080fd5b505afa158015612984573d6000803e3d6000fd5b505050506040513d6000823e601f3d908101601f191682016040526129ac9190810190613419565b51606001519050601260006129d1670de0b6b3a76400006112f587600a87900a612d2b565b60035460405163c4228d8160e01b81529192506000916001600160a01b039091169063c4228d8190612a07908a90600401613669565b60006040518083038186803b158015612a1f57600080fd5b505afa158015612a33573d6000803e3d6000fd5b505050506040513d6000823e601f3d908101601f19168201604052612a5b9190810190613419565b5161010001519050612a86620f4240612a80836112f586670de0b6b3a7640000612d2b565b90612d2b565b9150612a9a82670de0b6b3a7640000612d84565b979650505050505050565b6000546001600160a01b03163314612af2576040805162461bcd60e51b815260206004820181905260248201526000805160206138b5833981519152604482015290519081900360640190fd5b6001600160a01b038116612b375760405162461bcd60e51b815260040180806020018281038252602681526020018061386e6026913960400191505060405180910390fd5b600080546040516001600160a01b03808516939216917fb150023a879fd806e3599b6ca8ee3b60f0e360ab3846d128d67ebce1a391639a91a3600080546001600160a01b0319166001600160a01b0392909216919091179055565b600080546001600160a01b03163314612be0576040805162461bcd60e51b815260206004820181905260248201526000805160206138b5833981519152604482015290519081900360640190fd5b60008261ffff1611612bf157600080fd5b506001805461ffff8316600160a01b0261ffff60a01b19909116178155919050565b604080516001600160a01b038416602482015260448082018490528251808303909101815260649091019091526020810180516001600160e01b031663a9059cbb60e01b179052612c65908490612e08565b505050565b600082820183811015612cc4576040805162461bcd60e51b815260206004820152601b60248201527f536166654d6174683a206164646974696f6e206f766572666c6f770000000000604482015290519081900360640190fd5b9392505050565b604080516001600160a01b0380861660248301528416604482015260648082018490528251808303909101815260849091019091526020810180516001600160e01b03166323b872dd60e01b179052612d25908590612e08565b50505050565b600082612d3a5750600061123a565b82820282848281612d4757fe5b0414612cc45760405162461bcd60e51b81526004018080602001828103825260218152602001806138946021913960400191505060405180910390fd5b6000612cc483836040518060400160405280601a81526020017f536166654d6174683a206469766973696f6e206279207a65726f000000000000815250612eb9565b6000612cc483836040518060400160405280601e81526020017f536166654d6174683a207375627472616374696f6e206f766572666c6f770000815250612f5b565b6060612e5d826040518060400160405280602081526020017f5361666545524332303a206c6f772d6c6576656c2063616c6c206661696c6564815250856001600160a01b0316612fb59092919063ffffffff16565b805190915015612c6557808060200190516020811015612e7c57600080fd5b5051612c655760405162461bcd60e51b815260040180806020018281038252602a8152602001806138d5602a913960400191505060405180910390fd5b60008183612f455760405162461bcd60e51b81526004018080602001828103825283818151815260200191508051906020019080838360005b83811015612f0a578181015183820152602001612ef2565b50505050905090810190601f168015612f375780820380516001836020036101000a031916815260200191505b509250505060405180910390fd5b506000838581612f5157fe5b0495945050505050565b60008184841115612fad5760405162461bcd60e51b8152602060048201818152835160248401528351909283926044909101919085019080838360008315612f0a578181015183820152602001612ef2565b505050900390565b6060612fc48484600085612fcc565b949350505050565b6060612fd785613139565b613028576040805162461bcd60e51b815260206004820152601d60248201527f416464726573733a2063616c6c20746f206e6f6e2d636f6e7472616374000000604482015290519081900360640190fd5b60006060866001600160a01b031685876040518082805190602001908083835b602083106130675780518252601f199092019160209182019101613048565b6001836020036101000a03801982511681845116808217855250505050505090500191505060006040518083038185875af1925050503d80600081146130c9576040519150601f19603f3d011682016040523d82523d6000602084013e6130ce565b606091505b509150915081156130e2579150612fc49050565b8051156130f25780518082602001fd5b60405162461bcd60e51b8152602060048201818152865160248401528651879391928392604401919085019080838360008315612f0a578181015183820152602001612ef2565b3b151590565b604051806101e00160405280600081526020016000815260200160006001600160a01b03168152602001600015158152602001600081526020016000815260200160006001600160a01b0316815260200160006001600160a01b031681526020016000815260200160008152602001600081526020016000815260200160006001600160a01b0316815260200160008152602001600081525090565b80516105e581613855565b805180151581146105e557600080fd5b600082601f830112613206578081fd5b815167ffffffffffffffff81111561321a57fe5b602061322e601f8301601f19168201613831565b9250818352848183860101111561324457600080fd5b60005b82811015613262578481018201518482018301528101613247565b828111156132735760008284860101525b50505092915050565b600061016080838503121561328f578182fd5b61329881613831565b9150506132a4826131db565b8152602082015167ffffffffffffffff808211156132c157600080fd5b6132cd858386016131f6565b60208401526132de604085016131db565b6040840152606084015160608401526132f96080850161336e565b608084015260a084015191508082111561331257600080fd5b5061331f848285016131f6565b60a08301525060c082015160c082015261333b60e083016131db565b60e0820152610100828101519082015261012080830151908201526101406133648184016131e6565b9082015292915050565b805165ffffffffffff811681146105e557600080fd5b600060208284031215613395578081fd5b8135612cc481613855565b600080604083850312156133b2578081fd5b82356133bd81613855565b946020939093013593505050565b6000806000606084860312156133df578081fd5b83356133ea81613855565b95602085013595506040909401359392505050565b600060208284031215613410578081fd5b612cc4826131e6565b60006020828403121561342a578081fd5b815167ffffffffffffffff80821115613441578283fd5b9083019060c08286031215613454578283fd5b60405160c08101818110838211171561346957fe5b60405282518281111561347a578485fd5b6134868782860161327c565b8252506020830151602082015261349f604084016131e6565b60408201526134b0606084016131db565b60608201526134c1608084016131db565b60808201526134d260a084016131db565b60a082015295945050505050565b6000608082840312156134f1578081fd5b6040516080810181811067ffffffffffffffff8211171561350e57fe5b604052825161351c81613855565b815260208381015190820152604083015161353681613855565b6040820152606083015161354981613855565b60608201529392505050565b600060208284031215613566578081fd5b815167ffffffffffffffff8082111561357d578283fd5b9083019060a08286031215613590578283fd5b60405160a0810181811083821117156135a557fe5b604052825181526020830151828111156135bd578485fd5b6135c9878286016131f6565b6020830152506135db604084016131db565b6040820152606083015160608201526135f6608084016131e6565b608082015295945050505050565b600060208284031215613615578081fd5b813561ffff81168114612cc4578182fd5b600060208284031215613637578081fd5b5035919050565b60006020828403121561364f578081fd5b5051919050565b6001600160a01b03169052565b15159052565b6001600160a01b0391909116815260200190565b6001600160a01b039485168152928416602084015292166040820152606081019190915260800190565b6001600160a01b039687168152948616602086015292851660408501526060840191909152909216608082015260a081019190915260c00190565b6001600160a01b039384168152919092166020820152604081019190915260600190565b6001600160a01b039586168152938516602085015260408401929092529092166060820152608081019190915260a00190565b901515815260200190565b60006101e0820190508251825260208301516020830152604083015161376d6040840182613656565b5060608301516137806060840182613663565b506080830151608083015260a083015160a083015260c08301516137a760c0840182613656565b5060e08301516137ba60e0840182613656565b506101008381015190830152610120808401519083015261014080840151908301526101608084015190830152610180808401516137fa82850182613656565b50506101a083810151908301526101c092830151929091019190915290565b61ffff91909116815260200190565b90815260200190565b60405181810167ffffffffffffffff8111828210171561384d57fe5b604052919050565b6001600160a01b038116811461386a57600080fd5b5056fe4f776e61626c653a206e6577206f776e657220697320746865207a65726f2061646472657373536166654d6174683a206d756c7469706c69636174696f6e206f766572666c6f774f776e61626c653a2063616c6c6572206973206e6f7420746865206f776e65725361666545524332303a204552433230206f7065726174696f6e20646964206e6f742073756363656564a26469706673582212208ea5dab8ecda768699ba182c02a19f311c7f104255d9b32e5dba0edac97fe5a864736f6c63430007040033",
			"opcodes": "PUSH1 0x80 PUSH1 0x40 MSTORE PUSH8 0xDE0B6B3A7640000 PUSH1 0x2 SSTORE CALLVALUE DUP1 ISZERO PUSH3 0x1D JUMPI PUSH1 0x0 DUP1 REVERT JUMPDEST POP PUSH1 0x40 MLOAD PUSH3 0x3A69 CODESIZE SUB DUP1 PUSH3 0x3A69 DUP4 CODECOPY DUP2 ADD PUSH1 0x40 DUP2 SWAP1 MSTORE PUSH3 0x40 SWAP2 PUSH3 0xF5 JUMP JUMPDEST PUSH3 0x4A PUSH3 0x93 JUMP JUMPDEST PUSH1 0x3 DUP1 SLOAD PUSH1 0x1 PUSH1 0x1 PUSH1 0xA0 SHL SUB NOT AND PUSH1 0x1 PUSH1 0x1 PUSH1 0xA0 SHL SUB SWAP3 SWAP1 SWAP3 AND SWAP2 SWAP1 SWAP2 OR SWAP1 SSTORE PUSH1 0x1 DUP1 SLOAD PUSH2 0xFFFF PUSH1 0xA0 SHL NOT AND PUSH1 0x19 PUSH1 0xA3 SHL OR PUSH2 0xFFFF PUSH1 0xB0 SHL NOT AND PUSH2 0x271 PUSH1 0xB4 SHL OR SWAP1 SSTORE PUSH3 0x125 JUMP JUMPDEST PUSH1 0x0 SLOAD PUSH1 0x1 PUSH1 0x1 PUSH1 0xA0 SHL SUB AND ISZERO PUSH3 0xAA JUMPI PUSH1 0x0 DUP1 REVERT JUMPDEST PUSH1 0x0 DUP1 SLOAD PUSH1 0x1 PUSH1 0x1 PUSH1 0xA0 SHL SUB NOT AND CALLER OR DUP1 DUP3 SSTORE PUSH1 0x40 MLOAD PUSH1 0x1 PUSH1 0x1 PUSH1 0xA0 SHL SUB SWAP2 SWAP1 SWAP2 AND SWAP2 SWAP1 PUSH32 0xE9A5158AC7353C7C7322ECECC080BC8E89334EFA5795B6E21E40EB266B0003D6 SWAP1 DUP3 SWAP1 LOG3 JUMP JUMPDEST PUSH1 0x0 PUSH1 0x20 DUP3 DUP5 SUB SLT ISZERO PUSH3 0x107 JUMPI DUP1 DUP2 REVERT JUMPDEST DUP2 MLOAD PUSH1 0x1 PUSH1 0x1 PUSH1 0xA0 SHL SUB DUP2 AND DUP2 EQ PUSH3 0x11E JUMPI DUP2 DUP3 REVERT JUMPDEST SWAP4 SWAP3 POP POP POP JUMP JUMPDEST PUSH2 0x3934 DUP1 PUSH3 0x135 PUSH1 0x0 CODECOPY PUSH1 0x0 RETURN INVALID PUSH1 0x80 PUSH1 0x40 MSTORE PUSH1 0x4 CALLDATASIZE LT PUSH2 0x19C JUMPI PUSH1 0x0 CALLDATALOAD PUSH1 0xE0 SHR DUP1 PUSH4 0x8DA5CB5B GT PUSH2 0xEC JUMPI DUP1 PUSH4 0xBE9418E3 GT PUSH2 0x8A JUMPI DUP1 PUSH4 0xCFE0008B GT PUSH2 0x64 JUMPI DUP1 PUSH4 0xCFE0008B EQ PUSH2 0x45D JUMPI DUP1 PUSH4 0xD2BE9F1C EQ PUSH2 0x472 JUMPI DUP1 PUSH4 0xF2FDE38B EQ PUSH2 0x492 JUMPI DUP1 PUSH4 0xFF66A772 EQ PUSH2 0x4B2 JUMPI PUSH2 0x19C JUMP JUMPDEST DUP1 PUSH4 0xBE9418E3 EQ PUSH2 0x413 JUMPI DUP1 PUSH4 0xC12E90E9 EQ PUSH2 0x433 JUMPI DUP1 PUSH4 0xC54E44EB EQ PUSH2 0x448 JUMPI PUSH2 0x19C JUMP JUMPDEST DUP1 PUSH4 0xABC14CA7 GT PUSH2 0xC6 JUMPI DUP1 PUSH4 0xABC14CA7 EQ PUSH2 0x3B4 JUMPI DUP1 PUSH4 0xAF49FCAB EQ PUSH2 0x3C9 JUMPI DUP1 PUSH4 0xB17E15C7 EQ PUSH2 0x3E9 JUMPI DUP1 PUSH4 0xB3B4250F EQ PUSH2 0x3FE JUMPI PUSH2 0x19C JUMP JUMPDEST DUP1 PUSH4 0x8DA5CB5B EQ PUSH2 0x35F JUMPI DUP1 PUSH4 0x9ACD81B3 EQ PUSH2 0x374 JUMPI DUP1 PUSH4 0xA52F9D8A EQ PUSH2 0x394 JUMPI PUSH2 0x19C JUMP JUMPDEST DUP1 PUSH4 0x4BDB9EEF GT PUSH2 0x159 JUMPI DUP1 PUSH4 0x61515793 GT PUSH2 0x133 JUMPI DUP1 PUSH4 0x61515793 EQ PUSH2 0x2DF JUMPI DUP1 PUSH4 0x64E0BF6C EQ PUSH2 0x2FF JUMPI DUP1 PUSH4 0x7861E652 EQ PUSH2 0x31F JUMPI DUP1 PUSH4 0x8D398204 EQ PUSH2 0x332 JUMPI PUSH2 0x19C JUMP JUMPDEST DUP1 PUSH4 0x4BDB9EEF EQ PUSH2 0x27B JUMPI DUP1 PUSH4 0x55CBE3B4 EQ PUSH2 0x2A8 JUMPI DUP1 PUSH4 0x5F53837F EQ PUSH2 0x2C8 JUMPI PUSH2 0x19C JUMP JUMPDEST DUP1 PUSH4 0x6CB68D1 EQ PUSH2 0x1A1 JUMPI DUP1 PUSH4 0xBD2411C EQ PUSH2 0x1D7 JUMPI DUP1 PUSH4 0xDB60F37 EQ PUSH2 0x1F7 JUMPI DUP1 PUSH4 0x1D402C37 EQ PUSH2 0x219 JUMPI DUP1 PUSH4 0x430A4FBF EQ PUSH2 0x239 JUMPI DUP1 PUSH4 0x4B4A0D2A EQ PUSH2 0x25B JUMPI JUMPDEST PUSH1 0x0 DUP1 REVERT JUMPDEST CALLVALUE DUP1 ISZERO PUSH2 0x1AD JUMPI PUSH1 0x0 DUP1 REVERT JUMPDEST POP PUSH2 0x1C1 PUSH2 0x1BC CALLDATASIZE PUSH1 0x4 PUSH2 0x3384 JUMP JUMPDEST PUSH2 0x4D2 JUMP JUMPDEST PUSH1 0x40 MLOAD PUSH2 0x1CE SWAP2 SWAP1 PUSH2 0x3739 JUMP JUMPDEST PUSH1 0x40 MLOAD DUP1 SWAP2 SUB SWAP1 RETURN JUMPDEST CALLVALUE DUP1 ISZERO PUSH2 0x1E3 JUMPI PUSH1 0x0 DUP1 REVERT JUMPDEST POP PUSH2 0x1C1 PUSH2 0x1F2 CALLDATASIZE PUSH1 0x4 PUSH2 0x3604 JUMP JUMPDEST PUSH2 0x5EA JUMP JUMPDEST CALLVALUE DUP1 ISZERO PUSH2 0x203 JUMPI PUSH1 0x0 DUP1 REVERT JUMPDEST POP PUSH2 0x20C PUSH2 0x66B JUMP JUMPDEST PUSH1 0x40 MLOAD PUSH2 0x1CE SWAP2 SWAP1 PUSH2 0x3819 JUMP JUMPDEST CALLVALUE DUP1 ISZERO PUSH2 0x225 JUMPI PUSH1 0x0 DUP1 REVERT JUMPDEST POP PUSH2 0x1C1 PUSH2 0x234 CALLDATASIZE PUSH1 0x4 PUSH2 0x33A0 JUMP JUMPDEST PUSH2 0x67C JUMP JUMPDEST CALLVALUE DUP1 ISZERO PUSH2 0x245 JUMPI PUSH1 0x0 DUP1 REVERT JUMPDEST POP PUSH2 0x24E PUSH2 0x1240 JUMP JUMPDEST PUSH1 0x40 MLOAD PUSH2 0x1CE SWAP2 SWAP1 PUSH2 0x3828 JUMP JUMPDEST CALLVALUE DUP1 ISZERO PUSH2 0x267 JUMPI PUSH1 0x0 DUP1 REVERT JUMPDEST POP PUSH2 0x24E PUSH2 0x276 CALLDATASIZE PUSH1 0x4 PUSH2 0x33A0 JUMP JUMPDEST PUSH2 0x1246 JUMP JUMPDEST CALLVALUE DUP1 ISZERO PUSH2 0x287 JUMPI PUSH1 0x0 DUP1 REVERT JUMPDEST POP PUSH2 0x29B PUSH2 0x296 CALLDATASIZE PUSH1 0x4 PUSH2 0x3626 JUMP JUMPDEST PUSH2 0x1305 JUMP JUMPDEST PUSH1 0x40 MLOAD PUSH2 0x1CE SWAP2 SWAP1 PUSH2 0x3669 JUMP JUMPDEST CALLVALUE DUP1 ISZERO PUSH2 0x2B4 JUMPI PUSH1 0x0 DUP1 REVERT JUMPDEST POP PUSH2 0x24E PUSH2 0x2C3 CALLDATASIZE PUSH1 0x4 PUSH2 0x33A0 JUMP JUMPDEST PUSH2 0x133E JUMP JUMPDEST CALLVALUE DUP1 ISZERO PUSH2 0x2D4 JUMPI PUSH1 0x0 DUP1 REVERT JUMPDEST POP PUSH2 0x2DD PUSH2 0x13ED JUMP JUMPDEST STOP JUMPDEST CALLVALUE DUP1 ISZERO PUSH2 0x2EB JUMPI PUSH1 0x0 DUP1 REVERT JUMPDEST POP PUSH2 0x24E PUSH2 0x2FA CALLDATASIZE PUSH1 0x4 PUSH2 0x33A0 JUMP JUMPDEST PUSH2 0x144E JUMP JUMPDEST CALLVALUE DUP1 ISZERO PUSH2 0x30B JUMPI PUSH1 0x0 DUP1 REVERT JUMPDEST POP PUSH2 0x24E PUSH2 0x31A CALLDATASIZE PUSH1 0x4 PUSH2 0x3384 JUMP JUMPDEST PUSH2 0x14C3 JUMP JUMPDEST PUSH2 0x1C1 PUSH2 0x32D CALLDATASIZE PUSH1 0x4 PUSH2 0x33CB JUMP JUMPDEST PUSH2 0x151E JUMP JUMPDEST CALLVALUE DUP1 ISZERO PUSH2 0x33E JUMPI PUSH1 0x0 DUP1 REVERT JUMPDEST POP PUSH2 0x352 PUSH2 0x34D CALLDATASIZE PUSH1 0x4 PUSH2 0x3384 JUMP JUMPDEST PUSH2 0x1B76 JUMP JUMPDEST PUSH1 0x40 MLOAD PUSH2 0x1CE SWAP2 SWAP1 PUSH2 0x3744 JUMP JUMPDEST CALLVALUE DUP1 ISZERO PUSH2 0x36B JUMPI PUSH1 0x0 DUP1 REVERT JUMPDEST POP PUSH2 0x29B PUSH2 0x1C66 JUMP JUMPDEST CALLVALUE DUP1 ISZERO PUSH2 0x380 JUMPI PUSH1 0x0 DUP1 REVERT JUMPDEST POP PUSH2 0x1C1 PUSH2 0x38F CALLDATASIZE PUSH1 0x4 PUSH2 0x33A0 JUMP JUMPDEST PUSH2 0x1C75 JUMP JUMPDEST CALLVALUE DUP1 ISZERO PUSH2 0x3A0 JUMPI PUSH1 0x0 DUP1 REVERT JUMPDEST POP PUSH2 0x24E PUSH2 0x3AF CALLDATASIZE PUSH1 0x4 PUSH2 0x3384 JUMP JUMPDEST PUSH2 0x231F JUMP JUMPDEST CALLVALUE DUP1 ISZERO PUSH2 0x3C0 JUMPI PUSH1 0x0 DUP1 REVERT JUMPDEST POP PUSH2 0x24E PUSH2 0x2350 JUMP JUMPDEST CALLVALUE DUP1 ISZERO PUSH2 0x3D5 JUMPI PUSH1 0x0 DUP1 REVERT JUMPDEST POP PUSH2 0x1C1 PUSH2 0x3E4 CALLDATASIZE PUSH1 0x4 PUSH2 0x33A0 JUMP JUMPDEST PUSH2 0x2356 JUMP JUMPDEST CALLVALUE DUP1 ISZERO PUSH2 0x3F5 JUMPI PUSH1 0x0 DUP1 REVERT JUMPDEST POP PUSH2 0x24E PUSH2 0x2866 JUMP JUMPDEST CALLVALUE DUP1 ISZERO PUSH2 0x40A JUMPI PUSH1 0x0 DUP1 REVERT JUMPDEST POP PUSH2 0x24E PUSH2 0x2877 JUMP JUMPDEST CALLVALUE DUP1 ISZERO PUSH2 0x41F JUMPI PUSH1 0x0 DUP1 REVERT JUMPDEST POP PUSH2 0x24E PUSH2 0x42E CALLDATASIZE PUSH1 0x4 PUSH2 0x33A0 JUMP JUMPDEST PUSH2 0x2888 JUMP JUMPDEST CALLVALUE DUP1 ISZERO PUSH2 0x43F JUMPI PUSH1 0x0 DUP1 REVERT JUMPDEST POP PUSH2 0x20C PUSH2 0x28F4 JUMP JUMPDEST CALLVALUE DUP1 ISZERO PUSH2 0x454 JUMPI PUSH1 0x0 DUP1 REVERT JUMPDEST POP PUSH2 0x29B PUSH2 0x2905 JUMP JUMPDEST CALLVALUE DUP1 ISZERO PUSH2 0x469 JUMPI PUSH1 0x0 DUP1 REVERT JUMPDEST POP PUSH2 0x29B PUSH2 0x2914 JUMP JUMPDEST CALLVALUE DUP1 ISZERO PUSH2 0x47E JUMPI PUSH1 0x0 DUP1 REVERT JUMPDEST POP PUSH2 0x24E PUSH2 0x48D CALLDATASIZE PUSH1 0x4 PUSH2 0x33A0 JUMP JUMPDEST PUSH2 0x2923 JUMP JUMPDEST CALLVALUE DUP1 ISZERO PUSH2 0x49E JUMPI PUSH1 0x0 DUP1 REVERT JUMPDEST POP PUSH2 0x2DD PUSH2 0x4AD CALLDATASIZE PUSH1 0x4 PUSH2 0x3384 JUMP JUMPDEST PUSH2 0x2AA5 JUMP JUMPDEST CALLVALUE DUP1 ISZERO PUSH2 0x4BE JUMPI PUSH1 0x0 DUP1 REVERT JUMPDEST POP PUSH2 0x1C1 PUSH2 0x4CD CALLDATASIZE PUSH1 0x4 PUSH2 0x3604 JUMP JUMPDEST PUSH2 0x2B92 JUMP JUMPDEST PUSH1 0x0 DUP1 SLOAD PUSH1 0x1 PUSH1 0x1 PUSH1 0xA0 SHL SUB AND CALLER EQ PUSH2 0x520 JUMPI PUSH1 0x40 DUP1 MLOAD PUSH3 0x461BCD PUSH1 0xE5 SHL DUP2 MSTORE PUSH1 0x20 PUSH1 0x4 DUP3 ADD DUP2 SWAP1 MSTORE PUSH1 0x24 DUP3 ADD MSTORE PUSH1 0x0 DUP1 MLOAD PUSH1 0x20 PUSH2 0x38B5 DUP4 CODECOPY DUP2 MLOAD SWAP2 MSTORE PUSH1 0x44 DUP3 ADD MSTORE SWAP1 MLOAD SWAP1 DUP2 SWAP1 SUB PUSH1 0x64 ADD SWAP1 REVERT JUMPDEST PUSH1 0x1 PUSH1 0x1 PUSH1 0xA0 SHL SUB DUP3 AND PUSH2 0x533 JUMPI PUSH1 0x0 DUP1 REVERT JUMPDEST PUSH1 0x1 PUSH1 0x1 PUSH1 0xA0 SHL SUB DUP3 AND PUSH1 0x0 SWAP1 DUP2 MSTORE PUSH1 0x6 PUSH1 0x20 MSTORE PUSH1 0x40 SWAP1 KECCAK256 SLOAD PUSH1 0xFF AND ISZERO ISZERO PUSH1 0x1 EQ PUSH2 0x55D JUMPI PUSH1 0x0 DUP1 REVERT JUMPDEST PUSH1 0x1 PUSH1 0x1 PUSH1 0xA0 SHL SUB DUP3 AND PUSH1 0x0 SWAP1 DUP2 MSTORE PUSH1 0x8 PUSH1 0x20 MSTORE PUSH1 0x40 SWAP1 KECCAK256 SLOAD DUP1 PUSH2 0x580 JUMPI PUSH1 0x0 DUP1 REVERT JUMPDEST PUSH1 0x1 PUSH1 0x1 PUSH1 0xA0 SHL SUB DUP4 AND PUSH1 0x0 DUP2 DUP2 MSTORE PUSH1 0x8 PUSH1 0x20 MSTORE PUSH1 0x40 DUP2 KECCAK256 SSTORE PUSH2 0x5A4 SWAP1 CALLER DUP4 PUSH2 0x2C13 JUMP JUMPDEST PUSH32 0xFD8FF1A6AEB2CF8CBC2955FEB1600A2184B840B5D6302EBB4DA586375881139E CALLER DUP5 DUP4 PUSH1 0x40 MLOAD PUSH2 0x5D7 SWAP4 SWAP3 SWAP2 SWAP1 PUSH2 0x36E2 JUMP JUMPDEST PUSH1 0x40 MLOAD DUP1 SWAP2 SUB SWAP1 LOG1 PUSH1 0x1 SWAP2 POP POP JUMPDEST SWAP2 SWAP1 POP JUMP JUMPDEST PUSH1 0x0 DUP1 SLOAD PUSH1 0x1 PUSH1 0x1 PUSH1 0xA0 SHL SUB AND CALLER EQ PUSH2 0x638 JUMPI PUSH1 0x40 DUP1 MLOAD PUSH3 0x461BCD PUSH1 0xE5 SHL DUP2 MSTORE PUSH1 0x20 PUSH1 0x4 DUP3 ADD DUP2 SWAP1 MSTORE PUSH1 0x24 DUP3 ADD MSTORE PUSH1 0x0 DUP1 MLOAD PUSH1 0x20 PUSH2 0x38B5 DUP4 CODECOPY DUP2 MLOAD SWAP2 MSTORE PUSH1 0x44 DUP3 ADD MSTORE SWAP1 MLOAD SWAP1 DUP2 SWAP1 SUB PUSH1 0x64 ADD SWAP1 REVERT JUMPDEST PUSH1 0x0 DUP3 PUSH2 0xFFFF AND GT PUSH2 0x649 JUMPI PUSH1 0x0 DUP1 REVERT JUMPDEST POP PUSH1 0x1 DUP1 SLOAD PUSH2 0xFFFF DUP4 AND PUSH1 0x1 PUSH1 0xB0 SHL MUL PUSH2 0xFFFF PUSH1 0xB0 SHL NOT SWAP1 SWAP2 AND OR DUP2 SSTORE SWAP2 SWAP1 POP JUMP JUMPDEST PUSH1 0x1 SLOAD PUSH1 0x1 PUSH1 0xA0 SHL SWAP1 DIV PUSH2 0xFFFF AND DUP2 JUMP JUMPDEST PUSH1 0x0 DUP1 DUP3 GT PUSH2 0x68A JUMPI PUSH1 0x0 DUP1 REVERT JUMPDEST PUSH1 0x3 SLOAD PUSH1 0x40 MLOAD PUSH4 0xC4228D81 PUSH1 0xE0 SHL DUP2 MSTORE PUSH1 0x1 PUSH1 0x1 PUSH1 0xA0 SHL SUB SWAP1 SWAP2 AND SWAP1 PUSH4 0xC4228D81 SWAP1 PUSH2 0x6BA SWAP1 DUP7 SWAP1 PUSH1 0x4 ADD PUSH2 0x3669 JUMP JUMPDEST PUSH1 0x0 PUSH1 0x40 MLOAD DUP1 DUP4 SUB DUP2 DUP7 DUP1 EXTCODESIZE ISZERO DUP1 ISZERO PUSH2 0x6D2 JUMPI PUSH1 0x0 DUP1 REVERT JUMPDEST POP GAS STATICCALL ISZERO DUP1 ISZERO PUSH2 0x6E6 JUMPI RETURNDATASIZE PUSH1 0x0 DUP1 RETURNDATACOPY RETURNDATASIZE PUSH1 0x0 REVERT JUMPDEST POP POP POP POP PUSH1 0x40 MLOAD RETURNDATASIZE PUSH1 0x0 DUP3 RETURNDATACOPY PUSH1 0x1F RETURNDATASIZE SWAP1 DUP2 ADD PUSH1 0x1F NOT AND DUP3 ADD PUSH1 0x40 MSTORE PUSH2 0x70E SWAP2 SWAP1 DUP2 ADD SWAP1 PUSH2 0x3419 JUMP JUMPDEST MLOAD PUSH1 0x80 ADD MLOAD PUSH6 0xFFFFFFFFFFFF AND TIMESTAMP GT ISZERO PUSH2 0x727 JUMPI PUSH1 0x0 DUP1 REVERT JUMPDEST PUSH1 0x3 SLOAD PUSH1 0x40 MLOAD PUSH4 0xC4228D81 PUSH1 0xE0 SHL DUP2 MSTORE PUSH1 0x0 SWAP2 PUSH1 0x1 PUSH1 0x1 PUSH1 0xA0 SHL SUB AND SWAP1 PUSH4 0xC4228D81 SWAP1 PUSH2 0x758 SWAP1 DUP8 SWAP1 PUSH1 0x4 ADD PUSH2 0x3669 JUMP JUMPDEST PUSH1 0x0 PUSH1 0x40 MLOAD DUP1 DUP4 SUB DUP2 DUP7 DUP1 EXTCODESIZE ISZERO DUP1 ISZERO PUSH2 0x770 JUMPI PUSH1 0x0 DUP1 REVERT JUMPDEST POP GAS STATICCALL ISZERO DUP1 ISZERO PUSH2 0x784 JUMPI RETURNDATASIZE PUSH1 0x0 DUP1 RETURNDATACOPY RETURNDATASIZE PUSH1 0x0 REVERT JUMPDEST POP POP POP POP PUSH1 0x40 MLOAD RETURNDATASIZE PUSH1 0x0 DUP3 RETURNDATACOPY PUSH1 0x1F RETURNDATASIZE SWAP1 DUP2 ADD PUSH1 0x1F NOT AND DUP3 ADD PUSH1 0x40 MSTORE PUSH2 0x7AC SWAP2 SWAP1 DUP2 ADD SWAP1 PUSH2 0x3419 JUMP JUMPDEST MLOAD PUSH1 0xE0 ADD MLOAD PUSH1 0x40 MLOAD PUSH4 0x70A08231 PUSH1 0xE0 SHL DUP2 MSTORE SWAP1 SWAP2 POP DUP4 SWAP1 PUSH1 0x1 PUSH1 0x1 PUSH1 0xA0 SHL SUB DUP4 AND SWAP1 PUSH4 0x70A08231 SWAP1 PUSH2 0x7E2 SWAP1 CALLER SWAP1 PUSH1 0x4 ADD PUSH2 0x3669 JUMP JUMPDEST PUSH1 0x20 PUSH1 0x40 MLOAD DUP1 DUP4 SUB DUP2 DUP7 DUP1 EXTCODESIZE ISZERO DUP1 ISZERO PUSH2 0x7FA JUMPI PUSH1 0x0 DUP1 REVERT JUMPDEST POP GAS STATICCALL ISZERO DUP1 ISZERO PUSH2 0x80E JUMPI RETURNDATASIZE PUSH1 0x0 DUP1 RETURNDATACOPY RETURNDATASIZE PUSH1 0x0 REVERT JUMPDEST POP POP POP POP PUSH1 0x40 MLOAD RETURNDATASIZE PUSH1 0x1F NOT PUSH1 0x1F DUP3 ADD AND DUP3 ADD DUP1 PUSH1 0x40 MSTORE POP DUP2 ADD SWAP1 PUSH2 0x832 SWAP2 SWAP1 PUSH2 0x363E JUMP JUMPDEST LT ISZERO PUSH2 0x83D JUMPI PUSH1 0x0 DUP1 REVERT JUMPDEST PUSH1 0x3 SLOAD PUSH1 0x40 MLOAD PUSH4 0xC4228D81 PUSH1 0xE0 SHL DUP2 MSTORE PUSH1 0x1 PUSH1 0x1 PUSH1 0xA0 SHL SUB SWAP1 SWAP2 AND SWAP1 PUSH4 0xC4228D81 SWAP1 PUSH2 0x86D SWAP1 DUP8 SWAP1 PUSH1 0x4 ADD PUSH2 0x3669 JUMP JUMPDEST PUSH1 0x0 PUSH1 0x40 MLOAD DUP1 DUP4 SUB DUP2 DUP7 DUP1 EXTCODESIZE ISZERO DUP1 ISZERO PUSH2 0x885 JUMPI PUSH1 0x0 DUP1 REVERT JUMPDEST POP GAS STATICCALL ISZERO DUP1 ISZERO PUSH2 0x899 JUMPI RETURNDATASIZE PUSH1 0x0 DUP1 RETURNDATACOPY RETURNDATASIZE PUSH1 0x0 REVERT JUMPDEST POP POP POP POP PUSH1 0x40 MLOAD RETURNDATASIZE PUSH1 0x0 DUP3 RETURNDATACOPY PUSH1 0x1F RETURNDATASIZE SWAP1 DUP2 ADD PUSH1 0x1F NOT AND DUP3 ADD PUSH1 0x40 MSTORE PUSH2 0x8C1 SWAP2 SWAP1 DUP2 ADD SWAP1 PUSH2 0x3419 JUMP JUMPDEST PUSH1 0x40 ADD MLOAD PUSH2 0x8CE JUMPI PUSH1 0x0 DUP1 REVERT JUMPDEST PUSH1 0x3 SLOAD PUSH1 0x40 MLOAD PUSH4 0xC4228D81 PUSH1 0xE0 SHL DUP2 MSTORE PUSH1 0x0 SWAP2 PUSH1 0x1 PUSH1 0x1 PUSH1 0xA0 SHL SUB AND SWAP1 PUSH4 0xC4228D81 SWAP1 PUSH2 0x8FF SWAP1 DUP9 SWAP1 PUSH1 0x4 ADD PUSH2 0x3669 JUMP JUMPDEST PUSH1 0x0 PUSH1 0x40 MLOAD DUP1 DUP4 SUB DUP2 DUP7 DUP1 EXTCODESIZE ISZERO DUP1 ISZERO PUSH2 0x917 JUMPI PUSH1 0x0 DUP1 REVERT JUMPDEST POP GAS STATICCALL ISZERO DUP1 ISZERO PUSH2 0x92B JUMPI RETURNDATASIZE PUSH1 0x0 DUP1 RETURNDATACOPY RETURNDATASIZE PUSH1 0x0 REVERT JUMPDEST POP POP POP POP PUSH1 0x40 MLOAD RETURNDATASIZE PUSH1 0x0 DUP3 RETURNDATACOPY PUSH1 0x1F RETURNDATASIZE SWAP1 DUP2 ADD PUSH1 0x1F NOT AND DUP3 ADD PUSH1 0x40 MSTORE PUSH2 0x953 SWAP2 SWAP1 DUP2 ADD SWAP1 PUSH2 0x3419 JUMP JUMPDEST MLOAD MLOAD PUSH1 0x3 SLOAD PUSH1 0x40 MLOAD PUSH4 0x15099A81 PUSH1 0xE1 SHL DUP2 MSTORE SWAP2 SWAP3 POP PUSH1 0x1 PUSH1 0x1 PUSH1 0xA0 SHL SUB AND SWAP1 PUSH4 0x2A133502 SWAP1 PUSH2 0x986 SWAP1 DUP5 SWAP1 PUSH1 0x4 ADD PUSH2 0x3669 JUMP JUMPDEST PUSH1 0x0 PUSH1 0x40 MLOAD DUP1 DUP4 SUB DUP2 DUP7 DUP1 EXTCODESIZE ISZERO DUP1 ISZERO PUSH2 0x99E JUMPI PUSH1 0x0 DUP1 REVERT JUMPDEST POP GAS STATICCALL ISZERO DUP1 ISZERO PUSH2 0x9B2 JUMPI RETURNDATASIZE PUSH1 0x0 DUP1 RETURNDATACOPY RETURNDATASIZE PUSH1 0x0 REVERT JUMPDEST POP POP POP POP PUSH1 0x40 MLOAD RETURNDATASIZE PUSH1 0x0 DUP3 RETURNDATACOPY PUSH1 0x1F RETURNDATASIZE SWAP1 DUP2 ADD PUSH1 0x1F NOT AND DUP3 ADD PUSH1 0x40 MSTORE PUSH2 0x9DA SWAP2 SWAP1 DUP2 ADD SWAP1 PUSH2 0x3555 JUMP JUMPDEST PUSH1 0x80 ADD MLOAD PUSH2 0x9E7 JUMPI PUSH1 0x0 DUP1 REVERT JUMPDEST PUSH1 0x1 PUSH1 0x1 PUSH1 0xA0 SHL SUB DUP3 AND PUSH1 0x0 SWAP1 DUP2 MSTORE PUSH1 0x6 PUSH1 0x20 MSTORE PUSH1 0x40 SWAP1 KECCAK256 SLOAD PUSH1 0xFF AND PUSH2 0xA6B JUMPI PUSH1 0x7 DUP1 SLOAD PUSH1 0x1 DUP1 DUP3 ADD SWAP1 SWAP3 SSTORE PUSH32 0xA66CC928B5EDB82AF9BD49922954155AB7B0942694BEA4CE44661D9A8736C688 ADD DUP1 SLOAD PUSH1 0x1 PUSH1 0x1 PUSH1 0xA0 SHL SUB NOT AND PUSH1 0x1 PUSH1 0x1 PUSH1 0xA0 SHL SUB DUP6 AND SWAP1 DUP2 OR SWAP1 SWAP2 SSTORE PUSH1 0x0 SWAP1 DUP2 MSTORE PUSH1 0x6 PUSH1 0x20 MSTORE PUSH1 0x40 SWAP1 KECCAK256 DUP1 SLOAD PUSH1 0xFF NOT AND SWAP1 SWAP2 OR SWAP1 SSTORE JUMPDEST DUP4 PUSH1 0x0 PUSH2 0xA78 DUP8 DUP4 PUSH2 0x1246 JUMP JUMPDEST SWAP1 POP PUSH1 0x0 PUSH2 0xA86 DUP9 DUP5 PUSH2 0x1246 JUMP JUMPDEST PUSH1 0x1 PUSH1 0x1 PUSH1 0xA0 SHL SUB DUP10 AND PUSH1 0x0 SWAP1 DUP2 MSTORE PUSH1 0x4 PUSH1 0x20 MSTORE PUSH1 0x40 DUP2 KECCAK256 SLOAD SWAP2 SWAP3 POP SWAP1 ISZERO PUSH2 0xAC6 JUMPI PUSH1 0x1 PUSH1 0x1 PUSH1 0xA0 SHL SUB DUP10 AND PUSH1 0x0 SWAP1 DUP2 MSTORE PUSH1 0x4 PUSH1 0x20 MSTORE PUSH1 0x40 SWAP1 KECCAK256 SLOAD PUSH2 0xAC8 JUMP JUMPDEST TIMESTAMP JUMPDEST SWAP1 POP PUSH2 0xAD2 PUSH2 0x313F JUMP JUMPDEST PUSH1 0x40 MLOAD DUP1 PUSH2 0x1E0 ADD PUSH1 0x40 MSTORE DUP1 DUP4 DUP2 MSTORE PUSH1 0x20 ADD PUSH1 0x4 PUSH1 0x0 DUP14 PUSH1 0x1 PUSH1 0x1 PUSH1 0xA0 SHL SUB AND PUSH1 0x1 PUSH1 0x1 PUSH1 0xA0 SHL SUB AND DUP2 MSTORE PUSH1 0x20 ADD SWAP1 DUP2 MSTORE PUSH1 0x20 ADD PUSH1 0x0 KECCAK256 PUSH1 0x1 ADD SLOAD DUP2 MSTORE PUSH1 0x20 ADD DUP9 PUSH1 0x1 PUSH1 0x1 PUSH1 0xA0 SHL SUB AND DUP2 MSTORE PUSH1 0x20 ADD PUSH1 0x3 PUSH1 0x0 SWAP1 SLOAD SWAP1 PUSH2 0x100 EXP SWAP1 DIV PUSH1 0x1 PUSH1 0x1 PUSH1 0xA0 SHL SUB AND PUSH1 0x1 PUSH1 0x1 PUSH1 0xA0 SHL SUB AND PUSH4 0xC4228D81 DUP14 PUSH1 0x40 MLOAD DUP3 PUSH4 0xFFFFFFFF AND PUSH1 0xE0 SHL DUP2 MSTORE PUSH1 0x4 ADD PUSH2 0xB62 SWAP2 SWAP1 PUSH2 0x3669 JUMP JUMPDEST PUSH1 0x0 PUSH1 0x40 MLOAD DUP1 DUP4 SUB DUP2 DUP7 DUP1 EXTCODESIZE ISZERO DUP1 ISZERO PUSH2 0xB7A JUMPI PUSH1 0x0 DUP1 REVERT JUMPDEST POP GAS STATICCALL ISZERO DUP1 ISZERO PUSH2 0xB8E JUMPI RETURNDATASIZE PUSH1 0x0 DUP1 RETURNDATACOPY RETURNDATASIZE PUSH1 0x0 REVERT JUMPDEST POP POP POP POP PUSH1 0x40 MLOAD RETURNDATASIZE PUSH1 0x0 DUP3 RETURNDATACOPY PUSH1 0x1F RETURNDATASIZE SWAP1 DUP2 ADD PUSH1 0x1F NOT AND DUP3 ADD PUSH1 0x40 MSTORE PUSH2 0xBB6 SWAP2 SWAP1 DUP2 ADD SWAP1 PUSH2 0x3419 JUMP JUMPDEST MLOAD PUSH2 0x140 ADD MLOAD ISZERO ISZERO DUP2 MSTORE PUSH1 0x1 PUSH1 0x1 PUSH1 0xA0 SHL SUB DUP13 AND PUSH1 0x0 SWAP1 DUP2 MSTORE PUSH1 0x4 PUSH1 0x20 SWAP1 DUP2 MSTORE PUSH1 0x40 SWAP1 SWAP2 KECCAK256 PUSH1 0x3 ADD SLOAD SWAP2 ADD SWAP1 PUSH2 0xBED SWAP1 DUP9 SWAP1 PUSH2 0x2C6A JUMP JUMPDEST DUP2 MSTORE PUSH1 0x1 PUSH1 0x1 PUSH1 0xA0 SHL SUB DUP13 AND PUSH1 0x0 SWAP1 DUP2 MSTORE PUSH1 0x4 PUSH1 0x20 DUP2 DUP2 MSTORE PUSH1 0x40 SWAP1 SWAP3 KECCAK256 ADD SLOAD SWAP2 ADD SWAP1 PUSH2 0xC1A SWAP1 DUP9 SWAP1 PUSH2 0x2C6A JUMP JUMPDEST DUP2 MSTORE PUSH1 0x3 SLOAD PUSH1 0x40 MLOAD PUSH4 0x1FD57F9B PUSH1 0xE0 SHL DUP2 MSTORE PUSH1 0x20 SWAP1 SWAP3 ADD SWAP2 PUSH1 0x1 PUSH1 0x1 PUSH1 0xA0 SHL SUB SWAP1 SWAP2 AND SWAP1 PUSH4 0x1FD57F9B SWAP1 PUSH2 0xC52 SWAP1 DUP16 SWAP1 PUSH1 0x4 ADD PUSH2 0x3669 JUMP JUMPDEST PUSH1 0x80 PUSH1 0x40 MLOAD DUP1 DUP4 SUB DUP2 DUP7 DUP1 EXTCODESIZE ISZERO DUP1 ISZERO PUSH2 0xC6A JUMPI PUSH1 0x0 DUP1 REVERT JUMPDEST POP GAS STATICCALL ISZERO DUP1 ISZERO PUSH2 0xC7E JUMPI RETURNDATASIZE PUSH1 0x0 DUP1 RETURNDATACOPY RETURNDATASIZE PUSH1 0x0 REVERT JUMPDEST POP POP POP POP PUSH1 0x40 MLOAD RETURNDATASIZE PUSH1 0x1F NOT PUSH1 0x1F DUP3 ADD AND DUP3 ADD DUP1 PUSH1 0x40 MSTORE POP DUP2 ADD SWAP1 PUSH2 0xCA2 SWAP2 SWAP1 PUSH2 0x34E0 JUMP JUMPDEST PUSH1 0x40 SWAP1 DUP2 ADD MLOAD PUSH1 0x1 PUSH1 0x1 PUSH1 0xA0 SHL SUB SWAP1 DUP2 AND DUP4 MSTORE PUSH1 0x3 SLOAD SWAP2 MLOAD PUSH4 0x1FD57F9B PUSH1 0xE0 SHL DUP2 MSTORE PUSH1 0x20 SWAP1 SWAP4 ADD SWAP3 SWAP2 AND SWAP1 PUSH4 0x1FD57F9B SWAP1 PUSH2 0xCE1 SWAP1 DUP16 SWAP1 PUSH1 0x4 ADD PUSH2 0x3669 JUMP JUMPDEST PUSH1 0x80 PUSH1 0x40 MLOAD DUP1 DUP4 SUB DUP2 DUP7 DUP1 EXTCODESIZE ISZERO DUP1 ISZERO PUSH2 0xCF9 JUMPI PUSH1 0x0 DUP1 REVERT JUMPDEST POP GAS STATICCALL ISZERO DUP1 ISZERO PUSH2 0xD0D JUMPI RETURNDATASIZE PUSH1 0x0 DUP1 RETURNDATACOPY RETURNDATASIZE PUSH1 0x0 REVERT JUMPDEST POP POP POP POP PUSH1 0x40 MLOAD RETURNDATASIZE PUSH1 0x1F NOT PUSH1 0x1F DUP3 ADD AND DUP3 ADD DUP1 PUSH1 0x40 MSTORE POP DUP2 ADD SWAP1 PUSH2 0xD31 SWAP2 SWAP1 PUSH2 0x34E0 JUMP JUMPDEST PUSH1 0x60 ADD MLOAD PUSH1 0x1 PUSH1 0x1 PUSH1 0xA0 SHL SUB SWAP1 DUP2 AND DUP3 MSTORE DUP13 AND PUSH1 0x0 SWAP1 DUP2 MSTORE PUSH1 0x4 PUSH1 0x20 SWAP1 DUP2 MSTORE PUSH1 0x40 SWAP1 SWAP2 KECCAK256 PUSH1 0x7 ADD SLOAD SWAP2 ADD SWAP1 PUSH2 0xD67 SWAP1 DUP8 SWAP1 PUSH2 0x2C6A JUMP JUMPDEST DUP2 MSTORE PUSH1 0x1 PUSH1 0x1 PUSH1 0xA0 SHL SUB DUP13 AND PUSH1 0x0 SWAP1 DUP2 MSTORE PUSH1 0x4 PUSH1 0x20 SWAP1 DUP2 MSTORE PUSH1 0x40 SWAP1 SWAP2 KECCAK256 PUSH1 0x8 ADD SLOAD SWAP2 ADD SWAP1 PUSH2 0xD96 SWAP1 DUP8 SWAP1 PUSH2 0x2C6A JUMP JUMPDEST DUP2 MSTORE PUSH1 0x1 PUSH1 0x1 PUSH1 0xA0 SHL SUB DUP13 AND PUSH1 0x0 SWAP1 DUP2 MSTORE PUSH1 0x4 PUSH1 0x20 SWAP1 DUP2 MSTORE PUSH1 0x40 SWAP1 SWAP2 KECCAK256 PUSH1 0x9 ADD SLOAD SWAP2 ADD SWAP1 PUSH2 0xDC5 SWAP1 DUP7 SWAP1 PUSH2 0x2C6A JUMP JUMPDEST DUP2 MSTORE PUSH1 0x1 PUSH1 0x1 PUSH1 0xA0 SHL SUB DUP13 AND PUSH1 0x0 SWAP1 DUP2 MSTORE PUSH1 0x4 PUSH1 0x20 SWAP1 DUP2 MSTORE PUSH1 0x40 SWAP1 SWAP2 KECCAK256 PUSH1 0xA ADD SLOAD SWAP2 ADD SWAP1 PUSH2 0xDF4 SWAP1 DUP7 SWAP1 PUSH2 0x2C6A JUMP JUMPDEST DUP2 MSTORE PUSH1 0x3 SLOAD PUSH1 0x40 MLOAD PUSH4 0xC4228D81 PUSH1 0xE0 SHL DUP2 MSTORE PUSH1 0x20 SWAP1 SWAP3 ADD SWAP2 PUSH1 0x1 PUSH1 0x1 PUSH1 0xA0 SHL SUB SWAP1 SWAP2 AND SWAP1 PUSH4 0xC4228D81 SWAP1 PUSH2 0xE2C SWAP1 DUP16 SWAP1 PUSH1 0x4 ADD PUSH2 0x3669 JUMP JUMPDEST PUSH1 0x0 PUSH1 0x40 MLOAD DUP1 DUP4 SUB DUP2 DUP7 DUP1 EXTCODESIZE ISZERO DUP1 ISZERO PUSH2 0xE44 JUMPI PUSH1 0x0 DUP1 REVERT JUMPDEST POP GAS STATICCALL ISZERO DUP1 ISZERO PUSH2 0xE58 JUMPI RETURNDATASIZE PUSH1 0x0 DUP1 RETURNDATACOPY RETURNDATASIZE PUSH1 0x0 REVERT JUMPDEST POP POP POP POP PUSH1 0x40 MLOAD RETURNDATASIZE PUSH1 0x0 DUP3 RETURNDATACOPY PUSH1 0x1F RETURNDATASIZE SWAP1 DUP2 ADD PUSH1 0x1F NOT AND DUP3 ADD PUSH1 0x40 MSTORE PUSH2 0xE80 SWAP2 SWAP1 DUP2 ADD SWAP1 PUSH2 0x3419 JUMP JUMPDEST MLOAD PUSH1 0x40 SWAP1 DUP2 ADD MLOAD PUSH1 0x1 PUSH1 0x1 PUSH1 0xA0 SHL SUB SWAP1 DUP2 AND DUP4 MSTORE DUP14 DUP2 AND PUSH1 0x0 DUP2 DUP2 MSTORE PUSH1 0x4 PUSH1 0x20 DUP2 DUP2 MSTORE DUP6 DUP4 KECCAK256 PUSH1 0xC DUP2 ADD DUP1 SLOAD DUP4 DUP11 ADD MSTORE PUSH1 0xD DUP3 ADD DUP1 SLOAD SWAP10 DUP10 ADD SWAP10 SWAP1 SWAP10 MSTORE SWAP5 SWAP1 SWAP4 MSTORE DUP2 DUP2 MSTORE DUP8 MLOAD DUP4 SSTORE DUP8 ADD MLOAD PUSH1 0x1 DUP4 ADD SSTORE SWAP4 DUP7 ADD MLOAD PUSH1 0x2 DUP3 ADD DUP1 SLOAD PUSH1 0x60 DUP10 ADD MLOAD ISZERO ISZERO PUSH1 0x1 PUSH1 0xA0 SHL MUL PUSH1 0xFF PUSH1 0xA0 SHL NOT SWAP4 DUP8 AND PUSH1 0x1 PUSH1 0x1 PUSH1 0xA0 SHL SUB NOT SWAP3 DUP4 AND OR SWAP4 SWAP1 SWAP4 AND SWAP3 SWAP1 SWAP3 OR SWAP1 SSTORE PUSH1 0x80 DUP8 ADD MLOAD PUSH1 0x3 DUP4 ADD SSTORE PUSH1 0xA0 DUP8 ADD MLOAD SWAP5 DUP3 ADD SWAP5 SWAP1 SWAP5 SSTORE PUSH1 0xC0 DUP7 ADD MLOAD PUSH1 0x5 DUP3 ADD DUP1 SLOAD SWAP2 DUP6 AND SWAP2 DUP7 AND SWAP2 SWAP1 SWAP2 OR SWAP1 SSTORE PUSH1 0xE0 DUP7 ADD MLOAD PUSH1 0x6 DUP3 ADD DUP1 SLOAD SWAP2 DUP6 AND SWAP2 DUP7 AND SWAP2 SWAP1 SWAP2 OR SWAP1 SSTORE PUSH2 0x100 DUP7 ADD MLOAD PUSH1 0x7 DUP3 ADD SSTORE PUSH2 0x120 DUP7 ADD MLOAD PUSH1 0x8 DUP3 ADD SSTORE PUSH2 0x140 DUP7 ADD MLOAD PUSH1 0x9 DUP3 ADD SSTORE PUSH2 0x160 DUP7 ADD MLOAD PUSH1 0xA DUP3 ADD SSTORE PUSH2 0x180 DUP7 ADD MLOAD PUSH1 0xB SWAP1 SWAP2 ADD DUP1 SLOAD SWAP2 DUP5 AND SWAP2 SWAP1 SWAP5 AND OR SWAP1 SWAP3 SSTORE PUSH2 0x1A0 DUP5 ADD MLOAD SWAP1 SWAP2 SSTORE PUSH2 0x1C0 DUP4 ADD MLOAD SWAP1 SWAP2 SSTORE SWAP1 SWAP2 POP PUSH2 0xFB2 SWAP1 DUP9 AND CALLER ADDRESS DUP13 PUSH2 0x2CCB JUMP JUMPDEST PUSH1 0x3 SLOAD PUSH1 0x40 MLOAD PUSH4 0x1FD57F9B PUSH1 0xE0 SHL DUP2 MSTORE PUSH1 0x1 PUSH1 0x1 PUSH1 0xA0 SHL SUB SWAP1 SWAP2 AND SWAP1 PUSH4 0x28947A34 SWAP1 DUP3 SWAP1 PUSH4 0x1FD57F9B SWAP1 PUSH2 0xFEA SWAP1 DUP16 SWAP1 PUSH1 0x4 ADD PUSH2 0x3669 JUMP JUMPDEST PUSH1 0x80 PUSH1 0x40 MLOAD DUP1 DUP4 SUB DUP2 DUP7 DUP1 EXTCODESIZE ISZERO DUP1 ISZERO PUSH2 0x1002 JUMPI PUSH1 0x0 DUP1 REVERT JUMPDEST POP GAS STATICCALL ISZERO DUP1 ISZERO PUSH2 0x1016 JUMPI RETURNDATASIZE PUSH1 0x0 DUP1 RETURNDATACOPY RETURNDATASIZE PUSH1 0x0 REVERT JUMPDEST POP POP POP POP PUSH1 0x40 MLOAD RETURNDATASIZE PUSH1 0x1F NOT PUSH1 0x1F DUP3 ADD AND DUP3 ADD DUP1 PUSH1 0x40 MSTORE POP DUP2 ADD SWAP1 PUSH2 0x103A SWAP2 SWAP1 PUSH2 0x34E0 JUMP JUMPDEST PUSH1 0x40 ADD MLOAD CALLER DUP8 PUSH1 0x40 MLOAD DUP5 PUSH4 0xFFFFFFFF AND PUSH1 0xE0 SHL DUP2 MSTORE PUSH1 0x4 ADD PUSH2 0x105E SWAP4 SWAP3 SWAP2 SWAP1 PUSH2 0x36E2 JUMP JUMPDEST PUSH1 0x20 PUSH1 0x40 MLOAD DUP1 DUP4 SUB DUP2 PUSH1 0x0 DUP8 DUP1 EXTCODESIZE ISZERO DUP1 ISZERO PUSH2 0x1078 JUMPI PUSH1 0x0 DUP1 REVERT JUMPDEST POP GAS CALL ISZERO DUP1 ISZERO PUSH2 0x108C JUMPI RETURNDATASIZE PUSH1 0x0 DUP1 RETURNDATACOPY RETURNDATASIZE PUSH1 0x0 REVERT JUMPDEST POP POP POP POP PUSH1 0x40 MLOAD RETURNDATASIZE PUSH1 0x1F NOT PUSH1 0x1F DUP3 ADD AND DUP3 ADD DUP1 PUSH1 0x40 MSTORE POP DUP2 ADD SWAP1 PUSH2 0x10B0 SWAP2 SWAP1 PUSH2 0x33FF JUMP JUMPDEST POP PUSH1 0x3 SLOAD PUSH1 0x40 MLOAD PUSH4 0x1FD57F9B PUSH1 0xE0 SHL DUP2 MSTORE PUSH1 0x1 PUSH1 0x1 PUSH1 0xA0 SHL SUB SWAP1 SWAP2 AND SWAP1 PUSH4 0x28947A34 SWAP1 DUP3 SWAP1 PUSH4 0x1FD57F9B SWAP1 PUSH2 0x10E9 SWAP1 DUP16 SWAP1 PUSH1 0x4 ADD PUSH2 0x3669 JUMP JUMPDEST PUSH1 0x80 PUSH1 0x40 MLOAD DUP1 DUP4 SUB DUP2 DUP7 DUP1 EXTCODESIZE ISZERO DUP1 ISZERO PUSH2 0x1101 JUMPI PUSH1 0x0 DUP1 REVERT JUMPDEST POP GAS STATICCALL ISZERO DUP1 ISZERO PUSH2 0x1115 JUMPI RETURNDATASIZE PUSH1 0x0 DUP1 RETURNDATACOPY RETURNDATASIZE PUSH1 0x0 REVERT JUMPDEST POP POP POP POP PUSH1 0x40 MLOAD RETURNDATASIZE PUSH1 0x1F NOT PUSH1 0x1F DUP3 ADD AND DUP3 ADD DUP1 PUSH1 0x40 MSTORE POP DUP2 ADD SWAP1 PUSH2 0x1139 SWAP2 SWAP1 PUSH2 0x34E0 JUMP JUMPDEST PUSH1 0x60 ADD MLOAD CALLER DUP7 PUSH1 0x40 MLOAD DUP5 PUSH4 0xFFFFFFFF AND PUSH1 0xE0 SHL DUP2 MSTORE PUSH1 0x4 ADD PUSH2 0x115D SWAP4 SWAP3 SWAP2 SWAP1 PUSH2 0x36E2 JUMP JUMPDEST PUSH1 0x20 PUSH1 0x40 MLOAD DUP1 DUP4 SUB DUP2 PUSH1 0x0 DUP8 DUP1 EXTCODESIZE ISZERO DUP1 ISZERO PUSH2 0x1177 JUMPI PUSH1 0x0 DUP1 REVERT JUMPDEST POP GAS CALL ISZERO DUP1 ISZERO PUSH2 0x118B JUMPI RETURNDATASIZE PUSH1 0x0 DUP1 RETURNDATACOPY RETURNDATASIZE PUSH1 0x0 REVERT JUMPDEST POP POP POP POP PUSH1 0x40 MLOAD RETURNDATASIZE PUSH1 0x1F NOT PUSH1 0x1F DUP3 ADD AND DUP3 ADD DUP1 PUSH1 0x40 MSTORE POP DUP2 ADD SWAP1 PUSH2 0x11AF SWAP2 SWAP1 PUSH2 0x33FF JUMP JUMPDEST POP PUSH1 0x1 PUSH1 0x1 PUSH1 0xA0 SHL SUB DUP8 AND PUSH1 0x0 SWAP1 DUP2 MSTORE PUSH1 0x5 PUSH1 0x20 MSTORE PUSH1 0x40 SWAP1 KECCAK256 SLOAD PUSH2 0x11D4 SWAP1 DUP11 SWAP1 PUSH2 0x2C6A JUMP JUMPDEST PUSH1 0x1 PUSH1 0x1 PUSH1 0xA0 SHL SUB DUP9 AND PUSH1 0x0 SWAP1 DUP2 MSTORE PUSH1 0x5 PUSH1 0x20 MSTORE PUSH1 0x40 SWAP1 DUP2 SWAP1 KECCAK256 SWAP2 SWAP1 SWAP2 SSTORE MLOAD PUSH32 0xED4EA2CA077B2EC157F3FF3392B9B6C339174B7F0149F35AB2F8CA58BD1F7776 SWAP1 PUSH2 0x1226 SWAP1 CALLER SWAP1 DUP14 SWAP1 DUP12 SWAP1 DUP15 SWAP1 PUSH2 0x367D JUMP JUMPDEST PUSH1 0x40 MLOAD DUP1 SWAP2 SUB SWAP1 LOG1 PUSH1 0x1 SWAP8 POP POP POP POP POP POP POP POP JUMPDEST SWAP3 SWAP2 POP POP JUMP JUMPDEST PUSH1 0x2 SLOAD DUP2 JUMP JUMPDEST PUSH1 0x3 SLOAD PUSH1 0x40 MLOAD PUSH4 0xC4228D81 PUSH1 0xE0 SHL DUP2 MSTORE PUSH1 0x0 SWAP2 DUP3 SWAP2 PUSH1 0x1 PUSH1 0x1 PUSH1 0xA0 SHL SUB SWAP1 SWAP2 AND SWAP1 PUSH4 0xC4228D81 SWAP1 PUSH2 0x127B SWAP1 DUP8 SWAP1 PUSH1 0x4 ADD PUSH2 0x3669 JUMP JUMPDEST PUSH1 0x0 PUSH1 0x40 MLOAD DUP1 DUP4 SUB DUP2 DUP7 DUP1 EXTCODESIZE ISZERO DUP1 ISZERO PUSH2 0x1293 JUMPI PUSH1 0x0 DUP1 REVERT JUMPDEST POP GAS STATICCALL ISZERO DUP1 ISZERO PUSH2 0x12A7 JUMPI RETURNDATASIZE PUSH1 0x0 DUP1 RETURNDATACOPY RETURNDATASIZE PUSH1 0x0 REVERT JUMPDEST POP POP POP POP PUSH1 0x40 MLOAD RETURNDATASIZE PUSH1 0x0 DUP3 RETURNDATACOPY PUSH1 0x1F RETURNDATASIZE SWAP1 DUP2 ADD PUSH1 0x1F NOT AND DUP3 ADD PUSH1 0x40 MSTORE PUSH2 0x12CF SWAP2 SWAP1 DUP2 ADD SWAP1 PUSH2 0x3419 JUMP JUMPDEST MLOAD PUSH2 0x120 ADD MLOAD SWAP1 POP PUSH1 0x12 PUSH1 0x0 PUSH2 0x12FB PUSH1 0xA DUP5 SWAP1 EXP PUSH2 0x12F5 DUP8 PUSH8 0xDE0B6B3A7640000 PUSH2 0x2D2B JUMP JUMPDEST SWAP1 PUSH2 0x2D84 JUMP JUMPDEST SWAP7 SWAP6 POP POP POP POP POP POP JUMP JUMPDEST PUSH1 0x7 SLOAD PUSH1 0x0 SWAP1 DUP3 LT PUSH2 0x1316 JUMPI PUSH1 0x0 DUP1 REVERT JUMPDEST PUSH1 0x7 DUP3 DUP2 SLOAD DUP2 LT PUSH2 0x1323 JUMPI INVALID JUMPDEST PUSH1 0x0 SWAP2 DUP3 MSTORE PUSH1 0x20 SWAP1 SWAP2 KECCAK256 ADD SLOAD PUSH1 0x1 PUSH1 0x1 PUSH1 0xA0 SHL SUB AND SWAP3 SWAP2 POP POP JUMP JUMPDEST PUSH1 0x3 SLOAD PUSH1 0x40 MLOAD PUSH4 0xC4228D81 PUSH1 0xE0 SHL DUP2 MSTORE PUSH1 0x0 SWAP2 DUP3 SWAP2 PUSH1 0x1 PUSH1 0x1 PUSH1 0xA0 SHL SUB SWAP1 SWAP2 AND SWAP1 PUSH4 0xC4228D81 SWAP1 PUSH2 0x1373 SWAP1 DUP8 SWAP1 PUSH1 0x4 ADD PUSH2 0x3669 JUMP JUMPDEST PUSH1 0x0 PUSH1 0x40 MLOAD DUP1 DUP4 SUB DUP2 DUP7 DUP1 EXTCODESIZE ISZERO DUP1 ISZERO PUSH2 0x138B JUMPI PUSH1 0x0 DUP1 REVERT JUMPDEST POP GAS STATICCALL ISZERO DUP1 ISZERO PUSH2 0x139F JUMPI RETURNDATASIZE PUSH1 0x0 DUP1 RETURNDATACOPY RETURNDATASIZE PUSH1 0x0 REVERT JUMPDEST POP POP POP POP PUSH1 0x40 MLOAD RETURNDATASIZE PUSH1 0x0 DUP3 RETURNDATACOPY PUSH1 0x1F RETURNDATASIZE SWAP1 DUP2 ADD PUSH1 0x1F NOT AND DUP3 ADD PUSH1 0x40 MSTORE PUSH2 0x13C7 SWAP2 SWAP1 DUP2 ADD SWAP1 PUSH2 0x3419 JUMP JUMPDEST MLOAD PUSH2 0x120 ADD MLOAD SWAP1 POP PUSH1 0x12 PUSH1 0x0 PUSH2 0x12FB PUSH8 0xDE0B6B3A7640000 PUSH2 0x12F5 DUP8 PUSH1 0xA DUP8 SWAP1 EXP PUSH2 0x2D2B JUMP JUMPDEST PUSH1 0x0 SLOAD PUSH1 0x1 PUSH1 0x1 PUSH1 0xA0 SHL SUB AND ISZERO PUSH2 0x1403 JUMPI PUSH1 0x0 DUP1 REVERT JUMPDEST PUSH1 0x0 DUP1 SLOAD PUSH1 0x1 PUSH1 0x1 PUSH1 0xA0 SHL SUB NOT AND CALLER OR DUP1 DUP3 SSTORE PUSH1 0x40 MLOAD PUSH1 0x1 PUSH1 0x1 PUSH1 0xA0 SHL SUB SWAP2 SWAP1 SWAP2 AND SWAP2 SWAP1 PUSH32 0xE9A5158AC7353C7C7322ECECC080BC8E89334EFA5795B6E21E40EB266B0003D6 SWAP1 DUP3 SWAP1 LOG3 JUMP JUMPDEST PUSH1 0x1 PUSH1 0x1 PUSH1 0xA0 SHL SUB DUP3 AND PUSH1 0x0 SWAP1 DUP2 MSTORE PUSH1 0x4 PUSH1 0x20 MSTORE PUSH1 0x40 DUP2 KECCAK256 PUSH1 0xA ADD SLOAD DUP2 SWAP1 PUSH2 0x1482 SWAP1 PUSH2 0x12F5 DUP6 PUSH8 0xDE0B6B3A7640000 PUSH2 0x2D2B JUMP JUMPDEST PUSH1 0x1 PUSH1 0x1 PUSH1 0xA0 SHL SUB DUP6 AND PUSH1 0x0 SWAP1 DUP2 MSTORE PUSH1 0x4 PUSH1 0x20 MSTORE PUSH1 0x40 DUP2 KECCAK256 PUSH1 0xD ADD SLOAD SWAP2 SWAP3 POP SWAP1 PUSH2 0x14BA SWAP1 PUSH8 0xDE0B6B3A7640000 SWAP1 PUSH2 0x12F5 SWAP1 DUP6 PUSH2 0x2D2B JUMP JUMPDEST SWAP6 SWAP5 POP POP POP POP POP JUMP JUMPDEST PUSH1 0x0 PUSH1 0x1 PUSH1 0x1 PUSH1 0xA0 SHL SUB DUP3 AND PUSH2 0x14D8 JUMPI PUSH1 0x0 DUP1 REVERT JUMPDEST PUSH1 0x1 PUSH1 0x1 PUSH1 0xA0 SHL SUB DUP3 AND PUSH1 0x0 SWAP1 DUP2 MSTORE PUSH1 0x6 PUSH1 0x20 MSTORE PUSH1 0x40 SWAP1 KECCAK256 SLOAD PUSH1 0xFF AND ISZERO ISZERO PUSH1 0x1 EQ PUSH2 0x1502 JUMPI PUSH1 0x0 DUP1 REVERT JUMPDEST POP PUSH1 0x1 PUSH1 0x1 PUSH1 0xA0 SHL SUB AND PUSH1 0x0 SWAP1 DUP2 MSTORE PUSH1 0x8 PUSH1 0x20 MSTORE PUSH1 0x40 SWAP1 KECCAK256 SLOAD SWAP1 JUMP JUMPDEST PUSH1 0x0 PUSH1 0x1 PUSH1 0x1 PUSH1 0xA0 SHL SUB DUP5 AND PUSH2 0x1533 JUMPI PUSH1 0x0 DUP1 REVERT JUMPDEST PUSH1 0x0 DUP4 GT PUSH2 0x1540 JUMPI PUSH1 0x0 DUP1 REVERT JUMPDEST PUSH1 0x1 PUSH1 0x1 PUSH1 0xA0 SHL SUB DUP1 DUP6 AND PUSH1 0x0 SWAP1 DUP2 MSTORE PUSH1 0x4 PUSH1 0x20 DUP2 SWAP1 MSTORE PUSH1 0x40 SWAP2 DUP3 SWAP1 KECCAK256 PUSH1 0x5 ADD SLOAD SWAP2 MLOAD PUSH4 0x70A08231 PUSH1 0xE0 SHL DUP2 MSTORE SWAP2 SWAP1 SWAP3 AND SWAP2 DUP6 SWAP2 DUP4 SWAP2 PUSH4 0x70A08231 SWAP2 PUSH2 0x1588 SWAP2 CALLER SWAP2 ADD PUSH2 0x3669 JUMP JUMPDEST PUSH1 0x20 PUSH1 0x40 MLOAD DUP1 DUP4 SUB DUP2 DUP7 DUP1 EXTCODESIZE ISZERO DUP1 ISZERO PUSH2 0x15A0 JUMPI PUSH1 0x0 DUP1 REVERT JUMPDEST POP GAS STATICCALL ISZERO DUP1 ISZERO PUSH2 0x15B4 JUMPI RETURNDATASIZE PUSH1 0x0 DUP1 RETURNDATACOPY RETURNDATASIZE PUSH1 0x0 REVERT JUMPDEST POP POP POP POP PUSH1 0x40 MLOAD RETURNDATASIZE PUSH1 0x1F NOT PUSH1 0x1F DUP3 ADD AND DUP3 ADD DUP1 PUSH1 0x40 MSTORE POP DUP2 ADD SWAP1 PUSH2 0x15D8 SWAP2 SWAP1 PUSH2 0x363E JUMP JUMPDEST LT ISZERO PUSH2 0x15E3 JUMPI PUSH1 0x0 DUP1 REVERT JUMPDEST PUSH1 0x0 PUSH2 0x15EF DUP7 DUP7 PUSH2 0x2923 JUMP JUMPDEST SWAP1 POP DUP4 DUP2 EQ PUSH2 0x15FD JUMPI PUSH1 0x0 DUP1 REVERT JUMPDEST PUSH1 0x1 PUSH1 0x1 PUSH1 0xA0 SHL SUB DUP7 DUP2 AND PUSH1 0x0 SWAP1 DUP2 MSTORE PUSH1 0x4 PUSH1 0x20 MSTORE PUSH1 0x40 SWAP1 KECCAK256 PUSH1 0xB ADD SLOAD AND PUSH2 0x1631 JUMPI DUP4 CALLVALUE LT ISZERO PUSH2 0x162C JUMPI PUSH1 0x0 DUP1 REVERT JUMPDEST PUSH2 0x1764 JUMP JUMPDEST PUSH1 0x3 SLOAD PUSH1 0x40 MLOAD PUSH4 0xC4228D81 PUSH1 0xE0 SHL DUP2 MSTORE DUP6 SWAP2 PUSH1 0x1 PUSH1 0x1 PUSH1 0xA0 SHL SUB AND SWAP1 PUSH4 0xC4228D81 SWAP1 PUSH2 0x1661 SWAP1 DUP11 SWAP1 PUSH1 0x4 ADD PUSH2 0x3669 JUMP JUMPDEST PUSH1 0x0 PUSH1 0x40 MLOAD DUP1 DUP4 SUB DUP2 DUP7 DUP1 EXTCODESIZE ISZERO DUP1 ISZERO PUSH2 0x1679 JUMPI PUSH1 0x0 DUP1 REVERT JUMPDEST POP GAS STATICCALL ISZERO DUP1 ISZERO PUSH2 0x168D JUMPI RETURNDATASIZE PUSH1 0x0 DUP1 RETURNDATACOPY RETURNDATASIZE PUSH1 0x0 REVERT JUMPDEST POP POP POP POP PUSH1 0x40 MLOAD RETURNDATASIZE PUSH1 0x0 DUP3 RETURNDATACOPY PUSH1 0x1F RETURNDATASIZE SWAP1 DUP2 ADD PUSH1 0x1F NOT AND DUP3 ADD PUSH1 0x40 MSTORE PUSH2 0x16B5 SWAP2 SWAP1 DUP2 ADD SWAP1 PUSH2 0x3419 JUMP JUMPDEST PUSH1 0x0 ADD MLOAD PUSH1 0x40 ADD MLOAD PUSH1 0x1 PUSH1 0x1 PUSH1 0xA0 SHL SUB AND PUSH4 0x70A08231 CALLER PUSH1 0x40 MLOAD DUP3 PUSH4 0xFFFFFFFF AND PUSH1 0xE0 SHL DUP2 MSTORE PUSH1 0x4 ADD PUSH2 0x16E8 SWAP2 SWAP1 PUSH2 0x3669 JUMP JUMPDEST PUSH1 0x20 PUSH1 0x40 MLOAD DUP1 DUP4 SUB DUP2 DUP7 DUP1 EXTCODESIZE ISZERO DUP1 ISZERO PUSH2 0x1700 JUMPI PUSH1 0x0 DUP1 REVERT JUMPDEST POP GAS STATICCALL ISZERO DUP1 ISZERO PUSH2 0x1714 JUMPI RETURNDATASIZE PUSH1 0x0 DUP1 RETURNDATACOPY RETURNDATASIZE PUSH1 0x0 REVERT JUMPDEST POP POP POP POP PUSH1 0x40 MLOAD RETURNDATASIZE PUSH1 0x1F NOT PUSH1 0x1F DUP3 ADD AND DUP3 ADD DUP1 PUSH1 0x40 MSTORE POP DUP2 ADD SWAP1 PUSH2 0x1738 SWAP2 SWAP1 PUSH2 0x363E JUMP JUMPDEST POP POP PUSH1 0x1 PUSH1 0x1 PUSH1 0xA0 SHL SUB DUP1 DUP8 AND PUSH1 0x0 SWAP1 DUP2 MSTORE PUSH1 0x4 PUSH1 0x20 MSTORE PUSH1 0x40 SWAP1 KECCAK256 PUSH1 0xB ADD SLOAD PUSH2 0x1764 SWAP2 AND CALLER ADDRESS DUP5 PUSH2 0x2CCB JUMP JUMPDEST PUSH1 0x1 PUSH1 0x1 PUSH1 0xA0 SHL SUB DUP7 AND PUSH1 0x0 SWAP1 DUP2 MSTORE PUSH1 0x4 PUSH1 0x20 MSTORE PUSH1 0x40 SWAP1 KECCAK256 PUSH1 0x8 ADD SLOAD DUP6 GT ISZERO PUSH2 0x178C JUMPI PUSH1 0x0 DUP1 REVERT JUMPDEST PUSH1 0x3 SLOAD PUSH1 0x40 MLOAD PUSH4 0xC4228D81 PUSH1 0xE0 SHL DUP2 MSTORE PUSH1 0x1 PUSH1 0x1 PUSH1 0xA0 SHL SUB SWAP1 SWAP2 AND SWAP1 PUSH4 0xC4228D81 SWAP1 PUSH2 0x17BC SWAP1 DUP10 SWAP1 PUSH1 0x4 ADD PUSH2 0x3669 JUMP JUMPDEST PUSH1 0x0 PUSH1 0x40 MLOAD DUP1 DUP4 SUB DUP2 DUP7 DUP1 EXTCODESIZE ISZERO DUP1 ISZERO PUSH2 0x17D4 JUMPI PUSH1 0x0 DUP1 REVERT JUMPDEST POP GAS STATICCALL ISZERO DUP1 ISZERO PUSH2 0x17E8 JUMPI RETURNDATASIZE PUSH1 0x0 DUP1 RETURNDATACOPY RETURNDATASIZE PUSH1 0x0 REVERT JUMPDEST POP POP POP POP PUSH1 0x40 MLOAD RETURNDATASIZE PUSH1 0x0 DUP3 RETURNDATACOPY PUSH1 0x1F RETURNDATASIZE SWAP1 DUP2 ADD PUSH1 0x1F NOT AND DUP3 ADD PUSH1 0x40 MSTORE PUSH2 0x1810 SWAP2 SWAP1 DUP2 ADD SWAP1 PUSH2 0x3419 JUMP JUMPDEST MLOAD PUSH1 0x80 ADD MLOAD PUSH6 0xFFFFFFFFFFFF AND TIMESTAMP GT ISZERO PUSH2 0x1829 JUMPI PUSH1 0x0 DUP1 REVERT JUMPDEST PUSH1 0x1 PUSH1 0x1 PUSH1 0xA0 SHL SUB DUP7 AND PUSH1 0x0 SWAP1 DUP2 MSTORE PUSH1 0x4 PUSH1 0x20 MSTORE PUSH1 0x40 SWAP1 KECCAK256 PUSH1 0x8 ADD SLOAD PUSH2 0x184F SWAP1 DUP7 PUSH2 0x2DC6 JUMP JUMPDEST PUSH1 0x1 PUSH1 0x1 PUSH1 0xA0 SHL SUB DUP8 AND PUSH1 0x0 SWAP1 DUP2 MSTORE PUSH1 0x4 PUSH1 0x20 MSTORE PUSH1 0x40 SWAP1 KECCAK256 PUSH1 0x8 DUP2 ADD SWAP2 SWAP1 SWAP2 SSTORE PUSH1 0xD ADD SLOAD PUSH2 0x187E SWAP1 DUP3 SWAP1 PUSH2 0x2C6A JUMP JUMPDEST PUSH1 0x1 PUSH1 0x1 PUSH1 0xA0 SHL SUB DUP8 AND PUSH1 0x0 SWAP1 DUP2 MSTORE PUSH1 0x4 PUSH1 0x20 MSTORE PUSH1 0x40 SWAP1 KECCAK256 PUSH1 0xD DUP2 ADD SWAP2 SWAP1 SWAP2 SSTORE PUSH1 0xC ADD SLOAD PUSH2 0x18AD SWAP1 DUP3 SWAP1 PUSH2 0x2C6A JUMP JUMPDEST PUSH1 0x1 PUSH1 0x1 PUSH1 0xA0 SHL SUB DUP8 AND PUSH1 0x0 SWAP1 DUP2 MSTORE PUSH1 0x4 PUSH1 0x20 MSTORE PUSH1 0x40 DUP2 KECCAK256 PUSH1 0xC ADD SWAP2 SWAP1 SWAP2 SSTORE PUSH2 0x18D6 DUP8 DUP8 PUSH2 0x133E JUMP JUMPDEST PUSH1 0x1 PUSH1 0x1 PUSH1 0xA0 SHL SUB DUP9 AND PUSH1 0x0 SWAP1 DUP2 MSTORE PUSH1 0x4 PUSH1 0x20 DUP2 SWAP1 MSTORE PUSH1 0x40 SWAP1 SWAP2 KECCAK256 ADD SLOAD SWAP1 SWAP2 POP PUSH2 0x1900 SWAP1 DUP3 PUSH2 0x2DC6 JUMP JUMPDEST PUSH1 0x1 PUSH1 0x1 PUSH1 0xA0 SHL SUB DUP9 AND PUSH1 0x0 SWAP1 DUP2 MSTORE PUSH1 0x4 PUSH1 0x20 DUP2 SWAP1 MSTORE PUSH1 0x40 DUP3 KECCAK256 ADD SWAP2 SWAP1 SWAP2 SSTORE PUSH1 0x1 SLOAD PUSH2 0x1946 SWAP1 PUSH2 0xFFFF PUSH1 0x1 PUSH1 0xB0 SHL DUP3 DIV DUP2 AND SWAP2 PUSH2 0x12F5 SWAP2 DUP7 SWAP2 PUSH1 0x1 PUSH1 0xA0 SHL SWAP1 DIV AND PUSH2 0x2D2B JUMP JUMPDEST PUSH1 0x1 PUSH1 0x1 PUSH1 0xA0 SHL SUB DUP10 AND PUSH1 0x0 SWAP1 DUP2 MSTORE PUSH1 0x4 PUSH1 0x20 MSTORE PUSH1 0x40 SWAP1 KECCAK256 PUSH1 0x1 ADD SLOAD SWAP1 SWAP2 POP PUSH2 0x1970 SWAP1 DUP3 SWAP1 PUSH2 0x2C6A JUMP JUMPDEST PUSH1 0x1 PUSH1 0x1 PUSH1 0xA0 SHL SUB DUP1 DUP11 AND PUSH1 0x0 SWAP1 DUP2 MSTORE PUSH1 0x4 PUSH1 0x20 SWAP1 DUP2 MSTORE PUSH1 0x40 DUP1 DUP4 KECCAK256 PUSH1 0x1 DUP2 ADD SWAP6 SWAP1 SWAP6 SSTORE PUSH1 0x2 SWAP1 SWAP5 ADD SLOAD SWAP1 SWAP3 AND DUP2 MSTORE PUSH1 0x8 SWAP1 SWAP2 MSTORE KECCAK256 SLOAD PUSH2 0x19B1 SWAP1 DUP3 SWAP1 PUSH2 0x2C6A JUMP JUMPDEST PUSH1 0x1 PUSH1 0x1 PUSH1 0xA0 SHL SUB DUP1 DUP11 AND PUSH1 0x0 SWAP1 DUP2 MSTORE PUSH1 0x4 PUSH1 0x20 SWAP1 DUP2 MSTORE PUSH1 0x40 DUP1 DUP4 KECCAK256 PUSH1 0x2 ADD SLOAD SWAP1 SWAP4 AND DUP3 MSTORE PUSH1 0x8 SWAP1 MSTORE KECCAK256 SSTORE PUSH2 0x1A0F CALLER PUSH2 0x19EA DUP5 DUP5 PUSH2 0x2DC6 JUMP JUMPDEST PUSH1 0x1 PUSH1 0x1 PUSH1 0xA0 SHL SUB DUP1 DUP13 AND PUSH1 0x0 SWAP1 DUP2 MSTORE PUSH1 0x4 PUSH1 0x20 MSTORE PUSH1 0x40 SWAP1 KECCAK256 PUSH1 0x2 ADD SLOAD AND SWAP2 SWAP1 PUSH2 0x2C13 JUMP JUMPDEST PUSH1 0x1 PUSH1 0x1 PUSH1 0xA0 SHL SUB DUP1 DUP10 AND PUSH1 0x0 SWAP1 DUP2 MSTORE PUSH1 0x4 PUSH1 0x20 SWAP1 DUP2 MSTORE PUSH1 0x40 DUP1 DUP4 KECCAK256 PUSH1 0x2 ADD SLOAD SWAP1 SWAP4 AND DUP3 MSTORE PUSH1 0x5 SWAP1 MSTORE KECCAK256 SLOAD PUSH2 0x1A44 SWAP1 DUP4 PUSH2 0x2DC6 JUMP JUMPDEST PUSH1 0x1 PUSH1 0x1 PUSH1 0xA0 SHL SUB DUP1 DUP11 AND PUSH1 0x0 DUP2 DUP2 MSTORE PUSH1 0x4 PUSH1 0x20 DUP2 DUP2 MSTORE PUSH1 0x40 DUP1 DUP5 KECCAK256 PUSH1 0x2 DUP2 ADD SLOAD DUP8 AND DUP6 MSTORE PUSH1 0x5 DUP1 DUP5 MSTORE DUP3 DUP7 KECCAK256 SWAP9 SWAP1 SWAP9 SSTORE PUSH1 0x3 SLOAD SWAP6 SWAP1 SWAP5 MSTORE SWAP1 DUP3 SWAP1 MSTORE SWAP2 SWAP1 SWAP5 ADD SLOAD SWAP1 MLOAD PUSH4 0x782261DF PUSH1 0xE1 SHL DUP2 MSTORE SWAP2 DUP4 AND SWAP4 PUSH4 0xF044C3BE SWAP4 PUSH2 0x1AAC SWAP4 SWAP3 AND SWAP2 CALLER SWAP2 DUP14 SWAP2 ADD PUSH2 0x36E2 JUMP JUMPDEST PUSH1 0x20 PUSH1 0x40 MLOAD DUP1 DUP4 SUB DUP2 PUSH1 0x0 DUP8 DUP1 EXTCODESIZE ISZERO DUP1 ISZERO PUSH2 0x1AC6 JUMPI PUSH1 0x0 DUP1 REVERT JUMPDEST POP GAS CALL ISZERO DUP1 ISZERO PUSH2 0x1ADA JUMPI RETURNDATASIZE PUSH1 0x0 DUP1 RETURNDATACOPY RETURNDATASIZE PUSH1 0x0 REVERT JUMPDEST POP POP POP POP PUSH1 0x40 MLOAD RETURNDATASIZE PUSH1 0x1F NOT PUSH1 0x1F DUP3 ADD AND DUP3 ADD DUP1 PUSH1 0x40 MSTORE POP DUP2 ADD SWAP1 PUSH2 0x1AFE SWAP2 SWAP1 PUSH2 0x33FF JUMP JUMPDEST POP PUSH1 0x1 PUSH1 0x1 PUSH1 0xA0 SHL SUB DUP1 DUP10 AND PUSH1 0x0 SWAP1 DUP2 MSTORE PUSH1 0x4 PUSH1 0x20 MSTORE PUSH1 0x40 SWAP1 DUP2 SWAP1 KECCAK256 PUSH1 0x5 DUP2 ADD SLOAD PUSH1 0xB SWAP1 SWAP2 ADD SLOAD SWAP2 MLOAD PUSH32 0x740936EB219670DA6EA50DAB917C4540D09BAFA95F81A12CCAA01B71A15DC3F SWAP4 PUSH2 0x1B60 SWAP4 CALLER SWAP4 DUP15 SWAP4 SWAP1 DUP4 AND SWAP3 DUP15 SWAP3 AND SWAP1 DUP11 SWAP1 PUSH2 0x36A7 JUMP JUMPDEST PUSH1 0x40 MLOAD DUP1 SWAP2 SUB SWAP1 LOG1 POP PUSH1 0x1 SWAP8 SWAP7 POP POP POP POP POP POP POP JUMP JUMPDEST PUSH2 0x1B7E PUSH2 0x313F JUMP JUMPDEST PUSH1 0x1 PUSH1 0x1 PUSH1 0xA0 SHL SUB DUP3 AND PUSH2 0x1B91 JUMPI PUSH1 0x0 DUP1 REVERT JUMPDEST POP PUSH1 0x1 PUSH1 0x1 PUSH1 0xA0 SHL SUB SWAP1 DUP2 AND PUSH1 0x0 SWAP1 DUP2 MSTORE PUSH1 0x4 PUSH1 0x20 DUP2 DUP2 MSTORE PUSH1 0x40 SWAP3 DUP4 SWAP1 KECCAK256 DUP4 MLOAD PUSH2 0x1E0 DUP2 ADD DUP6 MSTORE DUP2 SLOAD DUP2 MSTORE PUSH1 0x1 DUP3 ADD SLOAD SWAP3 DUP2 ADD SWAP3 SWAP1 SWAP3 MSTORE PUSH1 0x2 DUP2 ADD SLOAD DUP1 DUP7 AND SWAP5 DUP4 ADD SWAP5 SWAP1 SWAP5 MSTORE PUSH1 0x1 PUSH1 0xA0 SHL SWAP1 SWAP4 DIV PUSH1 0xFF AND ISZERO ISZERO PUSH1 0x60 DUP3 ADD MSTORE PUSH1 0x3 DUP4 ADD SLOAD PUSH1 0x80 DUP3 ADD MSTORE SWAP1 DUP3 ADD SLOAD PUSH1 0xA0 DUP3 ADD MSTORE PUSH1 0x5 DUP3 ADD SLOAD DUP4 AND PUSH1 0xC0 DUP3 ADD MSTORE PUSH1 0x6 DUP3 ADD SLOAD DUP4 AND PUSH1 0xE0 DUP3 ADD MSTORE PUSH1 0x7 DUP3 ADD SLOAD PUSH2 0x100 DUP3 ADD MSTORE PUSH1 0x8 DUP3 ADD SLOAD PUSH2 0x120 DUP3 ADD MSTORE PUSH1 0x9 DUP3 ADD SLOAD PUSH2 0x140 DUP3 ADD MSTORE PUSH1 0xA DUP3 ADD SLOAD PUSH2 0x160 DUP3 ADD MSTORE PUSH1 0xB DUP3 ADD SLOAD SWAP1 SWAP3 AND PUSH2 0x180 DUP4 ADD MSTORE PUSH1 0xC DUP2 ADD SLOAD PUSH2 0x1A0 DUP4 ADD MSTORE PUSH1 0xD ADD SLOAD PUSH2 0x1C0 DUP3 ADD MSTORE SWAP1 JUMP JUMPDEST PUSH1 0x0 SLOAD PUSH1 0x1 PUSH1 0x1 PUSH1 0xA0 SHL SUB AND SWAP1 JUMP JUMPDEST PUSH1 0x0 DUP1 DUP3 GT PUSH2 0x1C83 JUMPI PUSH1 0x0 DUP1 REVERT JUMPDEST PUSH1 0x3 SLOAD PUSH1 0x40 MLOAD PUSH4 0xC4228D81 PUSH1 0xE0 SHL DUP2 MSTORE PUSH1 0x1 PUSH1 0x1 PUSH1 0xA0 SHL SUB SWAP1 SWAP2 AND SWAP1 PUSH4 0xC4228D81 SWAP1 PUSH2 0x1CB3 SWAP1 DUP7 SWAP1 PUSH1 0x4 ADD PUSH2 0x3669 JUMP JUMPDEST PUSH1 0x0 PUSH1 0x40 MLOAD DUP1 DUP4 SUB DUP2 DUP7 DUP1 EXTCODESIZE ISZERO DUP1 ISZERO PUSH2 0x1CCB JUMPI PUSH1 0x0 DUP1 REVERT JUMPDEST POP GAS STATICCALL ISZERO DUP1 ISZERO PUSH2 0x1CDF JUMPI RETURNDATASIZE PUSH1 0x0 DUP1 RETURNDATACOPY RETURNDATASIZE PUSH1 0x0 REVERT JUMPDEST POP POP POP POP PUSH1 0x40 MLOAD RETURNDATASIZE PUSH1 0x0 DUP3 RETURNDATACOPY PUSH1 0x1F RETURNDATASIZE SWAP1 DUP2 ADD PUSH1 0x1F NOT AND DUP3 ADD PUSH1 0x40 MSTORE PUSH2 0x1D07 SWAP2 SWAP1 DUP2 ADD SWAP1 PUSH2 0x3419 JUMP JUMPDEST MLOAD PUSH1 0x80 ADD MLOAD PUSH6 0xFFFFFFFFFFFF AND TIMESTAMP GT ISZERO PUSH2 0x1D20 JUMPI PUSH1 0x0 DUP1 REVERT JUMPDEST PUSH1 0x1 PUSH1 0x1 PUSH1 0xA0 SHL SUB DUP1 DUP5 AND PUSH1 0x0 SWAP1 DUP2 MSTORE PUSH1 0x4 PUSH1 0x20 DUP2 SWAP1 MSTORE PUSH1 0x40 SWAP2 DUP3 SWAP1 KECCAK256 PUSH1 0x5 DUP2 ADD SLOAD PUSH1 0x6 SWAP1 SWAP2 ADD SLOAD SWAP3 MLOAD PUSH4 0x70A08231 PUSH1 0xE0 SHL DUP2 MSTORE SWAP1 DUP5 AND SWAP4 SWAP3 SWAP1 SWAP3 AND SWAP2 DUP6 SWAP2 DUP5 SWAP2 PUSH4 0x70A08231 SWAP2 PUSH2 0x1D73 SWAP2 CALLER SWAP2 ADD PUSH2 0x3669 JUMP JUMPDEST PUSH1 0x20 PUSH1 0x40 MLOAD DUP1 DUP4 SUB DUP2 DUP7 DUP1 EXTCODESIZE ISZERO DUP1 ISZERO PUSH2 0x1D8B JUMPI PUSH1 0x0 DUP1 REVERT JUMPDEST POP GAS STATICCALL ISZERO DUP1 ISZERO PUSH2 0x1D9F JUMPI RETURNDATASIZE PUSH1 0x0 DUP1 RETURNDATACOPY RETURNDATASIZE PUSH1 0x0 REVERT JUMPDEST POP POP POP POP PUSH1 0x40 MLOAD RETURNDATASIZE PUSH1 0x1F NOT PUSH1 0x1F DUP3 ADD AND DUP3 ADD DUP1 PUSH1 0x40 MSTORE POP DUP2 ADD SWAP1 PUSH2 0x1DC3 SWAP2 SWAP1 PUSH2 0x363E JUMP JUMPDEST LT ISZERO PUSH2 0x1DCE JUMPI PUSH1 0x0 DUP1 REVERT JUMPDEST PUSH1 0x40 MLOAD PUSH4 0x70A08231 PUSH1 0xE0 SHL DUP2 MSTORE DUP5 SWAP1 PUSH1 0x1 PUSH1 0x1 PUSH1 0xA0 SHL SUB DUP4 AND SWAP1 PUSH4 0x70A08231 SWAP1 PUSH2 0x1DFC SWAP1 CALLER SWAP1 PUSH1 0x4 ADD PUSH2 0x3669 JUMP JUMPDEST PUSH1 0x20 PUSH1 0x40 MLOAD DUP1 DUP4 SUB DUP2 DUP7 DUP1 EXTCODESIZE ISZERO DUP1 ISZERO PUSH2 0x1E14 JUMPI PUSH1 0x0 DUP1 REVERT JUMPDEST POP GAS STATICCALL ISZERO DUP1 ISZERO PUSH2 0x1E28 JUMPI RETURNDATASIZE PUSH1 0x0 DUP1 RETURNDATACOPY RETURNDATASIZE PUSH1 0x0 REVERT JUMPDEST POP POP POP POP PUSH1 0x40 MLOAD RETURNDATASIZE PUSH1 0x1F NOT PUSH1 0x1F DUP3 ADD AND DUP3 ADD DUP1 PUSH1 0x40 MSTORE POP DUP2 ADD SWAP1 PUSH2 0x1E4C SWAP2 SWAP1 PUSH2 0x363E JUMP JUMPDEST LT ISZERO PUSH2 0x1E57 JUMPI PUSH1 0x0 DUP1 REVERT JUMPDEST PUSH1 0x1 PUSH1 0x1 PUSH1 0xA0 SHL SUB DUP6 AND PUSH1 0x0 SWAP1 DUP2 MSTORE PUSH1 0x4 PUSH1 0x20 MSTORE PUSH1 0x40 SWAP1 KECCAK256 PUSH1 0x8 ADD SLOAD DUP5 GT ISZERO PUSH2 0x1E7F JUMPI PUSH1 0x0 DUP1 REVERT JUMPDEST PUSH1 0x1 PUSH1 0x1 PUSH1 0xA0 SHL SUB DUP6 AND PUSH1 0x0 SWAP1 DUP2 MSTORE PUSH1 0x4 PUSH1 0x20 MSTORE PUSH1 0x40 SWAP1 KECCAK256 PUSH1 0xA ADD SLOAD DUP5 GT ISZERO PUSH2 0x1EA7 JUMPI PUSH1 0x0 DUP1 REVERT JUMPDEST PUSH1 0x1 PUSH1 0x1 PUSH1 0xA0 SHL SUB DUP6 AND PUSH1 0x0 SWAP1 DUP2 MSTORE PUSH1 0x4 PUSH1 0x20 MSTORE PUSH1 0x40 SWAP1 KECCAK256 PUSH1 0x8 ADD SLOAD PUSH2 0x1ECD SWAP1 DUP6 PUSH2 0x2DC6 JUMP JUMPDEST PUSH1 0x1 PUSH1 0x1 PUSH1 0xA0 SHL SUB DUP7 AND PUSH1 0x0 SWAP1 DUP2 MSTORE PUSH1 0x4 PUSH1 0x20 MSTORE PUSH1 0x40 SWAP1 KECCAK256 PUSH1 0x8 DUP2 ADD SWAP2 SWAP1 SWAP2 SSTORE PUSH1 0xA ADD SLOAD PUSH2 0x1EFB SWAP1 DUP6 PUSH2 0x2DC6 JUMP JUMPDEST PUSH1 0x1 PUSH1 0x1 PUSH1 0xA0 SHL SUB DUP7 AND PUSH1 0x0 SWAP1 DUP2 MSTORE PUSH1 0x4 PUSH1 0x20 MSTORE PUSH1 0x40 DUP2 KECCAK256 PUSH1 0xA ADD SWAP2 SWAP1 SWAP2 SSTORE PUSH2 0x1F24 DUP7 DUP7 PUSH2 0x133E JUMP JUMPDEST PUSH1 0x1 PUSH1 0x1 PUSH1 0xA0 SHL SUB DUP8 AND PUSH1 0x0 SWAP1 DUP2 MSTORE PUSH1 0x4 PUSH1 0x20 DUP2 SWAP1 MSTORE PUSH1 0x40 SWAP1 SWAP2 KECCAK256 ADD SLOAD SWAP1 SWAP2 POP PUSH2 0x1F4E SWAP1 DUP3 PUSH2 0x2DC6 JUMP JUMPDEST PUSH1 0x1 PUSH1 0x1 PUSH1 0xA0 SHL SUB DUP8 AND PUSH1 0x0 SWAP1 DUP2 MSTORE PUSH1 0x4 PUSH1 0x20 DUP2 SWAP1 MSTORE PUSH1 0x40 DUP3 KECCAK256 ADD SWAP2 SWAP1 SWAP2 SSTORE PUSH1 0x1 SLOAD PUSH2 0x1F94 SWAP1 PUSH2 0xFFFF PUSH1 0x1 PUSH1 0xB0 SHL DUP3 DIV DUP2 AND SWAP2 PUSH2 0x12F5 SWAP2 DUP7 SWAP2 PUSH1 0x1 PUSH1 0xA0 SHL SWAP1 DIV AND PUSH2 0x2D2B JUMP JUMPDEST PUSH1 0x1 PUSH1 0x1 PUSH1 0xA0 SHL SUB DUP9 AND PUSH1 0x0 SWAP1 DUP2 MSTORE PUSH1 0x4 PUSH1 0x20 MSTORE PUSH1 0x40 SWAP1 KECCAK256 PUSH1 0x1 ADD SLOAD SWAP1 SWAP2 POP PUSH2 0x1FBE SWAP1 DUP3 SWAP1 PUSH2 0x2C6A JUMP JUMPDEST PUSH1 0x1 PUSH1 0x1 PUSH1 0xA0 SHL SUB DUP1 DUP10 AND PUSH1 0x0 SWAP1 DUP2 MSTORE PUSH1 0x4 PUSH1 0x20 DUP2 SWAP1 MSTORE PUSH1 0x40 DUP1 DUP4 KECCAK256 PUSH1 0x1 ADD SWAP5 SWAP1 SWAP5 SSTORE PUSH1 0x3 SLOAD SWAP4 MLOAD PUSH4 0xC4228D81 PUSH1 0xE0 SHL DUP2 MSTORE SWAP2 SWAP4 SWAP1 SWAP3 AND SWAP2 PUSH4 0xC4228D81 SWAP2 PUSH2 0x2008 SWAP2 DUP13 SWAP2 ADD PUSH2 0x3669 JUMP JUMPDEST PUSH1 0x0 PUSH1 0x40 MLOAD DUP1 DUP4 SUB DUP2 DUP7 DUP1 EXTCODESIZE ISZERO DUP1 ISZERO PUSH2 0x2020 JUMPI PUSH1 0x0 DUP1 REVERT JUMPDEST POP GAS STATICCALL ISZERO DUP1 ISZERO PUSH2 0x2034 JUMPI RETURNDATASIZE PUSH1 0x0 DUP1 RETURNDATACOPY RETURNDATASIZE PUSH1 0x0 REVERT JUMPDEST POP POP POP POP PUSH1 0x40 MLOAD RETURNDATASIZE PUSH1 0x0 DUP3 RETURNDATACOPY PUSH1 0x1F RETURNDATASIZE SWAP1 DUP2 ADD PUSH1 0x1F NOT AND DUP3 ADD PUSH1 0x40 MSTORE PUSH2 0x205C SWAP2 SWAP1 DUP2 ADD SWAP1 PUSH2 0x3419 JUMP JUMPDEST MLOAD PUSH1 0xE0 ADD MLOAD SWAP1 POP PUSH2 0x2082 CALLER PUSH2 0x2071 DUP6 DUP6 PUSH2 0x2DC6 JUMP JUMPDEST PUSH1 0x1 PUSH1 0x1 PUSH1 0xA0 SHL SUB DUP5 AND SWAP2 SWAP1 PUSH2 0x2C13 JUMP JUMPDEST PUSH1 0x1 PUSH1 0x1 PUSH1 0xA0 SHL SUB DUP2 AND PUSH1 0x0 SWAP1 DUP2 MSTORE PUSH1 0x8 PUSH1 0x20 MSTORE PUSH1 0x40 SWAP1 KECCAK256 SLOAD PUSH2 0x20A6 SWAP1 DUP4 SWAP1 PUSH2 0x2C6A JUMP JUMPDEST PUSH1 0x1 PUSH1 0x1 PUSH1 0xA0 SHL SUB DUP3 AND PUSH1 0x0 SWAP1 DUP2 MSTORE PUSH1 0x8 PUSH1 0x20 SWAP1 DUP2 MSTORE PUSH1 0x40 DUP1 DUP4 KECCAK256 SWAP4 SWAP1 SWAP4 SSTORE PUSH1 0x5 SWAP1 MSTORE KECCAK256 SLOAD PUSH2 0x20D5 SWAP1 DUP5 PUSH2 0x2DC6 JUMP JUMPDEST PUSH1 0x1 PUSH1 0x1 PUSH1 0xA0 SHL SUB DUP1 DUP4 AND PUSH1 0x0 SWAP1 DUP2 MSTORE PUSH1 0x5 PUSH1 0x20 MSTORE PUSH1 0x40 SWAP1 DUP2 SWAP1 KECCAK256 SWAP3 SWAP1 SWAP3 SSTORE PUSH1 0x3 SLOAD SWAP2 MLOAD PUSH4 0x1FD57F9B PUSH1 0xE0 SHL DUP2 MSTORE SWAP2 AND SWAP1 PUSH4 0xF044C3BE SWAP1 DUP3 SWAP1 PUSH4 0x1FD57F9B SWAP1 PUSH2 0x2122 SWAP1 DUP14 SWAP1 PUSH1 0x4 ADD PUSH2 0x3669 JUMP JUMPDEST PUSH1 0x80 PUSH1 0x40 MLOAD DUP1 DUP4 SUB DUP2 DUP7 DUP1 EXTCODESIZE ISZERO DUP1 ISZERO PUSH2 0x213A JUMPI PUSH1 0x0 DUP1 REVERT JUMPDEST POP GAS STATICCALL ISZERO DUP1 ISZERO PUSH2 0x214E JUMPI RETURNDATASIZE PUSH1 0x0 DUP1 RETURNDATACOPY RETURNDATASIZE PUSH1 0x0 REVERT JUMPDEST POP POP POP POP PUSH1 0x40 MLOAD RETURNDATASIZE PUSH1 0x1F NOT PUSH1 0x1F DUP3 ADD AND DUP3 ADD DUP1 PUSH1 0x40 MSTORE POP DUP2 ADD SWAP1 PUSH2 0x2172 SWAP2 SWAP1 PUSH2 0x34E0 JUMP JUMPDEST PUSH1 0x40 ADD MLOAD CALLER DUP11 PUSH1 0x40 MLOAD DUP5 PUSH4 0xFFFFFFFF AND PUSH1 0xE0 SHL DUP2 MSTORE PUSH1 0x4 ADD PUSH2 0x2196 SWAP4 SWAP3 SWAP2 SWAP1 PUSH2 0x36E2 JUMP JUMPDEST PUSH1 0x20 PUSH1 0x40 MLOAD DUP1 DUP4 SUB DUP2 PUSH1 0x0 DUP8 DUP1 EXTCODESIZE ISZERO DUP1 ISZERO PUSH2 0x21B0 JUMPI PUSH1 0x0 DUP1 REVERT JUMPDEST POP GAS CALL ISZERO DUP1 ISZERO PUSH2 0x21C4 JUMPI RETURNDATASIZE PUSH1 0x0 DUP1 RETURNDATACOPY RETURNDATASIZE PUSH1 0x0 REVERT JUMPDEST POP POP POP POP PUSH1 0x40 MLOAD RETURNDATASIZE PUSH1 0x1F NOT PUSH1 0x1F DUP3 ADD AND DUP3 ADD DUP1 PUSH1 0x40 MSTORE POP DUP2 ADD SWAP1 PUSH2 0x21E8 SWAP2 SWAP1 PUSH2 0x33FF JUMP JUMPDEST POP PUSH1 0x3 SLOAD PUSH1 0x40 MLOAD PUSH4 0x1FD57F9B PUSH1 0xE0 SHL DUP2 MSTORE PUSH1 0x1 PUSH1 0x1 PUSH1 0xA0 SHL SUB SWAP1 SWAP2 AND SWAP1 PUSH4 0xF044C3BE SWAP1 DUP3 SWAP1 PUSH4 0x1FD57F9B SWAP1 PUSH2 0x2221 SWAP1 DUP14 SWAP1 PUSH1 0x4 ADD PUSH2 0x3669 JUMP JUMPDEST PUSH1 0x80 PUSH1 0x40 MLOAD DUP1 DUP4 SUB DUP2 DUP7 DUP1 EXTCODESIZE ISZERO DUP1 ISZERO PUSH2 0x2239 JUMPI PUSH1 0x0 DUP1 REVERT JUMPDEST POP GAS STATICCALL ISZERO DUP1 ISZERO PUSH2 0x224D JUMPI RETURNDATASIZE PUSH1 0x0 DUP1 RETURNDATACOPY RETURNDATASIZE PUSH1 0x0 REVERT JUMPDEST POP POP POP POP PUSH1 0x40 MLOAD RETURNDATASIZE PUSH1 0x1F NOT PUSH1 0x1F DUP3 ADD AND DUP3 ADD DUP1 PUSH1 0x40 MSTORE POP DUP2 ADD SWAP1 PUSH2 0x2271 SWAP2 SWAP1 PUSH2 0x34E0 JUMP JUMPDEST PUSH1 0x60 ADD MLOAD CALLER DUP11 PUSH1 0x40 MLOAD DUP5 PUSH4 0xFFFFFFFF AND PUSH1 0xE0 SHL DUP2 MSTORE PUSH1 0x4 ADD PUSH2 0x2295 SWAP4 SWAP3 SWAP2 SWAP1 PUSH2 0x36E2 JUMP JUMPDEST PUSH1 0x20 PUSH1 0x40 MLOAD DUP1 DUP4 SUB DUP2 PUSH1 0x0 DUP8 DUP1 EXTCODESIZE ISZERO DUP1 ISZERO PUSH2 0x22AF JUMPI PUSH1 0x0 DUP1 REVERT JUMPDEST POP GAS CALL ISZERO DUP1 ISZERO PUSH2 0x22C3 JUMPI RETURNDATASIZE PUSH1 0x0 DUP1 RETURNDATACOPY RETURNDATASIZE PUSH1 0x0 REVERT JUMPDEST POP POP POP POP PUSH1 0x40 MLOAD RETURNDATASIZE PUSH1 0x1F NOT PUSH1 0x1F DUP3 ADD AND DUP3 ADD DUP1 PUSH1 0x40 MSTORE POP DUP2 ADD SWAP1 PUSH2 0x22E7 SWAP2 SWAP1 PUSH2 0x33FF JUMP JUMPDEST POP PUSH32 0xE59B6ADFB5F841EF0B93C04F7D8469420EA10C6A6804EA2B9E7807263D73885B CALLER DUP10 DUP10 DUP5 DUP8 PUSH1 0x40 MLOAD PUSH2 0x1B60 SWAP6 SWAP5 SWAP4 SWAP3 SWAP2 SWAP1 PUSH2 0x3706 JUMP JUMPDEST PUSH1 0x0 PUSH1 0x1 PUSH1 0x1 PUSH1 0xA0 SHL SUB DUP3 AND PUSH2 0x2334 JUMPI PUSH1 0x0 DUP1 REVERT JUMPDEST POP PUSH1 0x1 PUSH1 0x1 PUSH1 0xA0 SHL SUB AND PUSH1 0x0 SWAP1 DUP2 MSTORE PUSH1 0x5 PUSH1 0x20 MSTORE PUSH1 0x40 SWAP1 KECCAK256 SLOAD SWAP1 JUMP JUMPDEST PUSH1 0x7 SLOAD SWAP1 JUMP JUMPDEST PUSH1 0x0 PUSH1 0x1 PUSH1 0x1 PUSH1 0xA0 SHL SUB DUP4 AND PUSH2 0x236B JUMPI PUSH1 0x0 DUP1 REVERT JUMPDEST PUSH1 0x0 DUP3 GT PUSH2 0x2378 JUMPI PUSH1 0x0 DUP1 REVERT JUMPDEST PUSH1 0x1 PUSH1 0x1 PUSH1 0xA0 SHL SUB DUP1 DUP5 AND PUSH1 0x0 SWAP1 DUP2 MSTORE PUSH1 0x4 PUSH1 0x20 DUP2 SWAP1 MSTORE PUSH1 0x40 SWAP2 DUP3 SWAP1 KECCAK256 PUSH1 0x6 ADD SLOAD SWAP2 MLOAD PUSH4 0x70A08231 PUSH1 0xE0 SHL DUP2 MSTORE SWAP2 SWAP1 SWAP3 AND SWAP2 DUP5 SWAP2 DUP4 SWAP2 PUSH4 0x70A08231 SWAP2 PUSH2 0x23C0 SWAP2 CALLER SWAP2 ADD PUSH2 0x3669 JUMP JUMPDEST PUSH1 0x20 PUSH1 0x40 MLOAD DUP1 DUP4 SUB DUP2 DUP7 DUP1 EXTCODESIZE ISZERO DUP1 ISZERO PUSH2 0x23D8 JUMPI PUSH1 0x0 DUP1 REVERT JUMPDEST POP GAS STATICCALL ISZERO DUP1 ISZERO PUSH2 0x23EC JUMPI RETURNDATASIZE PUSH1 0x0 DUP1 RETURNDATACOPY RETURNDATASIZE PUSH1 0x0 REVERT JUMPDEST POP POP POP POP PUSH1 0x40 MLOAD RETURNDATASIZE PUSH1 0x1F NOT PUSH1 0x1F DUP3 ADD AND DUP3 ADD DUP1 PUSH1 0x40 MSTORE POP DUP2 ADD SWAP1 PUSH2 0x2410 SWAP2 SWAP1 PUSH2 0x363E JUMP JUMPDEST LT ISZERO PUSH2 0x241B JUMPI PUSH1 0x0 DUP1 REVERT JUMPDEST PUSH1 0x3 SLOAD PUSH1 0x40 MLOAD PUSH4 0xC4228D81 PUSH1 0xE0 SHL DUP2 MSTORE PUSH1 0x1 PUSH1 0x1 PUSH1 0xA0 SHL SUB SWAP1 SWAP2 AND SWAP1 PUSH4 0xC4228D81 SWAP1 PUSH2 0x244B SWAP1 DUP8 SWAP1 PUSH1 0x4 ADD PUSH2 0x3669 JUMP JUMPDEST PUSH1 0x0 PUSH1 0x40 MLOAD DUP1 DUP4 SUB DUP2 DUP7 DUP1 EXTCODESIZE ISZERO DUP1 ISZERO PUSH2 0x2463 JUMPI PUSH1 0x0 DUP1 REVERT JUMPDEST POP GAS STATICCALL ISZERO DUP1 ISZERO PUSH2 0x2477 JUMPI RETURNDATASIZE PUSH1 0x0 DUP1 RETURNDATACOPY RETURNDATASIZE PUSH1 0x0 REVERT JUMPDEST POP POP POP POP PUSH1 0x40 MLOAD RETURNDATASIZE PUSH1 0x0 DUP3 RETURNDATACOPY PUSH1 0x1F RETURNDATASIZE SWAP1 DUP2 ADD PUSH1 0x1F NOT AND DUP3 ADD PUSH1 0x40 MSTORE PUSH2 0x249F SWAP2 SWAP1 DUP2 ADD SWAP1 PUSH2 0x3419 JUMP JUMPDEST MLOAD PUSH1 0x80 ADD MLOAD PUSH6 0xFFFFFFFFFFFF AND TIMESTAMP GT PUSH2 0x24B7 JUMPI PUSH1 0x0 DUP1 REVERT JUMPDEST PUSH1 0x0 PUSH2 0x24C3 DUP6 DUP6 PUSH2 0x2888 JUMP JUMPDEST SWAP1 POP PUSH1 0x0 PUSH2 0x24D1 DUP7 DUP7 PUSH2 0x144E JUMP JUMPDEST PUSH1 0x1 PUSH1 0x1 PUSH1 0xA0 SHL SUB DUP8 AND PUSH1 0x0 SWAP1 DUP2 MSTORE PUSH1 0x4 PUSH1 0x20 MSTORE PUSH1 0x40 SWAP1 KECCAK256 PUSH1 0xA ADD SLOAD SWAP1 SWAP2 POP PUSH2 0x24FA SWAP1 DUP7 PUSH2 0x2DC6 JUMP JUMPDEST PUSH1 0x1 PUSH1 0x1 PUSH1 0xA0 SHL SUB DUP8 AND PUSH1 0x0 SWAP1 DUP2 MSTORE PUSH1 0x4 PUSH1 0x20 DUP2 SWAP1 MSTORE PUSH1 0x40 SWAP1 SWAP2 KECCAK256 PUSH1 0xA DUP2 ADD SWAP3 SWAP1 SWAP3 SSTORE ADD SLOAD PUSH2 0x2529 SWAP1 DUP4 PUSH2 0x2DC6 JUMP JUMPDEST PUSH1 0x1 PUSH1 0x1 PUSH1 0xA0 SHL SUB DUP8 AND PUSH1 0x0 SWAP1 DUP2 MSTORE PUSH1 0x4 PUSH1 0x20 DUP2 SWAP1 MSTORE PUSH1 0x40 SWAP1 SWAP2 KECCAK256 SWAP1 DUP2 ADD SWAP2 SWAP1 SWAP2 SSTORE PUSH1 0xD ADD SLOAD PUSH2 0x2559 SWAP1 DUP3 PUSH2 0x2DC6 JUMP JUMPDEST PUSH1 0x1 PUSH1 0x1 PUSH1 0xA0 SHL SUB DUP8 AND PUSH1 0x0 SWAP1 DUP2 MSTORE PUSH1 0x4 PUSH1 0x20 MSTORE PUSH1 0x40 SWAP1 KECCAK256 PUSH1 0xD ADD SSTORE DUP2 ISZERO PUSH2 0x26D0 JUMPI PUSH1 0x1 SLOAD PUSH1 0x0 SWAP1 PUSH2 0x25A5 SWAP1 PUSH2 0xFFFF PUSH1 0x1 PUSH1 0xB0 SHL DUP3 DIV DUP2 AND SWAP2 PUSH2 0x12F5 SWAP2 DUP8 SWAP2 PUSH1 0x1 PUSH1 0xA0 SHL SWAP1 DIV AND PUSH2 0x2D2B JUMP JUMPDEST PUSH1 0x1 PUSH1 0x1 PUSH1 0xA0 SHL SUB DUP9 AND PUSH1 0x0 SWAP1 DUP2 MSTORE PUSH1 0x4 PUSH1 0x20 MSTORE PUSH1 0x40 SWAP1 KECCAK256 PUSH1 0x1 ADD SLOAD SWAP1 SWAP2 POP PUSH2 0x25CF SWAP1 DUP3 SWAP1 PUSH2 0x2C6A JUMP JUMPDEST PUSH1 0x1 PUSH1 0x1 PUSH1 0xA0 SHL SUB DUP1 DUP10 AND PUSH1 0x0 SWAP1 DUP2 MSTORE PUSH1 0x4 PUSH1 0x20 SWAP1 DUP2 MSTORE PUSH1 0x40 DUP1 DUP4 KECCAK256 PUSH1 0x1 DUP2 ADD SWAP6 SWAP1 SWAP6 SSTORE PUSH1 0x2 SWAP1 SWAP5 ADD SLOAD SWAP1 SWAP3 AND DUP2 MSTORE PUSH1 0x8 SWAP1 SWAP2 MSTORE KECCAK256 SLOAD PUSH2 0x2610 SWAP1 DUP3 SWAP1 PUSH2 0x2C6A JUMP JUMPDEST PUSH1 0x1 PUSH1 0x1 PUSH1 0xA0 SHL SUB DUP1 DUP10 AND PUSH1 0x0 SWAP1 DUP2 MSTORE PUSH1 0x4 PUSH1 0x20 SWAP1 DUP2 MSTORE PUSH1 0x40 DUP1 DUP4 KECCAK256 PUSH1 0x2 ADD SLOAD SWAP1 SWAP4 AND DUP3 MSTORE PUSH1 0x8 SWAP1 MSTORE KECCAK256 SSTORE PUSH2 0x266E CALLER PUSH2 0x2649 DUP6 DUP5 PUSH2 0x2DC6 JUMP JUMPDEST PUSH1 0x1 PUSH1 0x1 PUSH1 0xA0 SHL SUB DUP1 DUP12 AND PUSH1 0x0 SWAP1 DUP2 MSTORE PUSH1 0x4 PUSH1 0x20 MSTORE PUSH1 0x40 SWAP1 KECCAK256 PUSH1 0x2 ADD SLOAD AND SWAP2 SWAP1 PUSH2 0x2C13 JUMP JUMPDEST PUSH1 0x1 PUSH1 0x1 PUSH1 0xA0 SHL SUB DUP1 DUP9 AND PUSH1 0x0 SWAP1 DUP2 MSTORE PUSH1 0x4 PUSH1 0x20 SWAP1 DUP2 MSTORE PUSH1 0x40 DUP1 DUP4 KECCAK256 PUSH1 0x2 ADD SLOAD SWAP1 SWAP4 AND DUP3 MSTORE PUSH1 0x5 SWAP1 MSTORE KECCAK256 SLOAD PUSH2 0x26A3 SWAP1 DUP5 PUSH2 0x2DC6 JUMP JUMPDEST PUSH1 0x1 PUSH1 0x1 PUSH1 0xA0 SHL SUB DUP1 DUP10 AND PUSH1 0x0 SWAP1 DUP2 MSTORE PUSH1 0x4 PUSH1 0x20 SWAP1 DUP2 MSTORE PUSH1 0x40 DUP1 DUP4 KECCAK256 PUSH1 0x2 ADD SLOAD SWAP1 SWAP4 AND DUP3 MSTORE PUSH1 0x5 SWAP1 MSTORE KECCAK256 SSTORE POP JUMPDEST DUP1 ISZERO PUSH2 0x2754 JUMPI PUSH1 0x1 PUSH1 0x1 PUSH1 0xA0 SHL SUB DUP7 DUP2 AND PUSH1 0x0 SWAP1 DUP2 MSTORE PUSH1 0x4 PUSH1 0x20 MSTORE PUSH1 0x40 SWAP1 KECCAK256 PUSH1 0xB ADD SLOAD AND PUSH2 0x272B JUMPI PUSH1 0x40 MLOAD CALLER SWAP1 DUP3 ISZERO PUSH2 0x8FC MUL SWAP1 DUP4 SWAP1 PUSH1 0x0 DUP2 DUP2 DUP2 DUP6 DUP9 DUP9 CALL SWAP4 POP POP POP POP ISZERO DUP1 ISZERO PUSH2 0x2725 JUMPI RETURNDATASIZE PUSH1 0x0 DUP1 RETURNDATACOPY RETURNDATASIZE PUSH1 0x0 REVERT JUMPDEST POP PUSH2 0x2754 JUMP JUMPDEST PUSH1 0x1 PUSH1 0x1 PUSH1 0xA0 SHL SUB DUP1 DUP8 AND PUSH1 0x0 SWAP1 DUP2 MSTORE PUSH1 0x4 PUSH1 0x20 MSTORE PUSH1 0x40 SWAP1 KECCAK256 PUSH1 0xB ADD SLOAD PUSH2 0x2754 SWAP2 AND CALLER DUP4 PUSH2 0x2C13 JUMP JUMPDEST PUSH1 0x3 SLOAD PUSH1 0x1 PUSH1 0x1 PUSH1 0xA0 SHL SUB DUP8 DUP2 AND PUSH1 0x0 SWAP1 DUP2 MSTORE PUSH1 0x4 PUSH1 0x20 DUP2 SWAP1 MSTORE PUSH1 0x40 SWAP2 DUP3 SWAP1 KECCAK256 PUSH1 0x6 ADD SLOAD SWAP2 MLOAD PUSH4 0x782261DF PUSH1 0xE1 SHL DUP2 MSTORE SWAP4 DUP4 AND SWAP4 PUSH4 0xF044C3BE SWAP4 PUSH2 0x279E SWAP4 AND SWAP2 CALLER SWAP2 DUP12 SWAP2 ADD PUSH2 0x36E2 JUMP JUMPDEST PUSH1 0x20 PUSH1 0x40 MLOAD DUP1 DUP4 SUB DUP2 PUSH1 0x0 DUP8 DUP1 EXTCODESIZE ISZERO DUP1 ISZERO PUSH2 0x27B8 JUMPI PUSH1 0x0 DUP1 REVERT JUMPDEST POP GAS CALL ISZERO DUP1 ISZERO PUSH2 0x27CC JUMPI RETURNDATASIZE PUSH1 0x0 DUP1 RETURNDATACOPY RETURNDATASIZE PUSH1 0x0 REVERT JUMPDEST POP POP POP POP PUSH1 0x40 MLOAD RETURNDATASIZE PUSH1 0x1F NOT PUSH1 0x1F DUP3 ADD AND DUP3 ADD DUP1 PUSH1 0x40 MSTORE POP DUP2 ADD SWAP1 PUSH2 0x27F0 SWAP2 SWAP1 PUSH2 0x33FF JUMP JUMPDEST POP PUSH1 0x1 PUSH1 0x1 PUSH1 0xA0 SHL SUB DUP1 DUP8 AND PUSH1 0x0 SWAP1 DUP2 MSTORE PUSH1 0x4 PUSH1 0x20 MSTORE PUSH1 0x40 SWAP1 DUP2 SWAP1 KECCAK256 PUSH1 0x2 DUP2 ADD SLOAD PUSH1 0xB SWAP1 SWAP2 ADD SLOAD SWAP2 MLOAD PUSH32 0x1AF4C5616EF194D958C1F1A05BF8A442A481516B6AE7E4967DF1615FB405B69D SWAP4 PUSH2 0x2852 SWAP4 CALLER SWAP4 DUP13 SWAP4 SWAP1 DUP4 AND SWAP3 DUP10 SWAP3 AND SWAP1 DUP9 SWAP1 PUSH2 0x36A7 JUMP JUMPDEST PUSH1 0x40 MLOAD DUP1 SWAP2 SUB SWAP1 LOG1 POP PUSH1 0x1 SWAP6 SWAP5 POP POP POP POP POP JUMP JUMPDEST PUSH1 0x1 SLOAD PUSH1 0x1 PUSH1 0xA0 SHL SWAP1 DIV PUSH2 0xFFFF AND SWAP1 JUMP JUMPDEST PUSH1 0x1 SLOAD PUSH1 0x1 PUSH1 0xB0 SHL SWAP1 DIV PUSH2 0xFFFF AND SWAP1 JUMP JUMPDEST PUSH1 0x1 PUSH1 0x1 PUSH1 0xA0 SHL SUB DUP3 AND PUSH1 0x0 SWAP1 DUP2 MSTORE PUSH1 0x4 PUSH1 0x20 MSTORE PUSH1 0x40 DUP2 KECCAK256 PUSH1 0xA ADD SLOAD DUP2 SWAP1 PUSH2 0x28BC SWAP1 PUSH2 0x12F5 DUP6 PUSH8 0xDE0B6B3A7640000 PUSH2 0x2D2B JUMP JUMPDEST PUSH1 0x1 PUSH1 0x1 PUSH1 0xA0 SHL SUB DUP6 AND PUSH1 0x0 SWAP1 DUP2 MSTORE PUSH1 0x4 PUSH1 0x20 DUP2 SWAP1 MSTORE PUSH1 0x40 DUP3 KECCAK256 ADD SLOAD SWAP2 SWAP3 POP SWAP1 PUSH2 0x14BA SWAP1 PUSH8 0xDE0B6B3A7640000 SWAP1 PUSH2 0x12F5 SWAP1 DUP6 PUSH2 0x2D2B JUMP JUMPDEST PUSH1 0x1 SLOAD PUSH1 0x1 PUSH1 0xB0 SHL SWAP1 DIV PUSH2 0xFFFF AND DUP2 JUMP JUMPDEST PUSH1 0x1 SLOAD PUSH1 0x1 PUSH1 0x1 PUSH1 0xA0 SHL SUB AND DUP2 JUMP JUMPDEST PUSH1 0x3 SLOAD PUSH1 0x1 PUSH1 0x1 PUSH1 0xA0 SHL SUB AND DUP2 JUMP JUMPDEST PUSH1 0x3 SLOAD PUSH1 0x40 MLOAD PUSH4 0xC4228D81 PUSH1 0xE0 SHL DUP2 MSTORE PUSH1 0x0 SWAP2 DUP3 SWAP2 PUSH1 0x1 PUSH1 0x1 PUSH1 0xA0 SHL SUB SWAP1 SWAP2 AND SWAP1 PUSH4 0xC4228D81 SWAP1 PUSH2 0x2958 SWAP1 DUP8 SWAP1 PUSH1 0x4 ADD PUSH2 0x3669 JUMP JUMPDEST PUSH1 0x0 PUSH1 0x40 MLOAD DUP1 DUP4 SUB DUP2 DUP7 DUP1 EXTCODESIZE ISZERO DUP1 ISZERO PUSH2 0x2970 JUMPI PUSH1 0x0 DUP1 REVERT JUMPDEST POP GAS STATICCALL ISZERO DUP1 ISZERO PUSH2 0x2984 JUMPI RETURNDATASIZE PUSH1 0x0 DUP1 RETURNDATACOPY RETURNDATASIZE PUSH1 0x0 REVERT JUMPDEST POP POP POP POP PUSH1 0x40 MLOAD RETURNDATASIZE PUSH1 0x0 DUP3 RETURNDATACOPY PUSH1 0x1F RETURNDATASIZE SWAP1 DUP2 ADD PUSH1 0x1F NOT AND DUP3 ADD PUSH1 0x40 MSTORE PUSH2 0x29AC SWAP2 SWAP1 DUP2 ADD SWAP1 PUSH2 0x3419 JUMP JUMPDEST MLOAD PUSH1 0x60 ADD MLOAD SWAP1 POP PUSH1 0x12 PUSH1 0x0 PUSH2 0x29D1 PUSH8 0xDE0B6B3A7640000 PUSH2 0x12F5 DUP8 PUSH1 0xA DUP8 SWAP1 EXP PUSH2 0x2D2B JUMP JUMPDEST PUSH1 0x3 SLOAD PUSH1 0x40 MLOAD PUSH4 0xC4228D81 PUSH1 0xE0 SHL DUP2 MSTORE SWAP2 SWAP3 POP PUSH1 0x0 SWAP2 PUSH1 0x1 PUSH1 0x1 PUSH1 0xA0 SHL SUB SWAP1 SWAP2 AND SWAP1 PUSH4 0xC4228D81 SWAP1 PUSH2 0x2A07 SWAP1 DUP11 SWAP1 PUSH1 0x4 ADD PUSH2 0x3669 JUMP JUMPDEST PUSH1 0x0 PUSH1 0x40 MLOAD DUP1 DUP4 SUB DUP2 DUP7 DUP1 EXTCODESIZE ISZERO DUP1 ISZERO PUSH2 0x2A1F JUMPI PUSH1 0x0 DUP1 REVERT JUMPDEST POP GAS STATICCALL ISZERO DUP1 ISZERO PUSH2 0x2A33 JUMPI RETURNDATASIZE PUSH1 0x0 DUP1 RETURNDATACOPY RETURNDATASIZE PUSH1 0x0 REVERT JUMPDEST POP POP POP POP PUSH1 0x40 MLOAD RETURNDATASIZE PUSH1 0x0 DUP3 RETURNDATACOPY PUSH1 0x1F RETURNDATASIZE SWAP1 DUP2 ADD PUSH1 0x1F NOT AND DUP3 ADD PUSH1 0x40 MSTORE PUSH2 0x2A5B SWAP2 SWAP1 DUP2 ADD SWAP1 PUSH2 0x3419 JUMP JUMPDEST MLOAD PUSH2 0x100 ADD MLOAD SWAP1 POP PUSH2 0x2A86 PUSH3 0xF4240 PUSH2 0x2A80 DUP4 PUSH2 0x12F5 DUP7 PUSH8 0xDE0B6B3A7640000 PUSH2 0x2D2B JUMP JUMPDEST SWAP1 PUSH2 0x2D2B JUMP JUMPDEST SWAP2 POP PUSH2 0x2A9A DUP3 PUSH8 0xDE0B6B3A7640000 PUSH2 0x2D84 JUMP JUMPDEST SWAP8 SWAP7 POP POP POP POP POP POP POP JUMP JUMPDEST PUSH1 0x0 SLOAD PUSH1 0x1 PUSH1 0x1 PUSH1 0xA0 SHL SUB AND CALLER EQ PUSH2 0x2AF2 JUMPI PUSH1 0x40 DUP1 MLOAD PUSH3 0x461BCD PUSH1 0xE5 SHL DUP2 MSTORE PUSH1 0x20 PUSH1 0x4 DUP3 ADD DUP2 SWAP1 MSTORE PUSH1 0x24 DUP3 ADD MSTORE PUSH1 0x0 DUP1 MLOAD PUSH1 0x20 PUSH2 0x38B5 DUP4 CODECOPY DUP2 MLOAD SWAP2 MSTORE PUSH1 0x44 DUP3 ADD MSTORE SWAP1 MLOAD SWAP1 DUP2 SWAP1 SUB PUSH1 0x64 ADD SWAP1 REVERT JUMPDEST PUSH1 0x1 PUSH1 0x1 PUSH1 0xA0 SHL SUB DUP2 AND PUSH2 0x2B37 JUMPI PUSH1 0x40 MLOAD PUSH3 0x461BCD PUSH1 0xE5 SHL DUP2 MSTORE PUSH1 0x4 ADD DUP1 DUP1 PUSH1 0x20 ADD DUP3 DUP2 SUB DUP3 MSTORE PUSH1 0x26 DUP2 MSTORE PUSH1 0x20 ADD DUP1 PUSH2 0x386E PUSH1 0x26 SWAP2 CODECOPY PUSH1 0x40 ADD SWAP2 POP POP PUSH1 0x40 MLOAD DUP1 SWAP2 SUB SWAP1 REVERT JUMPDEST PUSH1 0x0 DUP1 SLOAD PUSH1 0x40 MLOAD PUSH1 0x1 PUSH1 0x1 PUSH1 0xA0 SHL SUB DUP1 DUP6 AND SWAP4 SWAP3 AND SWAP2 PUSH32 0xB150023A879FD806E3599B6CA8EE3B60F0E360AB3846D128D67EBCE1A391639A SWAP2 LOG3 PUSH1 0x0 DUP1 SLOAD PUSH1 0x1 PUSH1 0x1 PUSH1 0xA0 SHL SUB NOT AND PUSH1 0x1 PUSH1 0x1 PUSH1 0xA0 SHL SUB SWAP3 SWAP1 SWAP3 AND SWAP2 SWAP1 SWAP2 OR SWAP1 SSTORE JUMP JUMPDEST PUSH1 0x0 DUP1 SLOAD PUSH1 0x1 PUSH1 0x1 PUSH1 0xA0 SHL SUB AND CALLER EQ PUSH2 0x2BE0 JUMPI PUSH1 0x40 DUP1 MLOAD PUSH3 0x461BCD PUSH1 0xE5 SHL DUP2 MSTORE PUSH1 0x20 PUSH1 0x4 DUP3 ADD DUP2 SWAP1 MSTORE PUSH1 0x24 DUP3 ADD MSTORE PUSH1 0x0 DUP1 MLOAD PUSH1 0x20 PUSH2 0x38B5 DUP4 CODECOPY DUP2 MLOAD SWAP2 MSTORE PUSH1 0x44 DUP3 ADD MSTORE SWAP1 MLOAD SWAP1 DUP2 SWAP1 SUB PUSH1 0x64 ADD SWAP1 REVERT JUMPDEST PUSH1 0x0 DUP3 PUSH2 0xFFFF AND GT PUSH2 0x2BF1 JUMPI PUSH1 0x0 DUP1 REVERT JUMPDEST POP PUSH1 0x1 DUP1 SLOAD PUSH2 0xFFFF DUP4 AND PUSH1 0x1 PUSH1 0xA0 SHL MUL PUSH2 0xFFFF PUSH1 0xA0 SHL NOT SWAP1 SWAP2 AND OR DUP2 SSTORE SWAP2 SWAP1 POP JUMP JUMPDEST PUSH1 0x40 DUP1 MLOAD PUSH1 0x1 PUSH1 0x1 PUSH1 0xA0 SHL SUB DUP5 AND PUSH1 0x24 DUP3 ADD MSTORE PUSH1 0x44 DUP1 DUP3 ADD DUP5 SWAP1 MSTORE DUP3 MLOAD DUP1 DUP4 SUB SWAP1 SWAP2 ADD DUP2 MSTORE PUSH1 0x64 SWAP1 SWAP2 ADD SWAP1 SWAP2 MSTORE PUSH1 0x20 DUP2 ADD DUP1 MLOAD PUSH1 0x1 PUSH1 0x1 PUSH1 0xE0 SHL SUB AND PUSH4 0xA9059CBB PUSH1 0xE0 SHL OR SWAP1 MSTORE PUSH2 0x2C65 SWAP1 DUP5 SWAP1 PUSH2 0x2E08 JUMP JUMPDEST POP POP POP JUMP JUMPDEST PUSH1 0x0 DUP3 DUP3 ADD DUP4 DUP2 LT ISZERO PUSH2 0x2CC4 JUMPI PUSH1 0x40 DUP1 MLOAD PUSH3 0x461BCD PUSH1 0xE5 SHL DUP2 MSTORE PUSH1 0x20 PUSH1 0x4 DUP3 ADD MSTORE PUSH1 0x1B PUSH1 0x24 DUP3 ADD MSTORE PUSH32 0x536166654D6174683A206164646974696F6E206F766572666C6F770000000000 PUSH1 0x44 DUP3 ADD MSTORE SWAP1 MLOAD SWAP1 DUP2 SWAP1 SUB PUSH1 0x64 ADD SWAP1 REVERT JUMPDEST SWAP4 SWAP3 POP POP POP JUMP JUMPDEST PUSH1 0x40 DUP1 MLOAD PUSH1 0x1 PUSH1 0x1 PUSH1 0xA0 SHL SUB DUP1 DUP7 AND PUSH1 0x24 DUP4 ADD MSTORE DUP5 AND PUSH1 0x44 DUP3 ADD MSTORE PUSH1 0x64 DUP1 DUP3 ADD DUP5 SWAP1 MSTORE DUP3 MLOAD DUP1 DUP4 SUB SWAP1 SWAP2 ADD DUP2 MSTORE PUSH1 0x84 SWAP1 SWAP2 ADD SWAP1 SWAP2 MSTORE PUSH1 0x20 DUP2 ADD DUP1 MLOAD PUSH1 0x1 PUSH1 0x1 PUSH1 0xE0 SHL SUB AND PUSH4 0x23B872DD PUSH1 0xE0 SHL OR SWAP1 MSTORE PUSH2 0x2D25 SWAP1 DUP6 SWAP1 PUSH2 0x2E08 JUMP JUMPDEST POP POP POP POP JUMP JUMPDEST PUSH1 0x0 DUP3 PUSH2 0x2D3A JUMPI POP PUSH1 0x0 PUSH2 0x123A JUMP JUMPDEST DUP3 DUP3 MUL DUP3 DUP5 DUP3 DUP2 PUSH2 0x2D47 JUMPI INVALID JUMPDEST DIV EQ PUSH2 0x2CC4 JUMPI PUSH1 0x40 MLOAD PUSH3 0x461BCD PUSH1 0xE5 SHL DUP2 MSTORE PUSH1 0x4 ADD DUP1 DUP1 PUSH1 0x20 ADD DUP3 DUP2 SUB DUP3 MSTORE PUSH1 0x21 DUP2 MSTORE PUSH1 0x20 ADD DUP1 PUSH2 0x3894 PUSH1 0x21 SWAP2 CODECOPY PUSH1 0x40 ADD SWAP2 POP POP PUSH1 0x40 MLOAD DUP1 SWAP2 SUB SWAP1 REVERT JUMPDEST PUSH1 0x0 PUSH2 0x2CC4 DUP4 DUP4 PUSH1 0x40 MLOAD DUP1 PUSH1 0x40 ADD PUSH1 0x40 MSTORE DUP1 PUSH1 0x1A DUP2 MSTORE PUSH1 0x20 ADD PUSH32 0x536166654D6174683A206469766973696F6E206279207A65726F000000000000 DUP2 MSTORE POP PUSH2 0x2EB9 JUMP JUMPDEST PUSH1 0x0 PUSH2 0x2CC4 DUP4 DUP4 PUSH1 0x40 MLOAD DUP1 PUSH1 0x40 ADD PUSH1 0x40 MSTORE DUP1 PUSH1 0x1E DUP2 MSTORE PUSH1 0x20 ADD PUSH32 0x536166654D6174683A207375627472616374696F6E206F766572666C6F770000 DUP2 MSTORE POP PUSH2 0x2F5B JUMP JUMPDEST PUSH1 0x60 PUSH2 0x2E5D DUP3 PUSH1 0x40 MLOAD DUP1 PUSH1 0x40 ADD PUSH1 0x40 MSTORE DUP1 PUSH1 0x20 DUP2 MSTORE PUSH1 0x20 ADD PUSH32 0x5361666545524332303A206C6F772D6C6576656C2063616C6C206661696C6564 DUP2 MSTORE POP DUP6 PUSH1 0x1 PUSH1 0x1 PUSH1 0xA0 SHL SUB AND PUSH2 0x2FB5 SWAP1 SWAP3 SWAP2 SWAP1 PUSH4 0xFFFFFFFF AND JUMP JUMPDEST DUP1 MLOAD SWAP1 SWAP2 POP ISZERO PUSH2 0x2C65 JUMPI DUP1 DUP1 PUSH1 0x20 ADD SWAP1 MLOAD PUSH1 0x20 DUP2 LT ISZERO PUSH2 0x2E7C JUMPI PUSH1 0x0 DUP1 REVERT JUMPDEST POP MLOAD PUSH2 0x2C65 JUMPI PUSH1 0x40 MLOAD PUSH3 0x461BCD PUSH1 0xE5 SHL DUP2 MSTORE PUSH1 0x4 ADD DUP1 DUP1 PUSH1 0x20 ADD DUP3 DUP2 SUB DUP3 MSTORE PUSH1 0x2A DUP2 MSTORE PUSH1 0x20 ADD DUP1 PUSH2 0x38D5 PUSH1 0x2A SWAP2 CODECOPY PUSH1 0x40 ADD SWAP2 POP POP PUSH1 0x40 MLOAD DUP1 SWAP2 SUB SWAP1 REVERT JUMPDEST PUSH1 0x0 DUP2 DUP4 PUSH2 0x2F45 JUMPI PUSH1 0x40 MLOAD PUSH3 0x461BCD PUSH1 0xE5 SHL DUP2 MSTORE PUSH1 0x4 ADD DUP1 DUP1 PUSH1 0x20 ADD DUP3 DUP2 SUB DUP3 MSTORE DUP4 DUP2 DUP2 MLOAD DUP2 MSTORE PUSH1 0x20 ADD SWAP2 POP DUP1 MLOAD SWAP1 PUSH1 0x20 ADD SWAP1 DUP1 DUP4 DUP4 PUSH1 0x0 JUMPDEST DUP4 DUP2 LT ISZERO PUSH2 0x2F0A JUMPI DUP2 DUP2 ADD MLOAD DUP4 DUP3 ADD MSTORE PUSH1 0x20 ADD PUSH2 0x2EF2 JUMP JUMPDEST POP POP POP POP SWAP1 POP SWAP1 DUP2 ADD SWAP1 PUSH1 0x1F AND DUP1 ISZERO PUSH2 0x2F37 JUMPI DUP1 DUP3 SUB DUP1 MLOAD PUSH1 0x1 DUP4 PUSH1 0x20 SUB PUSH2 0x100 EXP SUB NOT AND DUP2 MSTORE PUSH1 0x20 ADD SWAP2 POP JUMPDEST POP SWAP3 POP POP POP PUSH1 0x40 MLOAD DUP1 SWAP2 SUB SWAP1 REVERT JUMPDEST POP PUSH1 0x0 DUP4 DUP6 DUP2 PUSH2 0x2F51 JUMPI INVALID JUMPDEST DIV SWAP6 SWAP5 POP POP POP POP POP JUMP JUMPDEST PUSH1 0x0 DUP2 DUP5 DUP5 GT ISZERO PUSH2 0x2FAD JUMPI PUSH1 0x40 MLOAD PUSH3 0x461BCD PUSH1 0xE5 SHL DUP2 MSTORE PUSH1 0x20 PUSH1 0x4 DUP3 ADD DUP2 DUP2 MSTORE DUP4 MLOAD PUSH1 0x24 DUP5 ADD MSTORE DUP4 MLOAD SWAP1 SWAP3 DUP4 SWAP3 PUSH1 0x44 SWAP1 SWAP2 ADD SWAP2 SWAP1 DUP6 ADD SWAP1 DUP1 DUP4 DUP4 PUSH1 0x0 DUP4 ISZERO PUSH2 0x2F0A JUMPI DUP2 DUP2 ADD MLOAD DUP4 DUP3 ADD MSTORE PUSH1 0x20 ADD PUSH2 0x2EF2 JUMP JUMPDEST POP POP POP SWAP1 SUB SWAP1 JUMP JUMPDEST PUSH1 0x60 PUSH2 0x2FC4 DUP5 DUP5 PUSH1 0x0 DUP6 PUSH2 0x2FCC JUMP JUMPDEST SWAP5 SWAP4 POP POP POP POP JUMP JUMPDEST PUSH1 0x60 PUSH2 0x2FD7 DUP6 PUSH2 0x3139 JUMP JUMPDEST PUSH2 0x3028 JUMPI PUSH1 0x40 DUP1 MLOAD PUSH3 0x461BCD PUSH1 0xE5 SHL DUP2 MSTORE PUSH1 0x20 PUSH1 0x4 DUP3 ADD MSTORE PUSH1 0x1D PUSH1 0x24 DUP3 ADD MSTORE PUSH32 0x416464726573733A2063616C6C20746F206E6F6E2D636F6E7472616374000000 PUSH1 0x44 DUP3 ADD MSTORE SWAP1 MLOAD SWAP1 DUP2 SWAP1 SUB PUSH1 0x64 ADD SWAP1 REVERT JUMPDEST PUSH1 0x0 PUSH1 0x60 DUP7 PUSH1 0x1 PUSH1 0x1 PUSH1 0xA0 SHL SUB AND DUP6 DUP8 PUSH1 0x40 MLOAD DUP1 DUP3 DUP1 MLOAD SWAP1 PUSH1 0x20 ADD SWAP1 DUP1 DUP4 DUP4 JUMPDEST PUSH1 0x20 DUP4 LT PUSH2 0x3067 JUMPI DUP1 MLOAD DUP3 MSTORE PUSH1 0x1F NOT SWAP1 SWAP3 ADD SWAP2 PUSH1 0x20 SWAP2 DUP3 ADD SWAP2 ADD PUSH2 0x3048 JUMP JUMPDEST PUSH1 0x1 DUP4 PUSH1 0x20 SUB PUSH2 0x100 EXP SUB DUP1 NOT DUP3 MLOAD AND DUP2 DUP5 MLOAD AND DUP1 DUP3 OR DUP6 MSTORE POP POP POP POP POP POP SWAP1 POP ADD SWAP2 POP POP PUSH1 0x0 PUSH1 0x40 MLOAD DUP1 DUP4 SUB DUP2 DUP6 DUP8 GAS CALL SWAP3 POP POP POP RETURNDATASIZE DUP1 PUSH1 0x0 DUP2 EQ PUSH2 0x30C9 JUMPI PUSH1 0x40 MLOAD SWAP2 POP PUSH1 0x1F NOT PUSH1 0x3F RETURNDATASIZE ADD AND DUP3 ADD PUSH1 0x40 MSTORE RETURNDATASIZE DUP3 MSTORE RETURNDATASIZE PUSH1 0x0 PUSH1 0x20 DUP5 ADD RETURNDATACOPY PUSH2 0x30CE JUMP JUMPDEST PUSH1 0x60 SWAP2 POP JUMPDEST POP SWAP2 POP SWAP2 POP DUP2 ISZERO PUSH2 0x30E2 JUMPI SWAP2 POP PUSH2 0x2FC4 SWAP1 POP JUMP JUMPDEST DUP1 MLOAD ISZERO PUSH2 0x30F2 JUMPI DUP1 MLOAD DUP1 DUP3 PUSH1 0x20 ADD REVERT JUMPDEST PUSH1 0x40 MLOAD PUSH3 0x461BCD PUSH1 0xE5 SHL DUP2 MSTORE PUSH1 0x20 PUSH1 0x4 DUP3 ADD DUP2 DUP2 MSTORE DUP7 MLOAD PUSH1 0x24 DUP5 ADD MSTORE DUP7 MLOAD DUP8 SWAP4 SWAP2 SWAP3 DUP4 SWAP3 PUSH1 0x44 ADD SWAP2 SWAP1 DUP6 ADD SWAP1 DUP1 DUP4 DUP4 PUSH1 0x0 DUP4 ISZERO PUSH2 0x2F0A JUMPI DUP2 DUP2 ADD MLOAD DUP4 DUP3 ADD MSTORE PUSH1 0x20 ADD PUSH2 0x2EF2 JUMP JUMPDEST EXTCODESIZE ISZERO ISZERO SWAP1 JUMP JUMPDEST PUSH1 0x40 MLOAD DUP1 PUSH2 0x1E0 ADD PUSH1 0x40 MSTORE DUP1 PUSH1 0x0 DUP2 MSTORE PUSH1 0x20 ADD PUSH1 0x0 DUP2 MSTORE PUSH1 0x20 ADD PUSH1 0x0 PUSH1 0x1 PUSH1 0x1 PUSH1 0xA0 SHL SUB AND DUP2 MSTORE PUSH1 0x20 ADD PUSH1 0x0 ISZERO ISZERO DUP2 MSTORE PUSH1 0x20 ADD PUSH1 0x0 DUP2 MSTORE PUSH1 0x20 ADD PUSH1 0x0 DUP2 MSTORE PUSH1 0x20 ADD PUSH1 0x0 PUSH1 0x1 PUSH1 0x1 PUSH1 0xA0 SHL SUB AND DUP2 MSTORE PUSH1 0x20 ADD PUSH1 0x0 PUSH1 0x1 PUSH1 0x1 PUSH1 0xA0 SHL SUB AND DUP2 MSTORE PUSH1 0x20 ADD PUSH1 0x0 DUP2 MSTORE PUSH1 0x20 ADD PUSH1 0x0 DUP2 MSTORE PUSH1 0x20 ADD PUSH1 0x0 DUP2 MSTORE PUSH1 0x20 ADD PUSH1 0x0 DUP2 MSTORE PUSH1 0x20 ADD PUSH1 0x0 PUSH1 0x1 PUSH1 0x1 PUSH1 0xA0 SHL SUB AND DUP2 MSTORE PUSH1 0x20 ADD PUSH1 0x0 DUP2 MSTORE PUSH1 0x20 ADD PUSH1 0x0 DUP2 MSTORE POP SWAP1 JUMP JUMPDEST DUP1 MLOAD PUSH2 0x5E5 DUP2 PUSH2 0x3855 JUMP JUMPDEST DUP1 MLOAD DUP1 ISZERO ISZERO DUP2 EQ PUSH2 0x5E5 JUMPI PUSH1 0x0 DUP1 REVERT JUMPDEST PUSH1 0x0 DUP3 PUSH1 0x1F DUP4 ADD SLT PUSH2 0x3206 JUMPI DUP1 DUP2 REVERT JUMPDEST DUP2 MLOAD PUSH8 0xFFFFFFFFFFFFFFFF DUP2 GT ISZERO PUSH2 0x321A JUMPI INVALID JUMPDEST PUSH1 0x20 PUSH2 0x322E PUSH1 0x1F DUP4 ADD PUSH1 0x1F NOT AND DUP3 ADD PUSH2 0x3831 JUMP JUMPDEST SWAP3 POP DUP2 DUP4 MSTORE DUP5 DUP2 DUP4 DUP7 ADD ADD GT ISZERO PUSH2 0x3244 JUMPI PUSH1 0x0 DUP1 REVERT JUMPDEST PUSH1 0x0 JUMPDEST DUP3 DUP2 LT ISZERO PUSH2 0x3262 JUMPI DUP5 DUP2 ADD DUP3 ADD MLOAD DUP5 DUP3 ADD DUP4 ADD MSTORE DUP2 ADD PUSH2 0x3247 JUMP JUMPDEST DUP3 DUP2 GT ISZERO PUSH2 0x3273 JUMPI PUSH1 0x0 DUP3 DUP5 DUP7 ADD ADD MSTORE JUMPDEST POP POP POP SWAP3 SWAP2 POP POP JUMP JUMPDEST PUSH1 0x0 PUSH2 0x160 DUP1 DUP4 DUP6 SUB SLT ISZERO PUSH2 0x328F JUMPI DUP2 DUP3 REVERT JUMPDEST PUSH2 0x3298 DUP2 PUSH2 0x3831 JUMP JUMPDEST SWAP2 POP POP PUSH2 0x32A4 DUP3 PUSH2 0x31DB JUMP JUMPDEST DUP2 MSTORE PUSH1 0x20 DUP3 ADD MLOAD PUSH8 0xFFFFFFFFFFFFFFFF DUP1 DUP3 GT ISZERO PUSH2 0x32C1 JUMPI PUSH1 0x0 DUP1 REVERT JUMPDEST PUSH2 0x32CD DUP6 DUP4 DUP7 ADD PUSH2 0x31F6 JUMP JUMPDEST PUSH1 0x20 DUP5 ADD MSTORE PUSH2 0x32DE PUSH1 0x40 DUP6 ADD PUSH2 0x31DB JUMP JUMPDEST PUSH1 0x40 DUP5 ADD MSTORE PUSH1 0x60 DUP5 ADD MLOAD PUSH1 0x60 DUP5 ADD MSTORE PUSH2 0x32F9 PUSH1 0x80 DUP6 ADD PUSH2 0x336E JUMP JUMPDEST PUSH1 0x80 DUP5 ADD MSTORE PUSH1 0xA0 DUP5 ADD MLOAD SWAP2 POP DUP1 DUP3 GT ISZERO PUSH2 0x3312 JUMPI PUSH1 0x0 DUP1 REVERT JUMPDEST POP PUSH2 0x331F DUP5 DUP3 DUP6 ADD PUSH2 0x31F6 JUMP JUMPDEST PUSH1 0xA0 DUP4 ADD MSTORE POP PUSH1 0xC0 DUP3 ADD MLOAD PUSH1 0xC0 DUP3 ADD MSTORE PUSH2 0x333B PUSH1 0xE0 DUP4 ADD PUSH2 0x31DB JUMP JUMPDEST PUSH1 0xE0 DUP3 ADD MSTORE PUSH2 0x100 DUP3 DUP2 ADD MLOAD SWAP1 DUP3 ADD MSTORE PUSH2 0x120 DUP1 DUP4 ADD MLOAD SWAP1 DUP3 ADD MSTORE PUSH2 0x140 PUSH2 0x3364 DUP2 DUP5 ADD PUSH2 0x31E6 JUMP JUMPDEST SWAP1 DUP3 ADD MSTORE SWAP3 SWAP2 POP POP JUMP JUMPDEST DUP1 MLOAD PUSH6 0xFFFFFFFFFFFF DUP2 AND DUP2 EQ PUSH2 0x5E5 JUMPI PUSH1 0x0 DUP1 REVERT JUMPDEST PUSH1 0x0 PUSH1 0x20 DUP3 DUP5 SUB SLT ISZERO PUSH2 0x3395 JUMPI DUP1 DUP2 REVERT JUMPDEST DUP2 CALLDATALOAD PUSH2 0x2CC4 DUP2 PUSH2 0x3855 JUMP JUMPDEST PUSH1 0x0 DUP1 PUSH1 0x40 DUP4 DUP6 SUB SLT ISZERO PUSH2 0x33B2 JUMPI DUP1 DUP2 REVERT JUMPDEST DUP3 CALLDATALOAD PUSH2 0x33BD DUP2 PUSH2 0x3855 JUMP JUMPDEST SWAP5 PUSH1 0x20 SWAP4 SWAP1 SWAP4 ADD CALLDATALOAD SWAP4 POP POP POP JUMP JUMPDEST PUSH1 0x0 DUP1 PUSH1 0x0 PUSH1 0x60 DUP5 DUP7 SUB SLT ISZERO PUSH2 0x33DF JUMPI DUP1 DUP2 REVERT JUMPDEST DUP4 CALLDATALOAD PUSH2 0x33EA DUP2 PUSH2 0x3855 JUMP JUMPDEST SWAP6 PUSH1 0x20 DUP6 ADD CALLDATALOAD SWAP6 POP PUSH1 0x40 SWAP1 SWAP5 ADD CALLDATALOAD SWAP4 SWAP3 POP POP POP JUMP JUMPDEST PUSH1 0x0 PUSH1 0x20 DUP3 DUP5 SUB SLT ISZERO PUSH2 0x3410 JUMPI DUP1 DUP2 REVERT JUMPDEST PUSH2 0x2CC4 DUP3 PUSH2 0x31E6 JUMP JUMPDEST PUSH1 0x0 PUSH1 0x20 DUP3 DUP5 SUB SLT ISZERO PUSH2 0x342A JUMPI DUP1 DUP2 REVERT JUMPDEST DUP2 MLOAD PUSH8 0xFFFFFFFFFFFFFFFF DUP1 DUP3 GT ISZERO PUSH2 0x3441 JUMPI DUP3 DUP4 REVERT JUMPDEST SWAP1 DUP4 ADD SWAP1 PUSH1 0xC0 DUP3 DUP7 SUB SLT ISZERO PUSH2 0x3454 JUMPI DUP3 DUP4 REVERT JUMPDEST PUSH1 0x40 MLOAD PUSH1 0xC0 DUP2 ADD DUP2 DUP2 LT DUP4 DUP3 GT OR ISZERO PUSH2 0x3469 JUMPI INVALID JUMPDEST PUSH1 0x40 MSTORE DUP3 MLOAD DUP3 DUP2 GT ISZERO PUSH2 0x347A JUMPI DUP5 DUP6 REVERT JUMPDEST PUSH2 0x3486 DUP8 DUP3 DUP7 ADD PUSH2 0x327C JUMP JUMPDEST DUP3 MSTORE POP PUSH1 0x20 DUP4 ADD MLOAD PUSH1 0x20 DUP3 ADD MSTORE PUSH2 0x349F PUSH1 0x40 DUP5 ADD PUSH2 0x31E6 JUMP JUMPDEST PUSH1 0x40 DUP3 ADD MSTORE PUSH2 0x34B0 PUSH1 0x60 DUP5 ADD PUSH2 0x31DB JUMP JUMPDEST PUSH1 0x60 DUP3 ADD MSTORE PUSH2 0x34C1 PUSH1 0x80 DUP5 ADD PUSH2 0x31DB JUMP JUMPDEST PUSH1 0x80 DUP3 ADD MSTORE PUSH2 0x34D2 PUSH1 0xA0 DUP5 ADD PUSH2 0x31DB JUMP JUMPDEST PUSH1 0xA0 DUP3 ADD MSTORE SWAP6 SWAP5 POP POP POP POP POP JUMP JUMPDEST PUSH1 0x0 PUSH1 0x80 DUP3 DUP5 SUB SLT ISZERO PUSH2 0x34F1 JUMPI DUP1 DUP2 REVERT JUMPDEST PUSH1 0x40 MLOAD PUSH1 0x80 DUP2 ADD DUP2 DUP2 LT PUSH8 0xFFFFFFFFFFFFFFFF DUP3 GT OR ISZERO PUSH2 0x350E JUMPI INVALID JUMPDEST PUSH1 0x40 MSTORE DUP3 MLOAD PUSH2 0x351C DUP2 PUSH2 0x3855 JUMP JUMPDEST DUP2 MSTORE PUSH1 0x20 DUP4 DUP2 ADD MLOAD SWAP1 DUP3 ADD MSTORE PUSH1 0x40 DUP4 ADD MLOAD PUSH2 0x3536 DUP2 PUSH2 0x3855 JUMP JUMPDEST PUSH1 0x40 DUP3 ADD MSTORE PUSH1 0x60 DUP4 ADD MLOAD PUSH2 0x3549 DUP2 PUSH2 0x3855 JUMP JUMPDEST PUSH1 0x60 DUP3 ADD MSTORE SWAP4 SWAP3 POP POP POP JUMP JUMPDEST PUSH1 0x0 PUSH1 0x20 DUP3 DUP5 SUB SLT ISZERO PUSH2 0x3566 JUMPI DUP1 DUP2 REVERT JUMPDEST DUP2 MLOAD PUSH8 0xFFFFFFFFFFFFFFFF DUP1 DUP3 GT ISZERO PUSH2 0x357D JUMPI DUP3 DUP4 REVERT JUMPDEST SWAP1 DUP4 ADD SWAP1 PUSH1 0xA0 DUP3 DUP7 SUB SLT ISZERO PUSH2 0x3590 JUMPI DUP3 DUP4 REVERT JUMPDEST PUSH1 0x40 MLOAD PUSH1 0xA0 DUP2 ADD DUP2 DUP2 LT DUP4 DUP3 GT OR ISZERO PUSH2 0x35A5 JUMPI INVALID JUMPDEST PUSH1 0x40 MSTORE DUP3 MLOAD DUP2 MSTORE PUSH1 0x20 DUP4 ADD MLOAD DUP3 DUP2 GT ISZERO PUSH2 0x35BD JUMPI DUP5 DUP6 REVERT JUMPDEST PUSH2 0x35C9 DUP8 DUP3 DUP7 ADD PUSH2 0x31F6 JUMP JUMPDEST PUSH1 0x20 DUP4 ADD MSTORE POP PUSH2 0x35DB PUSH1 0x40 DUP5 ADD PUSH2 0x31DB JUMP JUMPDEST PUSH1 0x40 DUP3 ADD MSTORE PUSH1 0x60 DUP4 ADD MLOAD PUSH1 0x60 DUP3 ADD MSTORE PUSH2 0x35F6 PUSH1 0x80 DUP5 ADD PUSH2 0x31E6 JUMP JUMPDEST PUSH1 0x80 DUP3 ADD MSTORE SWAP6 SWAP5 POP POP POP POP POP JUMP JUMPDEST PUSH1 0x0 PUSH1 0x20 DUP3 DUP5 SUB SLT ISZERO PUSH2 0x3615 JUMPI DUP1 DUP2 REVERT JUMPDEST DUP2 CALLDATALOAD PUSH2 0xFFFF DUP2 AND DUP2 EQ PUSH2 0x2CC4 JUMPI DUP2 DUP3 REVERT JUMPDEST PUSH1 0x0 PUSH1 0x20 DUP3 DUP5 SUB SLT ISZERO PUSH2 0x3637 JUMPI DUP1 DUP2 REVERT JUMPDEST POP CALLDATALOAD SWAP2 SWAP1 POP JUMP JUMPDEST PUSH1 0x0 PUSH1 0x20 DUP3 DUP5 SUB SLT ISZERO PUSH2 0x364F JUMPI DUP1 DUP2 REVERT JUMPDEST POP MLOAD SWAP2 SWAP1 POP JUMP JUMPDEST PUSH1 0x1 PUSH1 0x1 PUSH1 0xA0 SHL SUB AND SWAP1 MSTORE JUMP JUMPDEST ISZERO ISZERO SWAP1 MSTORE JUMP JUMPDEST PUSH1 0x1 PUSH1 0x1 PUSH1 0xA0 SHL SUB SWAP2 SWAP1 SWAP2 AND DUP2 MSTORE PUSH1 0x20 ADD SWAP1 JUMP JUMPDEST PUSH1 0x1 PUSH1 0x1 PUSH1 0xA0 SHL SUB SWAP5 DUP6 AND DUP2 MSTORE SWAP3 DUP5 AND PUSH1 0x20 DUP5 ADD MSTORE SWAP3 AND PUSH1 0x40 DUP3 ADD MSTORE PUSH1 0x60 DUP2 ADD SWAP2 SWAP1 SWAP2 MSTORE PUSH1 0x80 ADD SWAP1 JUMP JUMPDEST PUSH1 0x1 PUSH1 0x1 PUSH1 0xA0 SHL SUB SWAP7 DUP8 AND DUP2 MSTORE SWAP5 DUP7 AND PUSH1 0x20 DUP7 ADD MSTORE SWAP3 DUP6 AND PUSH1 0x40 DUP6 ADD MSTORE PUSH1 0x60 DUP5 ADD SWAP2 SWAP1 SWAP2 MSTORE SWAP1 SWAP3 AND PUSH1 0x80 DUP3 ADD MSTORE PUSH1 0xA0 DUP2 ADD SWAP2 SWAP1 SWAP2 MSTORE PUSH1 0xC0 ADD SWAP1 JUMP JUMPDEST PUSH1 0x1 PUSH1 0x1 PUSH1 0xA0 SHL SUB SWAP4 DUP5 AND DUP2 MSTORE SWAP2 SWAP1 SWAP3 AND PUSH1 0x20 DUP3 ADD MSTORE PUSH1 0x40 DUP2 ADD SWAP2 SWAP1 SWAP2 MSTORE PUSH1 0x60 ADD SWAP1 JUMP JUMPDEST PUSH1 0x1 PUSH1 0x1 PUSH1 0xA0 SHL SUB SWAP6 DUP7 AND DUP2 MSTORE SWAP4 DUP6 AND PUSH1 0x20 DUP6 ADD MSTORE PUSH1 0x40 DUP5 ADD SWAP3 SWAP1 SWAP3 MSTORE SWAP1 SWAP3 AND PUSH1 0x60 DUP3 ADD MSTORE PUSH1 0x80 DUP2 ADD SWAP2 SWAP1 SWAP2 MSTORE PUSH1 0xA0 ADD SWAP1 JUMP JUMPDEST SWAP1 ISZERO ISZERO DUP2 MSTORE PUSH1 0x20 ADD SWAP1 JUMP JUMPDEST PUSH1 0x0 PUSH2 0x1E0 DUP3 ADD SWAP1 POP DUP3 MLOAD DUP3 MSTORE PUSH1 0x20 DUP4 ADD MLOAD PUSH1 0x20 DUP4 ADD MSTORE PUSH1 0x40 DUP4 ADD MLOAD PUSH2 0x376D PUSH1 0x40 DUP5 ADD DUP3 PUSH2 0x3656 JUMP JUMPDEST POP PUSH1 0x60 DUP4 ADD MLOAD PUSH2 0x3780 PUSH1 0x60 DUP5 ADD DUP3 PUSH2 0x3663 JUMP JUMPDEST POP PUSH1 0x80 DUP4 ADD MLOAD PUSH1 0x80 DUP4 ADD MSTORE PUSH1 0xA0 DUP4 ADD MLOAD PUSH1 0xA0 DUP4 ADD MSTORE PUSH1 0xC0 DUP4 ADD MLOAD PUSH2 0x37A7 PUSH1 0xC0 DUP5 ADD DUP3 PUSH2 0x3656 JUMP JUMPDEST POP PUSH1 0xE0 DUP4 ADD MLOAD PUSH2 0x37BA PUSH1 0xE0 DUP5 ADD DUP3 PUSH2 0x3656 JUMP JUMPDEST POP PUSH2 0x100 DUP4 DUP2 ADD MLOAD SWAP1 DUP4 ADD MSTORE PUSH2 0x120 DUP1 DUP5 ADD MLOAD SWAP1 DUP4 ADD MSTORE PUSH2 0x140 DUP1 DUP5 ADD MLOAD SWAP1 DUP4 ADD MSTORE PUSH2 0x160 DUP1 DUP5 ADD MLOAD SWAP1 DUP4 ADD MSTORE PUSH2 0x180 DUP1 DUP5 ADD MLOAD PUSH2 0x37FA DUP3 DUP6 ADD DUP3 PUSH2 0x3656 JUMP JUMPDEST POP POP PUSH2 0x1A0 DUP4 DUP2 ADD MLOAD SWAP1 DUP4 ADD MSTORE PUSH2 0x1C0 SWAP3 DUP4 ADD MLOAD SWAP3 SWAP1 SWAP2 ADD SWAP2 SWAP1 SWAP2 MSTORE SWAP1 JUMP JUMPDEST PUSH2 0xFFFF SWAP2 SWAP1 SWAP2 AND DUP2 MSTORE PUSH1 0x20 ADD SWAP1 JUMP JUMPDEST SWAP1 DUP2 MSTORE PUSH1 0x20 ADD SWAP1 JUMP JUMPDEST PUSH1 0x40 MLOAD DUP2 DUP2 ADD PUSH8 0xFFFFFFFFFFFFFFFF DUP2 GT DUP3 DUP3 LT OR ISZERO PUSH2 0x384D JUMPI INVALID JUMPDEST PUSH1 0x40 MSTORE SWAP2 SWAP1 POP JUMP JUMPDEST PUSH1 0x1 PUSH1 0x1 PUSH1 0xA0 SHL SUB DUP2 AND DUP2 EQ PUSH2 0x386A JUMPI PUSH1 0x0 DUP1 REVERT JUMPDEST POP JUMP INVALID 0x4F PUSH24 0x6E61626C653A206E6577206F776E65722069732074686520 PUSH27 0x65726F2061646472657373536166654D6174683A206D756C746970 PUSH13 0x69636174696F6E206F76657266 PUSH13 0x6F774F776E61626C653A206361 PUSH13 0x6C6572206973206E6F74207468 PUSH6 0x206F776E6572 MSTORE8 PUSH2 0x6665 GASLIMIT MSTORE NUMBER ORIGIN ADDRESS GASPRICE KECCAK256 GASLIMIT MSTORE NUMBER ORIGIN ADDRESS KECCAK256 PUSH16 0x7065726174696F6E20646964206E6F74 KECCAK256 PUSH20 0x756363656564A26469706673582212208EA5DAB8 0xEC 0xDA PUSH23 0x8699BA182C02A19F311C7F104255D9B32E5DBA0EDAC97F 0xE5 0xA8 PUSH5 0x736F6C6343 STOP SMOD DIV STOP CALLER "
		},
		"gasEstimates": {
			"creation": {
				"codeDepositCost": "2928800",
				"executionCost": "infinite",
				"totalCost": "infinite"
			},
			"external": {
				"USDT()": "1159",
				"addcollateral(address,uint256)": "infinite",
				"base1e18()": "1140",
				"calculateClaimAmount(address,uint256)": "infinite",
				"calculateRedeemcollateral(address,uint256)": "infinite",
				"calculateRedeemcover(address,uint256)": "infinite",
				"calculatecollateralAmount(address,uint256)": "infinite",
				"calculatecoverAmount(address,uint256)": "infinite",
				"getRedeemFee(address)": "2293",
				"getcollateralList()": "1073",
				"getcollateralListData(uint256)": "2915",
				"getcollateralTotal(address)": "1394",
				"getproductCovers(address)": "infinite",
				"getredeemFeeDenominator()": "1162",
				"getredeemFeeNumerator()": "1140",
				"initializeOwner()": "23461",
				"ismFactory()": "1114",
				"owner()": "1116",
				"redeemClaim(address,uint256,uint256)": "infinite",
				"redeemCollateral(address,uint256)": "infinite",
				"redeemFeeDenominator()": "1130",
				"redeemFeeNumerator()": "1131",
				"redeemUnClaim(address,uint256)": "infinite",
				"setredeemFeeDenominator(uint16)": "infinite",
				"setredeemFeeNumerator(uint16)": "infinite",
				"takeRedeemFee(address)": "infinite",
				"transferOwnership(address)": "infinite"
			}
		},
		"methodIdentifiers": {
			"USDT()": "c54e44eb",
			"addcollateral(address,uint256)": "1d402c37",
			"base1e18()": "430a4fbf",
			"calculateClaimAmount(address,uint256)": "4b4a0d2a",
			"calculateRedeemcollateral(address,uint256)": "be9418e3",
			"calculateRedeemcover(address,uint256)": "61515793",
			"calculatecollateralAmount(address,uint256)": "55cbe3b4",
			"calculatecoverAmount(address,uint256)": "d2be9f1c",
			"getRedeemFee(address)": "64e0bf6c",
			"getcollateralList()": "abc14ca7",
			"getcollateralListData(uint256)": "4bdb9eef",
			"getcollateralTotal(address)": "a52f9d8a",
			"getproductCovers(address)": "8d398204",
			"getredeemFeeDenominator()": "b3b4250f",
			"getredeemFeeNumerator()": "b17e15c7",
			"initializeOwner()": "5f53837f",
			"ismFactory()": "cfe0008b",
			"owner()": "8da5cb5b",
			"redeemClaim(address,uint256,uint256)": "7861e652",
			"redeemCollateral(address,uint256)": "9acd81b3",
			"redeemFeeDenominator()": "c12e90e9",
			"redeemFeeNumerator()": "0db60f37",
			"redeemUnClaim(address,uint256)": "af49fcab",
			"setredeemFeeDenominator(uint16)": "0bd2411c",
			"setredeemFeeNumerator(uint16)": "ff66a772",
			"takeRedeemFee(address)": "06cb68d1",
			"transferOwnership(address)": "f2fde38b"
		}
	},
	"abi": [
		{
			"inputs": [
				{
					"internalType": "contract ISMFactory",
					"name": "_ISMFactory",
					"type": "address"
				}
			],
			"stateMutability": "nonpayable",
			"type": "constructor"
		},
		{
			"anonymous": false,
			"inputs": [
				{
					"indexed": false,
					"internalType": "address",
					"name": "who",
					"type": "address"
				},
				{
					"indexed": false,
					"internalType": "address",
					"name": "productAddress",
					"type": "address"
				},
				{
					"indexed": false,
					"internalType": "address",
					"name": "collateral",
					"type": "address"
				},
				{
					"indexed": false,
					"internalType": "uint256",
					"name": "amount",
					"type": "uint256"
				}
			],
			"name": "Addcollateral",
			"type": "event"
		},
		{
			"anonymous": false,
			"inputs": [
				{
					"indexed": true,
					"internalType": "address",
					"name": "previousOwner",
					"type": "address"
				},
				{
					"indexed": true,
					"internalType": "address",
					"name": "newOwner",
					"type": "address"
				}
			],
			"name": "OwnershipTransferCompleted",
			"type": "event"
		},
		{
			"anonymous": false,
			"inputs": [
				{
					"indexed": true,
					"internalType": "address",
					"name": "previousOwner",
					"type": "address"
				},
				{
					"indexed": true,
					"internalType": "address",
					"name": "newOwner",
					"type": "address"
				}
			],
			"name": "OwnershipTransferInitiated",
			"type": "event"
		},
		{
			"anonymous": false,
			"inputs": [
				{
					"indexed": false,
					"internalType": "address",
					"name": "who",
					"type": "address"
				},
				{
					"indexed": false,
					"internalType": "address",
					"name": "productAddress",
					"type": "address"
				},
				{
					"indexed": false,
					"internalType": "address",
					"name": "CLAIMTOKEN",
					"type": "address"
				},
				{
					"indexed": false,
					"internalType": "uint256",
					"name": "amount",
					"type": "uint256"
				},
				{
					"indexed": false,
					"internalType": "address",
					"name": "coverAddress",
					"type": "address"
				},
				{
					"indexed": false,
					"internalType": "uint256",
					"name": "coverAmount",
					"type": "uint256"
				}
			],
			"name": "RedeemClaim",
			"type": "event"
		},
		{
			"anonymous": false,
			"inputs": [
				{
					"indexed": false,
					"internalType": "address",
					"name": "who",
					"type": "address"
				},
				{
					"indexed": false,
					"internalType": "address",
					"name": "productAddres",
					"type": "address"
				},
				{
					"indexed": false,
					"internalType": "uint256",
					"name": "amount",
					"type": "uint256"
				},
				{
					"indexed": false,
					"internalType": "address",
					"name": "collateral",
					"type": "address"
				},
				{
					"indexed": false,
					"internalType": "uint256",
					"name": "collateralAmount",
					"type": "uint256"
				}
			],
			"name": "RedeemCollateral",
			"type": "event"
		},
		{
			"anonymous": false,
			"inputs": [
				{
					"indexed": false,
					"internalType": "address",
					"name": "who",
					"type": "address"
				},
				{
					"indexed": false,
					"internalType": "address",
					"name": "productAddress",
					"type": "address"
				},
				{
					"indexed": false,
					"internalType": "address",
					"name": "collateral",
					"type": "address"
				},
				{
					"indexed": false,
					"internalType": "uint256",
					"name": "collateralAmount",
					"type": "uint256"
				},
				{
					"indexed": false,
					"internalType": "address",
					"name": "coverAddress",
					"type": "address"
				},
				{
					"indexed": false,
					"internalType": "uint256",
					"name": "coverAmount",
					"type": "uint256"
				}
			],
			"name": "RedeemUnClaim",
			"type": "event"
		},
		{
			"anonymous": false,
			"inputs": [
				{
					"indexed": false,
					"internalType": "address",
					"name": "who",
					"type": "address"
				},
				{
					"indexed": false,
					"internalType": "address",
					"name": "collateral",
					"type": "address"
				},
				{
					"indexed": false,
					"internalType": "uint256",
					"name": "redeemFee",
					"type": "uint256"
				}
			],
			"name": "TakeRedeemFee",
			"type": "event"
		},
		{
			"inputs": [],
			"name": "USDT",
			"outputs": [
				{
					"internalType": "contract IERC20",
					"name": "",
					"type": "address"
				}
			],
			"stateMutability": "view",
			"type": "function"
		},
		{
			"inputs": [
				{
					"internalType": "address",
					"name": "productAddress",
					"type": "address"
				},
				{
					"internalType": "uint256",
					"name": "amount",
					"type": "uint256"
				}
			],
			"name": "addcollateral",
			"outputs": [
				{
					"internalType": "bool",
					"name": "",
					"type": "bool"
				}
			],
			"stateMutability": "nonpayable",
			"type": "function"
		},
		{
			"inputs": [],
			"name": "base1e18",
			"outputs": [
				{
					"internalType": "uint256",
					"name": "",
					"type": "uint256"
				}
			],
			"stateMutability": "view",
			"type": "function"
		},
		{
			"inputs": [
				{
					"internalType": "address",
					"name": "productAddress",
					"type": "address"
				},
				{
					"internalType": "uint256",
					"name": "amount",
					"type": "uint256"
				}
			],
			"name": "calculateClaimAmount",
			"outputs": [
				{
					"internalType": "uint256",
					"name": "",
					"type": "uint256"
				}
			],
			"stateMutability": "view",
			"type": "function"
		},
		{
			"inputs": [
				{
					"internalType": "address",
					"name": "productAddress",
					"type": "address"
				},
				{
					"internalType": "uint256",
					"name": "amount",
					"type": "uint256"
				}
			],
			"name": "calculateRedeemcollateral",
			"outputs": [
				{
					"internalType": "uint256",
					"name": "",
					"type": "uint256"
				}
			],
			"stateMutability": "view",
			"type": "function"
		},
		{
			"inputs": [
				{
					"internalType": "address",
					"name": "productAddress",
					"type": "address"
				},
				{
					"internalType": "uint256",
					"name": "amount",
					"type": "uint256"
				}
			],
			"name": "calculateRedeemcover",
			"outputs": [
				{
					"internalType": "uint256",
					"name": "",
					"type": "uint256"
				}
			],
			"stateMutability": "view",
			"type": "function"
		},
		{
			"inputs": [
				{
					"internalType": "address",
					"name": "productAddress",
					"type": "address"
				},
				{
					"internalType": "uint256",
					"name": "amount",
					"type": "uint256"
				}
			],
			"name": "calculatecollateralAmount",
			"outputs": [
				{
					"internalType": "uint256",
					"name": "",
					"type": "uint256"
				}
			],
			"stateMutability": "view",
			"type": "function"
		},
		{
			"inputs": [
				{
					"internalType": "address",
					"name": "productAddress",
					"type": "address"
				},
				{
					"internalType": "uint256",
					"name": "amount",
					"type": "uint256"
				}
			],
			"name": "calculatecoverAmount",
			"outputs": [
				{
					"internalType": "uint256",
					"name": "",
					"type": "uint256"
				}
			],
			"stateMutability": "view",
			"type": "function"
		},
		{
			"inputs": [
				{
					"internalType": "address",
					"name": "collateral",
					"type": "address"
				}
			],
			"name": "getRedeemFee",
			"outputs": [
				{
					"internalType": "uint256",
					"name": "",
					"type": "uint256"
				}
			],
			"stateMutability": "view",
			"type": "function"
		},
		{
			"inputs": [],
			"name": "getcollateralList",
			"outputs": [
				{
					"internalType": "uint256",
					"name": "",
					"type": "uint256"
				}
			],
			"stateMutability": "view",
			"type": "function"
		},
		{
			"inputs": [
				{
					"internalType": "uint256",
					"name": "index",
					"type": "uint256"
				}
			],
			"name": "getcollateralListData",
			"outputs": [
				{
					"internalType": "address",
					"name": "",
					"type": "address"
				}
			],
			"stateMutability": "view",
			"type": "function"
		},
		{
			"inputs": [
				{
					"internalType": "address",
					"name": "collateral",
					"type": "address"
				}
			],
			"name": "getcollateralTotal",
			"outputs": [
				{
					"internalType": "uint256",
					"name": "",
					"type": "uint256"
				}
			],
			"stateMutability": "view",
			"type": "function"
		},
		{
			"inputs": [
				{
					"internalType": "address",
					"name": "productAddress",
					"type": "address"
				}
			],
			"name": "getproductCovers",
			"outputs": [
				{
					"components": [
						{
							"internalType": "uint256",
							"name": "timestamps",
							"type": "uint256"
						},
						{
							"internalType": "uint256",
							"name": "redeemFee",
							"type": "uint256"
						},
						{
							"internalType": "address",
							"name": "collateral",
							"type": "address"
						},
						{
							"internalType": "bool",
							"name": "usdtType",
							"type": "bool"
						},
						{
							"internalType": "uint256",
							"name": "allCollateralAmount",
							"type": "uint256"
						},
						{
							"internalType": "uint256",
							"name": "collateralAmount",
							"type": "uint256"
						},
						{
							"internalType": "address",
							"name": "CLAIMTOKEN",
							"type": "address"
						},
						{
							"internalType": "address",
							"name": "UNCLAIMTOKEN",
							"type": "address"
						},
						{
							"internalType": "uint256",
							"name": "allClaimAmount",
							"type": "uint256"
						},
						{
							"internalType": "uint256",
							"name": "claimAmount",
							"type": "uint256"
						},
						{
							"internalType": "uint256",
							"name": "allUnclaimAmount",
							"type": "uint256"
						},
						{
							"internalType": "uint256",
							"name": "unclaimAmount",
							"type": "uint256"
						},
						{
							"internalType": "address",
							"name": "coverAddress",
							"type": "address"
						},
						{
							"internalType": "uint256",
							"name": "allCoverAmount",
							"type": "uint256"
						},
						{
							"internalType": "uint256",
							"name": "coverAmount",
							"type": "uint256"
						}
					],
					"internalType": "struct ISMContract.productCoverInfo",
					"name": "",
					"type": "tuple"
				}
			],
			"stateMutability": "view",
			"type": "function"
		},
		{
			"inputs": [],
			"name": "getredeemFeeDenominator",
			"outputs": [
				{
					"internalType": "uint256",
					"name": "",
					"type": "uint256"
				}
			],
			"stateMutability": "view",
			"type": "function"
		},
		{
			"inputs": [],
			"name": "getredeemFeeNumerator",
			"outputs": [
				{
					"internalType": "uint256",
					"name": "",
					"type": "uint256"
				}
			],
			"stateMutability": "view",
			"type": "function"
		},
		{
			"inputs": [],
			"name": "initializeOwner",
			"outputs": [],
			"stateMutability": "nonpayable",
			"type": "function"
		},
		{
			"inputs": [],
			"name": "ismFactory",
			"outputs": [
				{
					"internalType": "contract ISMFactory",
					"name": "",
					"type": "address"
				}
			],
			"stateMutability": "view",
			"type": "function"
		},
		{
			"inputs": [],
			"name": "owner",
			"outputs": [
				{
					"internalType": "address",
					"name": "",
					"type": "address"
				}
			],
			"stateMutability": "view",
			"type": "function"
		},
		{
			"inputs": [
				{
					"internalType": "address",
					"name": "productAddress",
					"type": "address"
				},
				{
					"internalType": "uint256",
					"name": "amount",
					"type": "uint256"
				},
				{
					"internalType": "uint256",
					"name": "coverAmount",
					"type": "uint256"
				}
			],
			"name": "redeemClaim",
			"outputs": [
				{
					"internalType": "bool",
					"name": "",
					"type": "bool"
				}
			],
			"stateMutability": "payable",
			"type": "function"
		},
		{
			"inputs": [
				{
					"internalType": "address",
					"name": "productAddress",
					"type": "address"
				},
				{
					"internalType": "uint256",
					"name": "amount",
					"type": "uint256"
				}
			],
			"name": "redeemCollateral",
			"outputs": [
				{
					"internalType": "bool",
					"name": "",
					"type": "bool"
				}
			],
			"stateMutability": "nonpayable",
			"type": "function"
		},
		{
			"inputs": [],
			"name": "redeemFeeDenominator",
			"outputs": [
				{
					"internalType": "uint16",
					"name": "",
					"type": "uint16"
				}
			],
			"stateMutability": "view",
			"type": "function"
		},
		{
			"inputs": [],
			"name": "redeemFeeNumerator",
			"outputs": [
				{
					"internalType": "uint16",
					"name": "",
					"type": "uint16"
				}
			],
			"stateMutability": "view",
			"type": "function"
		},
		{
			"inputs": [
				{
					"internalType": "address",
					"name": "productAddress",
					"type": "address"
				},
				{
					"internalType": "uint256",
					"name": "amount",
					"type": "uint256"
				}
			],
			"name": "redeemUnClaim",
			"outputs": [
				{
					"internalType": "bool",
					"name": "",
					"type": "bool"
				}
			],
			"stateMutability": "nonpayable",
			"type": "function"
		},
		{
			"inputs": [
				{
					"internalType": "uint16",
					"name": "_number",
					"type": "uint16"
				}
			],
			"name": "setredeemFeeDenominator",
			"outputs": [
				{
					"internalType": "bool",
					"name": "",
					"type": "bool"
				}
			],
			"stateMutability": "nonpayable",
			"type": "function"
		},
		{
			"inputs": [
				{
					"internalType": "uint16",
					"name": "_number",
					"type": "uint16"
				}
			],
			"name": "setredeemFeeNumerator",
			"outputs": [
				{
					"internalType": "bool",
					"name": "",
					"type": "bool"
				}
			],
			"stateMutability": "nonpayable",
			"type": "function"
		},
		{
			"inputs": [
				{
					"internalType": "address",
					"name": "collateral",
					"type": "address"
				}
			],
			"name": "takeRedeemFee",
			"outputs": [
				{
					"internalType": "bool",
					"name": "",
					"type": "bool"
				}
			],
			"stateMutability": "nonpayable",
			"type": "function"
		},
		{
			"inputs": [
				{
					"internalType": "address",
					"name": "newOwner",
					"type": "address"
				}
			],
			"name": "transferOwnership",
			"outputs": [],
			"stateMutability": "nonpayable",
			"type": "function"
		}
	]
}