{
	"data": {
		"bytecode": {
			"linkReferences": {},
			"object": "60806040523480156200001157600080fd5b5060405162003408380380620034088339810160408190526200003491620000c6565b6200003e62000064565b600180546001600160a01b0319166001600160a01b0392909216919091179055620000f6565b6000546001600160a01b0316156200007b57600080fd5b600080546001600160a01b03191633178082556040516001600160a01b039190911691907fe9a5158ac7353c7c7322ececc080bc8e89334efa5795b6e21e40eb266b0003d6908290a3565b600060208284031215620000d8578081fd5b81516001600160a01b0381168114620000ef578182fd5b9392505050565b61330280620001066000396000f3fe608060405234801561001057600080fd5b50600436106101c45760003560e01c806385444053116100f9578063c18958ea11610097578063eb1969ea11610071578063eb1969ea146103c4578063ec026651146103d7578063f044c3be146103df578063f2fde38b146103f2576101c4565b8063c18958ea14610389578063c4228d8114610391578063cfcfdd36146103b1576101c4565b80638e74a7de116100d35780638e74a7de1461033d578063a4f6fc5e14610350578063af12171114610363578063be6cc6d414610376576101c4565b8063854440531461030d5780638ae847661461032d5780638da5cb5b14610335576101c4565b80632a133502116101665780635f53837f116101405780635f53837f146102cc5780636d34d7da146102d457806372b8dc04146102e75780637ec0d1b4146102fa576101c4565b80632a13350214610284578063494bedad146102a45780635660d937146102b9576101c4565b8063157d129f116101a2578063157d129f1461021c5780631f1c8744146102315780631fd57f9b1461025157806328947a3414610271576101c4565b806309c2202c146101c95780630a6d41b0146101de5780631010c8e314610209575b600080fd5b6101dc6101d73660046122fb565b610405565b005b6101f16101ec3660046122fb565b6104c2565b60405161020093929190612a83565b60405180910390f35b6101dc6102173660046122fb565b61065d565b61022461070d565b6040516102009190612757565b61024461023f3660046122fb565b61071c565b604051610200919061283c565b61026461025f3660046122fb565b610966565b60405161020091906129e7565b61024461027f366004612315565b6109db565b6102976102923660046122fb565b610ab3565b6040516102009190612a20565b6102ac610bbc565b6040516102009190612a7a565b6102246102c7366004612386565b610bc2565b6101dc610c26565b6102246102e2366004612599565b610c87565b6102246102f536600461243e565b610cc0565b610244610308366004612350565b610ec0565b61032061031b3660046122fb565b610f7c565b604051610200919061285a565b6102ac61107b565b610224611081565b6102ac61034b3660046122fb565b611090565b61022461035e366004612483565b6110cc565b610224610371366004612599565b611537565b6102ac6103843660046122fb565b611555565b610224611570565b6103a461039f3660046122fb565b61157f565b60405161020091906128b2565b6102446103bf366004612350565b6117cc565b6102446103d23660046122fb565b611877565b610224611a6a565b6102446103ed366004612315565b611a79565b6101dc6104003660046122fb565b611af4565b6000546001600160a01b03163314610464576040805162461bcd60e51b815260206004820181905260248201527f4f776e61626c653a2063616c6c6572206973206e6f7420746865206f776e6572604482015290519081900360640190fd5b600c80546001600160a01b0319166001600160a01b0383811691909117909155600b546040517fa972ff75f612d5d532ffe868ec309a25ffdaf8eeed49af1ff66f86b7ef789456926104b7921690612757565b60405180910390a150565b60006060806001600160a01b0384166104da57600080fd5b6001600160a01b0384166000908152600660209081526040918290206004810154600191820180548551600261010095831615959095026000190190911693909304601f810185900485028401850190955284835265ffffffffffff9091169360609383018282801561058e5780601f106105635761010080835404028352916020019161058e565b820191906000526020600020905b81548152906001019060200180831161057157829003601f168201915b505050506001600160a01b0388811660009081526006602090815260408083205490931682526002808252918390206001908101805485516101009382161593909302600019011693909304601f810183900483028201830190945283815294955060609493509091908301828280156106495780601f1061061e57610100808354040283529160200191610649565b820191906000526020600020905b81548152906001019060200180831161062c57829003601f168201915b50969b959a50929850939650505050505050565b6000546001600160a01b031633146106bc576040805162461bcd60e51b815260206004820181905260248201527f4f776e61626c653a2063616c6c6572206973206e6f7420746865206f776e6572604482015290519081900360640190fd5b600b80546001600160a01b0319166001600160a01b0383811691909117918290556040517f631ecf940a29a2bd0c05d2453a93afce6c1f2055bbbc97c1c8ed894703bcac52926104b7921690612757565b6001546001600160a01b031681565b600c546000906001600160a01b0316331480610750575061073b611081565b6001600160a01b0316336001600160a01b0316145b61075957600080fd5b6001600160a01b03821661076c57600080fd5b6001600160a01b03828116600090815260056020526040902060010154161561079457600080fd5b61079c61206e565b6040518060a00160405280428152602001846001600160a01b03168152602001846001600160a01b03166395d89b416040518163ffffffff1660e01b815260040160006040518083038186803b1580156107f557600080fd5b505afa158015610809573d6000803e3d6000fd5b505050506040513d6000823e601f3d908101601f1916820160405261083191908101906123cb565b8152602001846001600160a01b031663313ce5676040518163ffffffff1660e01b815260040160206040518083038186803b15801561086f57600080fd5b505afa158015610883573d6000803e3d6000fd5b505050506040513d601f19601f820116820180604052508101906108a791906125b1565b60ff16815260006020918201819052600a805460018181019092557fc65a7bb8d6351c1cf70c95a316cc6a92839c986682d98bc35f958f4883f9d2a80180546001600160a01b03808a166001600160a01b031992831681179093559184526005855260409384902086518155868601519381018054949093169390911692909217905590830151805193945084939192610949926002850192909101906120a6565b506060820151600382015560809091015160049091015550919050565b61096e612132565b6001600160a01b03821661098157600080fd5b506001600160a01b038082166000908152600960209081526040918290208251608081018452815485168152600182015492810192909252600281015484169282019290925260039091015490911660608201525b919050565b600b546000906001600160a01b031633146109f557600080fd5b6001600160a01b038416610a0857600080fd5b6001600160a01b038316610a1b57600080fd5b60008211610a2857600080fd5b6040516340c10f1960e01b81526001600160a01b038516906340c10f1990610a569086908690600401612823565b602060405180830381600087803b158015610a7057600080fd5b505af1158015610a84573d6000803e3d6000fd5b505050506040513d601f19601f82011682018060405250810190610aa891906123af565b506001949350505050565b610abb612159565b6001600160a01b038216610ace57600080fd5b6001600160a01b038216600090815260026020818152604092839020835160a081018552815481526001808301805487519281161561010002600019011695909504601f8101859004850282018501909652858152909491938584019391929091830182828015610b805780601f10610b5557610100808354040283529160200191610b80565b820191906000526020600020905b815481529060010190602001808311610b6357829003601f168201915b505050918352505060028201546001600160a01b031660208201526003820154604082015260049091015460ff16151560609091015292915050565b600a5490565b6001600160a01b0382166000908152600860205260408120548210610be657600080fd5b6001600160a01b0383166000908152600860205260409020805483908110610c0a57fe5b6000918252602090912001546001600160a01b03169392505050565b6000546001600160a01b031615610c3c57600080fd5b600080546001600160a01b03191633178082556040516001600160a01b039190911691907fe9a5158ac7353c7c7322ececc080bc8e89334efa5795b6e21e40eb266b0003d6908290a3565b600a546000908210610c9857600080fd5b600a8281548110610ca557fe5b6000918252602090912001546001600160a01b031692915050565b600c546000906001600160a01b0316331480610cf45750610cdf611081565b6001600160a01b0316336001600160a01b0316145b610cfd57600080fd5b60006001600160a01b0316600385604051610d189190612639565b908152604051908190036020019020546001600160a01b031614610d3b57600080fd5b6000610d4685611bf3565b9050610d50612159565b506040805160a08101825242815260208082018881526001600160a01b038089168486015260608401889052600160808501819052908616600090815260028452949094208351815590518051939485949293610db2939185019201906120a6565b506040828101516002830180546001600160a01b0319166001600160a01b0390921691909117905560608301516003808401919091556080909301516004909201805460ff19169215159290921790915551839190610e12908990612639565b90815260405190819003602001812080546001600160a01b039384166001600160a01b031991821617909155600480546001810182556000919091527f8a35acfbc15ff81a39ae7d344fd709f28e8600b4aa8c65c6b64bfe7fe36bd19b01805493861693909116929092179091557f24274b76776395e43c450bc3a14d6735e185a9fc58a14861da6718e3dc67bd3090610eaf908490889061276b565b60405180910390a150949350505050565b600c546000906001600160a01b0316331480610ef45750610edf611081565b6001600160a01b0316336001600160a01b0316145b610efd57600080fd5b6001600160a01b038316610f1057600080fd5b6001600160a01b03831660009081526002602052604090819020600401805460ff1916841515179055517fa49fa0f4ba79245b51089bff0cb5f84bc8d07f88f5d4f552fb893bc04f875ea990610f6b903390869086906127d3565b60405180910390a150600192915050565b610f8461206e565b6001600160a01b038216610f9757600080fd5b6001600160a01b03828116600090815260056020908152604091829020825160a08101845281548152600180830154909516818401526002808301805486516101009882161598909802600019011691909104601f81018590048502870185018652808752919592948601939091908301828280156110575780601f1061102c57610100808354040283529160200191611057565b820191906000526020600020905b81548152906001019060200180831161103a57829003601f168201915b50505050508152602001600382015481526020016004820154815250509050919050565b60045490565b6000546001600160a01b031690565b60006001600160a01b0382166110a557600080fd5b506001600160a01b031660009081526006602052604090206004015465ffffffffffff1690565b600c546000906001600160a01b031633148061110057506110eb611081565b6001600160a01b0316336001600160a01b0316145b61110957600080fd5b81516001600160a01b031661111d57600080fd5b60006001600160a01b03166007836020015160405161113c9190612639565b908152604051908190036020019020546001600160a01b03161461115f57600080fd5b81516001600160a01b031660009081526002602052604090205461118257600080fd5b81516001600160a01b031660009081526002602052604090206004015460ff166111ab57600080fd5b60e08201516001600160a01b03908116600081815260056020526040902060010154909116146111da57600080fd5b60006111e98360200151611c30565b90506111f3612193565b506040805160c081018252848152426020808301919091526001828401526001600160a01b0380851660608085019190915260006080850181905260a08501819052885183168152600280855286822081015486519085169088015289518416825284528590206003015484519091015260e0870151845163313ce56760e01b81529451939491169263313ce56792600480840193919291829003018186803b15801561129f57600080fd5b505afa1580156112b3573d6000803e3d6000fd5b505050506040513d601f19601f820116820180604052508101906112d791906125b1565b815160ff91909116610120909101526001600160a01b0382811660009081526006602090815260409091208351805182546001600160a01b031916941693909317815582820151805185949293849261133992600185019291909101906120a6565b5060408201516002820180546001600160a01b0319166001600160a01b0390921691909117905560608201516003820155608082015160048201805465ffffffffffff191665ffffffffffff90921691909117905560a082015180516113a99160058401916020909101906120a6565b5060c0820151600682015560e0820151600780830180546001600160a01b03199081166001600160a01b0394851617909155610100808601516008860155610120860151600986015561014090950151600a909401805460ff19908116951515959095179055602087810151600b880155604080890151600c8901805460608c0151981691151591909117610100600160a81b031916968616909702959095179095556080870151600d87018054831691851691909117905560a090960151600e909501805490961694909116939093179093558601519151849261148d91612639565b90815260408051918290036020908101832080546001600160a01b039586166001600160a01b03199182161790915588518516600090815260088352928320805460018101825590845291909220018054938616939091169290921790915584517f9f8ba93a59c170693aa21c78e910a0f31672d28230a25f09aa4b373a8b233b889161151d9133918690612785565b60405180910390a161152e82611877565b50909392505050565b600454600090821061154857600080fd5b60048281548110610ca557fe5b6001600160a01b031660009081526008602052604090205490565b600c546001600160a01b031681565b611587612193565b6001600160a01b03821661159a57600080fd5b6001600160a01b03828116600090815260066020908152604091829020825161022081018452815490941660c08501908152600180830180548651600261010094831615949094026000190190911692909204601f8101869004860283018601909652858252929486949293869360e087019392908301828280156116605780601f1061163557610100808354040283529160200191611660565b820191906000526020600020905b81548152906001019060200180831161164357829003601f168201915b50505091835250506002828101546001600160a01b03166020808401919091526003840154604080850191909152600485015465ffffffffffff16606085015260058501805482516101006001831615026000190190911694909404601f8101849004840285018401909252818452608090940193918301828280156117275780601f106116fc57610100808354040283529160200191611727565b820191906000526020600020905b81548152906001019060200180831161170a57829003601f168201915b5050509183525050600682015460208083019190915260078301546001600160a01b0390811660408085019190915260088501546060808601919091526009860154608080870191909152600a9096015460ff908116151560a096870152968852600b89015493880193909352600c880154958616151590870152610100909404841690850152600d850154831691840191909152600e909301541691015292915050565b600c546000906001600160a01b031633148061180057506117eb611081565b6001600160a01b0316336001600160a01b0316145b61180957600080fd5b6001600160a01b03831661181c57600080fd5b6001600160a01b03831660009081526006602052604090819020600c01805460ff1916841515179055517f699ca8c3d74640dee53df76e71689e18befe9ecfddb53638a54526df787d877790610f6b903390869086906127d3565b600c546000906001600160a01b03163314806118ab5750611896611081565b6001600160a01b0316336001600160a01b0316145b6118b457600080fd5b6001600160a01b0382166118c757600080fd5b6001600160a01b0382166000908152600660205260409020600c015460ff166118ef57600080fd5b6001600160a01b03828116600090815260096020526040902054161561191457600080fd5b600061193d8360405180604001604052806005815260200164434c41494d60d81b815250611c4a565b9050600061196a8460405180604001604052806007815260200166554e434c41494d60c81b815250611c4a565b9050611974612132565b50604080516080810182526001600160a01b038087168083524260208085019182528784168587018181528886166060880181815260009687526009855289872089518154908a166001600160a01b0319918216178255965160018201559251600284018054918a1691881691909117905551600390920180549290971691851691909117909555600690915291859020600d810180548316909317909255600e9091018054909116909117905590517f83e59bb5882a866a5914ae28cec9938541da93086c0a9ff9092ea9b6af7dc8f490611a579033908890879087906127a8565b60405180910390a1506001949350505050565b600b546001600160a01b031681565b600b546000906001600160a01b03163314611a9357600080fd5b6001600160a01b038416611aa657600080fd5b6001600160a01b038316611ab957600080fd5b60008211611ac657600080fd5b604051632770a7eb60e21b81526001600160a01b03851690639dc29fac90610a569086908690600401612823565b6000546001600160a01b03163314611b53576040805162461bcd60e51b815260206004820181905260248201527f4f776e61626c653a2063616c6c6572206973206e6f7420746865206f776e6572604482015290519081900360640190fd5b6001600160a01b038116611b985760405162461bcd60e51b81526004018080602001828103825260268152602001806132a76026913960400191505060405180910390fd5b600080546040516001600160a01b03808516939216917fb150023a879fd806e3599b6ca8ee3b60f0e360ab3846d128d67ebce1a391639a91a3600080546001600160a01b0319166001600160a01b0392909216919091179055565b60008082604051602001611c079190612639565b604051602081830303815290604052805190602001209050611c298130611ebe565b9392505050565b60008082424344604051602001611c079493929190612691565b6001600160a01b0382166000908152600660209081526040808320600190810180548351600293821615610100026000190190911692909204601f810185900485028301850190935282825260609391929091830182828015611cee5780601f10611cc357610100808354040283529160200191611cee565b820191906000526020600020905b815481529060010190602001808311611cd157829003601f168201915b50505050509050606060405180602001611d07906121cf565b601f1982820381018352601f9091011660408181526001600160a01b0388166000908152600660208181529282206004810154918101549596509194611d629460019093019365ffffffffffff9092169290918a91016126c0565b6040516020818303038152906040528051906020012090506000611d8860008385611f02565b905060607ff62d188800b594eda156757988de1a22139f89fbcb7bfc58e96e79b054b5cb478588604051602001611dc0929190612655565b60408051601f1981840301815290829052611ddd91602401612847565b60408051601f198184030181529181526020820180516001600160e01b03166001600160e01b031990941693909317909252600154915163cf7a1d7760e01b81529092506001600160a01b038085169263cf7a1d7792611e48929190911690309086906004016127f7565b600060405180830381600087803b158015611e6257600080fd5b505af1158015611e76573d6000803e3d6000fd5b505050507f62ec089d6c661de888091dd8fd0550160f8a27e337ad3f847b01a94d7064207f3383604051611eab92919061276b565b60405180910390a1509695505050505050565b6000606060405180602001611ed2906121cf565b6020820181038252601f19601f820116604052509050611efa84828051906020012085612013565b949350505050565b60008084471015611f5a576040805162461bcd60e51b815260206004820152601d60248201527f437265617465323a20696e73756666696369656e742062616c616e6365000000604482015290519081900360640190fd5b8251611fad576040805162461bcd60e51b815260206004820181905260248201527f437265617465323a2062797465636f6465206c656e677468206973207a65726f604482015290519081900360640190fd5b8383516020850187f590506001600160a01b038116611efa576040805162461bcd60e51b815260206004820152601960248201527f437265617465323a204661696c6564206f6e206465706c6f7900000000000000604482015290519081900360640190fd5b604080516001600160f81b031960208083019190915260609390931b6bffffffffffffffffffffffff191660218201526035810194909452605580850193909352805180850390930183526075909301909252805191012090565b6040518060a001604052806000815260200160006001600160a01b031681526020016060815260200160008152602001600081525090565b828054600181600116156101000203166002900490600052602060002090601f0160209004810192826120dc5760008555612122565b82601f106120f557805160ff1916838001178555612122565b82800160010185558215612122579182015b82811115612122578251825591602001919060010190612107565b5061212e9291506121dc565b5090565b60408051608081018252600080825260208201819052918101829052606081019190915290565b6040518060a00160405280600081526020016060815260200160006001600160a01b03168152602001600081526020016000151581525090565b6040518060c001604052806121a66121f1565b815260006020820181905260408201819052606082018190526080820181905260a09091015290565b61076780612b4083390190565b5b8082111561212e57600081556001016121dd565b60405180610160016040528060006001600160a01b031681526020016060815260200160006001600160a01b0316815260200160008152602001600065ffffffffffff168152602001606081526020016000815260200160006001600160a01b0316815260200160008152602001600081526020016000151581525090565b80356001600160a01b03811681146109d657600080fd5b80356109d681612b2e565b600082601f8301126122a2578081fd5b81356122b56122b082612adc565b612ab8565b91508082528360208285010111156122cc57600080fd5b8060208401602084013760009082016020015292915050565b803565ffffffffffff811681146109d657600080fd5b60006020828403121561230c578081fd5b611c2982612270565b600080600060608486031215612329578182fd5b61233284612270565b925061234060208501612270565b9150604084013590509250925092565b60008060408385031215612362578182fd5b61236b83612270565b9150602083013561237b81612b2e565b809150509250929050565b60008060408385031215612398578182fd5b6123a183612270565b946020939093013593505050565b6000602082840312156123c0578081fd5b8151611c2981612b2e565b6000602082840312156123dc578081fd5b815167ffffffffffffffff8111156123f2578182fd5b8201601f81018413612402578182fd5b80516124106122b082612adc565b818152856020838501011115612424578384fd5b612435826020830160208601612afe565b95945050505050565b600080600060608486031215612452578283fd5b833567ffffffffffffffff811115612468578384fd5b61247486828701612292565b93505061234060208501612270565b600060208284031215612494578081fd5b813567ffffffffffffffff808211156124ab578283fd5b81840191506101608083870312156124c1578384fd5b6124ca81612ab8565b90506124d583612270565b81526020830135828111156124e8578485fd5b6124f487828601612292565b60208301525061250660408401612270565b604082015260608301356060820152612521608084016122e5565b608082015260a083013582811115612537578485fd5b61254387828601612292565b60a08301525060c083013560c082015261255f60e08401612270565b60e082015261010083810135908201526101208084013590820152610140915061258a828401612287565b91810191909152949350505050565b6000602082840312156125aa578081fd5b5035919050565b6000602082840312156125c2578081fd5b815160ff81168114611c29578182fd5b6001600160a01b03169052565b15159052565b600081518084526125fd816020860160208601612afe565b601f01601f19169290920160200192915050565b60008151612623818560208601612afe565b9290920192915050565b65ffffffffffff169052565b6000825161264b818460208701612afe565b9190910192915050565b60008351612667818460208801612afe565b605f60f81b9083019081528351612685816001840160208801612afe565b01600101949350505050565b600085516126a3818460208a01612afe565b919091019384525060208301919091526040820152606001919050565b60008086546001808216600081146126df57600181146126f657612725565b60ff198316865260028304607f1686019350612725565b600283048a86526020808720875b8381101561271d5781548a820152908501908201612704565b505050860193505b50505065ffffffffffff60d01b8660d01b16815284600682015261274c6026820185612611565b979650505050505050565b6001600160a01b0391909116815260200190565b6001600160a01b0392831681529116602082015260400190565b6001600160a01b0393841681529183166020830152909116604082015260600190565b6001600160a01b03948516815292841660208401529083166040830152909116606082015260800190565b6001600160a01b039384168152919092166020820152901515604082015260600190565b6001600160a01b03848116825283166020820152606060408201819052600090612435908301846125e5565b6001600160a01b03929092168252602082015260400190565b901515815260200190565b600060208252611c2960208301846125e5565b6000602082528251602083015260018060a01b036020840151166040830152604083015160a0606084015261289260c08401826125e5565b905060608401516080840152608084015160a08401528091505092915050565b600060208252825160c060208401526128cf60e0840182516125d2565b602081015161016061010081818701526128ed6102408701846125e5565b92506040840151610120612903818901836125d2565b6060860151915061014082818a015260808701519250612925858a018461262d565b60a087015189870360df19016101808b0152945061294386866125e5565b955060c08701516101a08a015260e087015194506129656101c08a01866125d2565b928601516101e08901528501516102008801525090920151915061298d6102208501836125df565b60208501516040850152604085015191506129ab60608501836125df565b606085015191506129bf60808501836125d2565b608085015191506129d360a08501836125d2565b60a08501519150611efa60c08501836125d2565b81516001600160a01b03908116825260208084015190830152604080840151821690830152606092830151169181019190915260800190565b60006020825282516020830152602083015160a06040840152612a4660c08401826125e5565b905060018060a01b036040850151166060840152606084015160808401526080840151151560a08401528091505092915050565b90815260200190565b600084825260606020830152612a9c60608301856125e5565b8281036040840152612aae81856125e5565b9695505050505050565b60405181810167ffffffffffffffff81118282101715612ad457fe5b604052919050565b600067ffffffffffffffff821115612af057fe5b50601f01601f191660200190565b60005b83811015612b19578181015183820152602001612b01565b83811115612b28576000848401525b50505050565b8015158114612b3c57600080fd5b5056fe608060405234801561001057600080fd5b50610747806100206000396000f3fe6080604052600436106100595760003560e01c80633659cfe6146100705780634f1ef286146100a35780635c60da1b146101235780638f28397014610154578063cf7a1d7714610187578063f851a4401461024657610068565b366100685761006661025b565b005b61006661025b565b34801561007c57600080fd5b506100666004803603602081101561009357600080fd5b50356001600160a01b0316610275565b610066600480360360408110156100b957600080fd5b6001600160a01b0382351691908101906040810160208201356401000000008111156100e457600080fd5b8201836020820111156100f657600080fd5b8035906020019184600183028401116401000000008311171561011857600080fd5b5090925090506102af565b34801561012f57600080fd5b5061013861035c565b604080516001600160a01b039092168252519081900360200190f35b34801561016057600080fd5b506100666004803603602081101561017757600080fd5b50356001600160a01b0316610399565b6100666004803603606081101561019d57600080fd5b6001600160a01b0382358116926020810135909116918101906060810160408201356401000000008111156101d157600080fd5b8201836020820111156101e357600080fd5b8035906020019184600183028401116401000000008311171561020557600080fd5b91908080601f016020809104026020016040519081016040528093929190818152602001838380828437600092019190915250929550610453945050505050565b34801561025257600080fd5b5061013861053a565b610263610273565b61027361026e610565565b61058a565b565b61027d6105ae565b6001600160a01b0316336001600160a01b031614156102a45761029f816105d3565b6102ac565b6102ac61025b565b50565b6102b76105ae565b6001600160a01b0316336001600160a01b0316141561034f576102d9836105d3565b6000836001600160a01b031683836040518083838082843760405192019450600093509091505080830381855af49150503d8060008114610336576040519150601f19603f3d011682016040523d82523d6000602084013e61033b565b606091505b505090508061034957600080fd5b50610357565b61035761025b565b505050565b60006103666105ae565b6001600160a01b0316336001600160a01b0316141561038e57610387610565565b9050610396565b61039661025b565b90565b6103a16105ae565b6001600160a01b0316336001600160a01b031614156102a4576001600160a01b0381166103ff5760405162461bcd60e51b81526004018080602001828103825260368152602001806106a66036913960400191505060405180910390fd5b7f7e644d79422f17c01e4894b5f4f588d331ebfa28653d42ae832dc59e38c9798f6104286105ae565b604080516001600160a01b03928316815291841660208301528051918290030190a161029f81610613565b600061045d610565565b6001600160a01b03161461047057600080fd5b61047983610637565b805115610531576000836001600160a01b0316826040518082805190602001908083835b602083106104bc5780518252601f19909201916020918201910161049d565b6001836020036101000a038019825116818451168082178552505050505050905001915050600060405180830381855af49150503d806000811461051c576040519150601f19603f3d011682016040523d82523d6000602084013e610521565b606091505b505090508061052f57600080fd5b505b61035782610613565b60006105446105ae565b6001600160a01b0316336001600160a01b0316141561038e576103876105ae565b7f360894a13ba1a3210667c828492db98dca3e2076cc3735a920a3ca505d382bbc5490565b3660008037600080366000845af43d6000803e8080156105a9573d6000f35b3d6000fd5b7fb53127684a568b3173ae13b9f8a6016e243e63b6e8ee1178d6a717850b5d61035490565b6105dc81610637565b6040516001600160a01b038216907fbc7cd75a20ee27fd9adebab32041f755214dbc6bffa90cc0225b39da2e5c2d3b90600090a250565b7fb53127684a568b3173ae13b9f8a6016e243e63b6e8ee1178d6a717850b5d610355565b6106408161069f565b61067b5760405162461bcd60e51b81526004018080602001828103825260368152602001806106dc6036913960400191505060405180910390fd5b7f360894a13ba1a3210667c828492db98dca3e2076cc3735a920a3ca505d382bbc55565b3b15159056fe43616e6e6f74206368616e6765207468652061646d696e206f6620612070726f787920746f20746865207a65726f20616464726573735570677261646561626c6550726f78793a206e657720696d706c656d656e746174696f6e206973206e6f74206120636f6e7472616374a264697066735822122070ae27bc6c675c66b87c1d4103f3b8e1c44dea96364114617fd0fb11e1f884d464736f6c634300070400334f776e61626c653a206e6577206f776e657220697320746865207a65726f2061646472657373a26469706673582212201e797d271f4c1cc7428d42c979dedd0efbbc26965423ff41c93f7c861f2afa1a64736f6c63430007040033",
			"opcodes": "PUSH1 0x80 PUSH1 0x40 MSTORE CALLVALUE DUP1 ISZERO PUSH3 0x11 JUMPI PUSH1 0x0 DUP1 REVERT JUMPDEST POP PUSH1 0x40 MLOAD PUSH3 0x3408 CODESIZE SUB DUP1 PUSH3 0x3408 DUP4 CODECOPY DUP2 ADD PUSH1 0x40 DUP2 SWAP1 MSTORE PUSH3 0x34 SWAP2 PUSH3 0xC6 JUMP JUMPDEST PUSH3 0x3E PUSH3 0x64 JUMP JUMPDEST PUSH1 0x1 DUP1 SLOAD PUSH1 0x1 PUSH1 0x1 PUSH1 0xA0 SHL SUB NOT AND PUSH1 0x1 PUSH1 0x1 PUSH1 0xA0 SHL SUB SWAP3 SWAP1 SWAP3 AND SWAP2 SWAP1 SWAP2 OR SWAP1 SSTORE PUSH3 0xF6 JUMP JUMPDEST PUSH1 0x0 SLOAD PUSH1 0x1 PUSH1 0x1 PUSH1 0xA0 SHL SUB AND ISZERO PUSH3 0x7B JUMPI PUSH1 0x0 DUP1 REVERT JUMPDEST PUSH1 0x0 DUP1 SLOAD PUSH1 0x1 PUSH1 0x1 PUSH1 0xA0 SHL SUB NOT AND CALLER OR DUP1 DUP3 SSTORE PUSH1 0x40 MLOAD PUSH1 0x1 PUSH1 0x1 PUSH1 0xA0 SHL SUB SWAP2 SWAP1 SWAP2 AND SWAP2 SWAP1 PUSH32 0xE9A5158AC7353C7C7322ECECC080BC8E89334EFA5795B6E21E40EB266B0003D6 SWAP1 DUP3 SWAP1 LOG3 JUMP JUMPDEST PUSH1 0x0 PUSH1 0x20 DUP3 DUP5 SUB SLT ISZERO PUSH3 0xD8 JUMPI DUP1 DUP2 REVERT JUMPDEST DUP2 MLOAD PUSH1 0x1 PUSH1 0x1 PUSH1 0xA0 SHL SUB DUP2 AND DUP2 EQ PUSH3 0xEF JUMPI DUP2 DUP3 REVERT JUMPDEST SWAP4 SWAP3 POP POP POP JUMP JUMPDEST PUSH2 0x3302 DUP1 PUSH3 0x106 PUSH1 0x0 CODECOPY PUSH1 0x0 RETURN INVALID PUSH1 0x80 PUSH1 0x40 MSTORE CALLVALUE DUP1 ISZERO PUSH2 0x10 JUMPI PUSH1 0x0 DUP1 REVERT JUMPDEST POP PUSH1 0x4 CALLDATASIZE LT PUSH2 0x1C4 JUMPI PUSH1 0x0 CALLDATALOAD PUSH1 0xE0 SHR DUP1 PUSH4 0x85444053 GT PUSH2 0xF9 JUMPI DUP1 PUSH4 0xC18958EA GT PUSH2 0x97 JUMPI DUP1 PUSH4 0xEB1969EA GT PUSH2 0x71 JUMPI DUP1 PUSH4 0xEB1969EA EQ PUSH2 0x3C4 JUMPI DUP1 PUSH4 0xEC026651 EQ PUSH2 0x3D7 JUMPI DUP1 PUSH4 0xF044C3BE EQ PUSH2 0x3DF JUMPI DUP1 PUSH4 0xF2FDE38B EQ PUSH2 0x3F2 JUMPI PUSH2 0x1C4 JUMP JUMPDEST DUP1 PUSH4 0xC18958EA EQ PUSH2 0x389 JUMPI DUP1 PUSH4 0xC4228D81 EQ PUSH2 0x391 JUMPI DUP1 PUSH4 0xCFCFDD36 EQ PUSH2 0x3B1 JUMPI PUSH2 0x1C4 JUMP JUMPDEST DUP1 PUSH4 0x8E74A7DE GT PUSH2 0xD3 JUMPI DUP1 PUSH4 0x8E74A7DE EQ PUSH2 0x33D JUMPI DUP1 PUSH4 0xA4F6FC5E EQ PUSH2 0x350 JUMPI DUP1 PUSH4 0xAF121711 EQ PUSH2 0x363 JUMPI DUP1 PUSH4 0xBE6CC6D4 EQ PUSH2 0x376 JUMPI PUSH2 0x1C4 JUMP JUMPDEST DUP1 PUSH4 0x85444053 EQ PUSH2 0x30D JUMPI DUP1 PUSH4 0x8AE84766 EQ PUSH2 0x32D JUMPI DUP1 PUSH4 0x8DA5CB5B EQ PUSH2 0x335 JUMPI PUSH2 0x1C4 JUMP JUMPDEST DUP1 PUSH4 0x2A133502 GT PUSH2 0x166 JUMPI DUP1 PUSH4 0x5F53837F GT PUSH2 0x140 JUMPI DUP1 PUSH4 0x5F53837F EQ PUSH2 0x2CC JUMPI DUP1 PUSH4 0x6D34D7DA EQ PUSH2 0x2D4 JUMPI DUP1 PUSH4 0x72B8DC04 EQ PUSH2 0x2E7 JUMPI DUP1 PUSH4 0x7EC0D1B4 EQ PUSH2 0x2FA JUMPI PUSH2 0x1C4 JUMP JUMPDEST DUP1 PUSH4 0x2A133502 EQ PUSH2 0x284 JUMPI DUP1 PUSH4 0x494BEDAD EQ PUSH2 0x2A4 JUMPI DUP1 PUSH4 0x5660D937 EQ PUSH2 0x2B9 JUMPI PUSH2 0x1C4 JUMP JUMPDEST DUP1 PUSH4 0x157D129F GT PUSH2 0x1A2 JUMPI DUP1 PUSH4 0x157D129F EQ PUSH2 0x21C JUMPI DUP1 PUSH4 0x1F1C8744 EQ PUSH2 0x231 JUMPI DUP1 PUSH4 0x1FD57F9B EQ PUSH2 0x251 JUMPI DUP1 PUSH4 0x28947A34 EQ PUSH2 0x271 JUMPI PUSH2 0x1C4 JUMP JUMPDEST DUP1 PUSH4 0x9C2202C EQ PUSH2 0x1C9 JUMPI DUP1 PUSH4 0xA6D41B0 EQ PUSH2 0x1DE JUMPI DUP1 PUSH4 0x1010C8E3 EQ PUSH2 0x209 JUMPI JUMPDEST PUSH1 0x0 DUP1 REVERT JUMPDEST PUSH2 0x1DC PUSH2 0x1D7 CALLDATASIZE PUSH1 0x4 PUSH2 0x22FB JUMP JUMPDEST PUSH2 0x405 JUMP JUMPDEST STOP JUMPDEST PUSH2 0x1F1 PUSH2 0x1EC CALLDATASIZE PUSH1 0x4 PUSH2 0x22FB JUMP JUMPDEST PUSH2 0x4C2 JUMP JUMPDEST PUSH1 0x40 MLOAD PUSH2 0x200 SWAP4 SWAP3 SWAP2 SWAP1 PUSH2 0x2A83 JUMP JUMPDEST PUSH1 0x40 MLOAD DUP1 SWAP2 SUB SWAP1 RETURN JUMPDEST PUSH2 0x1DC PUSH2 0x217 CALLDATASIZE PUSH1 0x4 PUSH2 0x22FB JUMP JUMPDEST PUSH2 0x65D JUMP JUMPDEST PUSH2 0x224 PUSH2 0x70D JUMP JUMPDEST PUSH1 0x40 MLOAD PUSH2 0x200 SWAP2 SWAP1 PUSH2 0x2757 JUMP JUMPDEST PUSH2 0x244 PUSH2 0x23F CALLDATASIZE PUSH1 0x4 PUSH2 0x22FB JUMP JUMPDEST PUSH2 0x71C JUMP JUMPDEST PUSH1 0x40 MLOAD PUSH2 0x200 SWAP2 SWAP1 PUSH2 0x283C JUMP JUMPDEST PUSH2 0x264 PUSH2 0x25F CALLDATASIZE PUSH1 0x4 PUSH2 0x22FB JUMP JUMPDEST PUSH2 0x966 JUMP JUMPDEST PUSH1 0x40 MLOAD PUSH2 0x200 SWAP2 SWAP1 PUSH2 0x29E7 JUMP JUMPDEST PUSH2 0x244 PUSH2 0x27F CALLDATASIZE PUSH1 0x4 PUSH2 0x2315 JUMP JUMPDEST PUSH2 0x9DB JUMP JUMPDEST PUSH2 0x297 PUSH2 0x292 CALLDATASIZE PUSH1 0x4 PUSH2 0x22FB JUMP JUMPDEST PUSH2 0xAB3 JUMP JUMPDEST PUSH1 0x40 MLOAD PUSH2 0x200 SWAP2 SWAP1 PUSH2 0x2A20 JUMP JUMPDEST PUSH2 0x2AC PUSH2 0xBBC JUMP JUMPDEST PUSH1 0x40 MLOAD PUSH2 0x200 SWAP2 SWAP1 PUSH2 0x2A7A JUMP JUMPDEST PUSH2 0x224 PUSH2 0x2C7 CALLDATASIZE PUSH1 0x4 PUSH2 0x2386 JUMP JUMPDEST PUSH2 0xBC2 JUMP JUMPDEST PUSH2 0x1DC PUSH2 0xC26 JUMP JUMPDEST PUSH2 0x224 PUSH2 0x2E2 CALLDATASIZE PUSH1 0x4 PUSH2 0x2599 JUMP JUMPDEST PUSH2 0xC87 JUMP JUMPDEST PUSH2 0x224 PUSH2 0x2F5 CALLDATASIZE PUSH1 0x4 PUSH2 0x243E JUMP JUMPDEST PUSH2 0xCC0 JUMP JUMPDEST PUSH2 0x244 PUSH2 0x308 CALLDATASIZE PUSH1 0x4 PUSH2 0x2350 JUMP JUMPDEST PUSH2 0xEC0 JUMP JUMPDEST PUSH2 0x320 PUSH2 0x31B CALLDATASIZE PUSH1 0x4 PUSH2 0x22FB JUMP JUMPDEST PUSH2 0xF7C JUMP JUMPDEST PUSH1 0x40 MLOAD PUSH2 0x200 SWAP2 SWAP1 PUSH2 0x285A JUMP JUMPDEST PUSH2 0x2AC PUSH2 0x107B JUMP JUMPDEST PUSH2 0x224 PUSH2 0x1081 JUMP JUMPDEST PUSH2 0x2AC PUSH2 0x34B CALLDATASIZE PUSH1 0x4 PUSH2 0x22FB JUMP JUMPDEST PUSH2 0x1090 JUMP JUMPDEST PUSH2 0x224 PUSH2 0x35E CALLDATASIZE PUSH1 0x4 PUSH2 0x2483 JUMP JUMPDEST PUSH2 0x10CC JUMP JUMPDEST PUSH2 0x224 PUSH2 0x371 CALLDATASIZE PUSH1 0x4 PUSH2 0x2599 JUMP JUMPDEST PUSH2 0x1537 JUMP JUMPDEST PUSH2 0x2AC PUSH2 0x384 CALLDATASIZE PUSH1 0x4 PUSH2 0x22FB JUMP JUMPDEST PUSH2 0x1555 JUMP JUMPDEST PUSH2 0x224 PUSH2 0x1570 JUMP JUMPDEST PUSH2 0x3A4 PUSH2 0x39F CALLDATASIZE PUSH1 0x4 PUSH2 0x22FB JUMP JUMPDEST PUSH2 0x157F JUMP JUMPDEST PUSH1 0x40 MLOAD PUSH2 0x200 SWAP2 SWAP1 PUSH2 0x28B2 JUMP JUMPDEST PUSH2 0x244 PUSH2 0x3BF CALLDATASIZE PUSH1 0x4 PUSH2 0x2350 JUMP JUMPDEST PUSH2 0x17CC JUMP JUMPDEST PUSH2 0x244 PUSH2 0x3D2 CALLDATASIZE PUSH1 0x4 PUSH2 0x22FB JUMP JUMPDEST PUSH2 0x1877 JUMP JUMPDEST PUSH2 0x224 PUSH2 0x1A6A JUMP JUMPDEST PUSH2 0x244 PUSH2 0x3ED CALLDATASIZE PUSH1 0x4 PUSH2 0x2315 JUMP JUMPDEST PUSH2 0x1A79 JUMP JUMPDEST PUSH2 0x1DC PUSH2 0x400 CALLDATASIZE PUSH1 0x4 PUSH2 0x22FB JUMP JUMPDEST PUSH2 0x1AF4 JUMP JUMPDEST PUSH1 0x0 SLOAD PUSH1 0x1 PUSH1 0x1 PUSH1 0xA0 SHL SUB AND CALLER EQ PUSH2 0x464 JUMPI PUSH1 0x40 DUP1 MLOAD PUSH3 0x461BCD PUSH1 0xE5 SHL DUP2 MSTORE PUSH1 0x20 PUSH1 0x4 DUP3 ADD DUP2 SWAP1 MSTORE PUSH1 0x24 DUP3 ADD MSTORE PUSH32 0x4F776E61626C653A2063616C6C6572206973206E6F7420746865206F776E6572 PUSH1 0x44 DUP3 ADD MSTORE SWAP1 MLOAD SWAP1 DUP2 SWAP1 SUB PUSH1 0x64 ADD SWAP1 REVERT JUMPDEST PUSH1 0xC DUP1 SLOAD PUSH1 0x1 PUSH1 0x1 PUSH1 0xA0 SHL SUB NOT AND PUSH1 0x1 PUSH1 0x1 PUSH1 0xA0 SHL SUB DUP4 DUP2 AND SWAP2 SWAP1 SWAP2 OR SWAP1 SWAP2 SSTORE PUSH1 0xB SLOAD PUSH1 0x40 MLOAD PUSH32 0xA972FF75F612D5D532FFE868EC309A25FFDAF8EEED49AF1FF66F86B7EF789456 SWAP3 PUSH2 0x4B7 SWAP3 AND SWAP1 PUSH2 0x2757 JUMP JUMPDEST PUSH1 0x40 MLOAD DUP1 SWAP2 SUB SWAP1 LOG1 POP JUMP JUMPDEST PUSH1 0x0 PUSH1 0x60 DUP1 PUSH1 0x1 PUSH1 0x1 PUSH1 0xA0 SHL SUB DUP5 AND PUSH2 0x4DA JUMPI PUSH1 0x0 DUP1 REVERT JUMPDEST PUSH1 0x1 PUSH1 0x1 PUSH1 0xA0 SHL SUB DUP5 AND PUSH1 0x0 SWAP1 DUP2 MSTORE PUSH1 0x6 PUSH1 0x20 SWAP1 DUP2 MSTORE PUSH1 0x40 SWAP2 DUP3 SWAP1 KECCAK256 PUSH1 0x4 DUP2 ADD SLOAD PUSH1 0x1 SWAP2 DUP3 ADD DUP1 SLOAD DUP6 MLOAD PUSH1 0x2 PUSH2 0x100 SWAP6 DUP4 AND ISZERO SWAP6 SWAP1 SWAP6 MUL PUSH1 0x0 NOT ADD SWAP1 SWAP2 AND SWAP4 SWAP1 SWAP4 DIV PUSH1 0x1F DUP2 ADD DUP6 SWAP1 DIV DUP6 MUL DUP5 ADD DUP6 ADD SWAP1 SWAP6 MSTORE DUP5 DUP4 MSTORE PUSH6 0xFFFFFFFFFFFF SWAP1 SWAP2 AND SWAP4 PUSH1 0x60 SWAP4 DUP4 ADD DUP3 DUP3 DUP1 ISZERO PUSH2 0x58E JUMPI DUP1 PUSH1 0x1F LT PUSH2 0x563 JUMPI PUSH2 0x100 DUP1 DUP4 SLOAD DIV MUL DUP4 MSTORE SWAP2 PUSH1 0x20 ADD SWAP2 PUSH2 0x58E JUMP JUMPDEST DUP3 ADD SWAP2 SWAP1 PUSH1 0x0 MSTORE PUSH1 0x20 PUSH1 0x0 KECCAK256 SWAP1 JUMPDEST DUP2 SLOAD DUP2 MSTORE SWAP1 PUSH1 0x1 ADD SWAP1 PUSH1 0x20 ADD DUP1 DUP4 GT PUSH2 0x571 JUMPI DUP3 SWAP1 SUB PUSH1 0x1F AND DUP3 ADD SWAP2 JUMPDEST POP POP POP POP PUSH1 0x1 PUSH1 0x1 PUSH1 0xA0 SHL SUB DUP9 DUP2 AND PUSH1 0x0 SWAP1 DUP2 MSTORE PUSH1 0x6 PUSH1 0x20 SWAP1 DUP2 MSTORE PUSH1 0x40 DUP1 DUP4 KECCAK256 SLOAD SWAP1 SWAP4 AND DUP3 MSTORE PUSH1 0x2 DUP1 DUP3 MSTORE SWAP2 DUP4 SWAP1 KECCAK256 PUSH1 0x1 SWAP1 DUP2 ADD DUP1 SLOAD DUP6 MLOAD PUSH2 0x100 SWAP4 DUP3 AND ISZERO SWAP4 SWAP1 SWAP4 MUL PUSH1 0x0 NOT ADD AND SWAP4 SWAP1 SWAP4 DIV PUSH1 0x1F DUP2 ADD DUP4 SWAP1 DIV DUP4 MUL DUP3 ADD DUP4 ADD SWAP1 SWAP5 MSTORE DUP4 DUP2 MSTORE SWAP5 SWAP6 POP PUSH1 0x60 SWAP5 SWAP4 POP SWAP1 SWAP2 SWAP1 DUP4 ADD DUP3 DUP3 DUP1 ISZERO PUSH2 0x649 JUMPI DUP1 PUSH1 0x1F LT PUSH2 0x61E JUMPI PUSH2 0x100 DUP1 DUP4 SLOAD DIV MUL DUP4 MSTORE SWAP2 PUSH1 0x20 ADD SWAP2 PUSH2 0x649 JUMP JUMPDEST DUP3 ADD SWAP2 SWAP1 PUSH1 0x0 MSTORE PUSH1 0x20 PUSH1 0x0 KECCAK256 SWAP1 JUMPDEST DUP2 SLOAD DUP2 MSTORE SWAP1 PUSH1 0x1 ADD SWAP1 PUSH1 0x20 ADD DUP1 DUP4 GT PUSH2 0x62C JUMPI DUP3 SWAP1 SUB PUSH1 0x1F AND DUP3 ADD SWAP2 JUMPDEST POP SWAP7 SWAP12 SWAP6 SWAP11 POP SWAP3 SWAP9 POP SWAP4 SWAP7 POP POP POP POP POP POP POP JUMP JUMPDEST PUSH1 0x0 SLOAD PUSH1 0x1 PUSH1 0x1 PUSH1 0xA0 SHL SUB AND CALLER EQ PUSH2 0x6BC JUMPI PUSH1 0x40 DUP1 MLOAD PUSH3 0x461BCD PUSH1 0xE5 SHL DUP2 MSTORE PUSH1 0x20 PUSH1 0x4 DUP3 ADD DUP2 SWAP1 MSTORE PUSH1 0x24 DUP3 ADD MSTORE PUSH32 0x4F776E61626C653A2063616C6C6572206973206E6F7420746865206F776E6572 PUSH1 0x44 DUP3 ADD MSTORE SWAP1 MLOAD SWAP1 DUP2 SWAP1 SUB PUSH1 0x64 ADD SWAP1 REVERT JUMPDEST PUSH1 0xB DUP1 SLOAD PUSH1 0x1 PUSH1 0x1 PUSH1 0xA0 SHL SUB NOT AND PUSH1 0x1 PUSH1 0x1 PUSH1 0xA0 SHL SUB DUP4 DUP2 AND SWAP2 SWAP1 SWAP2 OR SWAP2 DUP3 SWAP1 SSTORE PUSH1 0x40 MLOAD PUSH32 0x631ECF940A29A2BD0C05D2453A93AFCE6C1F2055BBBC97C1C8ED894703BCAC52 SWAP3 PUSH2 0x4B7 SWAP3 AND SWAP1 PUSH2 0x2757 JUMP JUMPDEST PUSH1 0x1 SLOAD PUSH1 0x1 PUSH1 0x1 PUSH1 0xA0 SHL SUB AND DUP2 JUMP JUMPDEST PUSH1 0xC SLOAD PUSH1 0x0 SWAP1 PUSH1 0x1 PUSH1 0x1 PUSH1 0xA0 SHL SUB AND CALLER EQ DUP1 PUSH2 0x750 JUMPI POP PUSH2 0x73B PUSH2 0x1081 JUMP JUMPDEST PUSH1 0x1 PUSH1 0x1 PUSH1 0xA0 SHL SUB AND CALLER PUSH1 0x1 PUSH1 0x1 PUSH1 0xA0 SHL SUB AND EQ JUMPDEST PUSH2 0x759 JUMPI PUSH1 0x0 DUP1 REVERT JUMPDEST PUSH1 0x1 PUSH1 0x1 PUSH1 0xA0 SHL SUB DUP3 AND PUSH2 0x76C JUMPI PUSH1 0x0 DUP1 REVERT JUMPDEST PUSH1 0x1 PUSH1 0x1 PUSH1 0xA0 SHL SUB DUP3 DUP2 AND PUSH1 0x0 SWAP1 DUP2 MSTORE PUSH1 0x5 PUSH1 0x20 MSTORE PUSH1 0x40 SWAP1 KECCAK256 PUSH1 0x1 ADD SLOAD AND ISZERO PUSH2 0x794 JUMPI PUSH1 0x0 DUP1 REVERT JUMPDEST PUSH2 0x79C PUSH2 0x206E JUMP JUMPDEST PUSH1 0x40 MLOAD DUP1 PUSH1 0xA0 ADD PUSH1 0x40 MSTORE DUP1 TIMESTAMP DUP2 MSTORE PUSH1 0x20 ADD DUP5 PUSH1 0x1 PUSH1 0x1 PUSH1 0xA0 SHL SUB AND DUP2 MSTORE PUSH1 0x20 ADD DUP5 PUSH1 0x1 PUSH1 0x1 PUSH1 0xA0 SHL SUB AND PUSH4 0x95D89B41 PUSH1 0x40 MLOAD DUP2 PUSH4 0xFFFFFFFF AND PUSH1 0xE0 SHL DUP2 MSTORE PUSH1 0x4 ADD PUSH1 0x0 PUSH1 0x40 MLOAD DUP1 DUP4 SUB DUP2 DUP7 DUP1 EXTCODESIZE ISZERO DUP1 ISZERO PUSH2 0x7F5 JUMPI PUSH1 0x0 DUP1 REVERT JUMPDEST POP GAS STATICCALL ISZERO DUP1 ISZERO PUSH2 0x809 JUMPI RETURNDATASIZE PUSH1 0x0 DUP1 RETURNDATACOPY RETURNDATASIZE PUSH1 0x0 REVERT JUMPDEST POP POP POP POP PUSH1 0x40 MLOAD RETURNDATASIZE PUSH1 0x0 DUP3 RETURNDATACOPY PUSH1 0x1F RETURNDATASIZE SWAP1 DUP2 ADD PUSH1 0x1F NOT AND DUP3 ADD PUSH1 0x40 MSTORE PUSH2 0x831 SWAP2 SWAP1 DUP2 ADD SWAP1 PUSH2 0x23CB JUMP JUMPDEST DUP2 MSTORE PUSH1 0x20 ADD DUP5 PUSH1 0x1 PUSH1 0x1 PUSH1 0xA0 SHL SUB AND PUSH4 0x313CE567 PUSH1 0x40 MLOAD DUP2 PUSH4 0xFFFFFFFF AND PUSH1 0xE0 SHL DUP2 MSTORE PUSH1 0x4 ADD PUSH1 0x20 PUSH1 0x40 MLOAD DUP1 DUP4 SUB DUP2 DUP7 DUP1 EXTCODESIZE ISZERO DUP1 ISZERO PUSH2 0x86F JUMPI PUSH1 0x0 DUP1 REVERT JUMPDEST POP GAS STATICCALL ISZERO DUP1 ISZERO PUSH2 0x883 JUMPI RETURNDATASIZE PUSH1 0x0 DUP1 RETURNDATACOPY RETURNDATASIZE PUSH1 0x0 REVERT JUMPDEST POP POP POP POP PUSH1 0x40 MLOAD RETURNDATASIZE PUSH1 0x1F NOT PUSH1 0x1F DUP3 ADD AND DUP3 ADD DUP1 PUSH1 0x40 MSTORE POP DUP2 ADD SWAP1 PUSH2 0x8A7 SWAP2 SWAP1 PUSH2 0x25B1 JUMP JUMPDEST PUSH1 0xFF AND DUP2 MSTORE PUSH1 0x0 PUSH1 0x20 SWAP2 DUP3 ADD DUP2 SWAP1 MSTORE PUSH1 0xA DUP1 SLOAD PUSH1 0x1 DUP2 DUP2 ADD SWAP1 SWAP3 SSTORE PUSH32 0xC65A7BB8D6351C1CF70C95A316CC6A92839C986682D98BC35F958F4883F9D2A8 ADD DUP1 SLOAD PUSH1 0x1 PUSH1 0x1 PUSH1 0xA0 SHL SUB DUP1 DUP11 AND PUSH1 0x1 PUSH1 0x1 PUSH1 0xA0 SHL SUB NOT SWAP3 DUP4 AND DUP2 OR SWAP1 SWAP4 SSTORE SWAP2 DUP5 MSTORE PUSH1 0x5 DUP6 MSTORE PUSH1 0x40 SWAP4 DUP5 SWAP1 KECCAK256 DUP7 MLOAD DUP2 SSTORE DUP7 DUP7 ADD MLOAD SWAP4 DUP2 ADD DUP1 SLOAD SWAP5 SWAP1 SWAP4 AND SWAP4 SWAP1 SWAP2 AND SWAP3 SWAP1 SWAP3 OR SWAP1 SSTORE SWAP1 DUP4 ADD MLOAD DUP1 MLOAD SWAP4 SWAP5 POP DUP5 SWAP4 SWAP2 SWAP3 PUSH2 0x949 SWAP3 PUSH1 0x2 DUP6 ADD SWAP3 SWAP1 SWAP2 ADD SWAP1 PUSH2 0x20A6 JUMP JUMPDEST POP PUSH1 0x60 DUP3 ADD MLOAD PUSH1 0x3 DUP3 ADD SSTORE PUSH1 0x80 SWAP1 SWAP2 ADD MLOAD PUSH1 0x4 SWAP1 SWAP2 ADD SSTORE POP SWAP2 SWAP1 POP JUMP JUMPDEST PUSH2 0x96E PUSH2 0x2132 JUMP JUMPDEST PUSH1 0x1 PUSH1 0x1 PUSH1 0xA0 SHL SUB DUP3 AND PUSH2 0x981 JUMPI PUSH1 0x0 DUP1 REVERT JUMPDEST POP PUSH1 0x1 PUSH1 0x1 PUSH1 0xA0 SHL SUB DUP1 DUP3 AND PUSH1 0x0 SWAP1 DUP2 MSTORE PUSH1 0x9 PUSH1 0x20 SWAP1 DUP2 MSTORE PUSH1 0x40 SWAP2 DUP3 SWAP1 KECCAK256 DUP3 MLOAD PUSH1 0x80 DUP2 ADD DUP5 MSTORE DUP2 SLOAD DUP6 AND DUP2 MSTORE PUSH1 0x1 DUP3 ADD SLOAD SWAP3 DUP2 ADD SWAP3 SWAP1 SWAP3 MSTORE PUSH1 0x2 DUP2 ADD SLOAD DUP5 AND SWAP3 DUP3 ADD SWAP3 SWAP1 SWAP3 MSTORE PUSH1 0x3 SWAP1 SWAP2 ADD SLOAD SWAP1 SWAP2 AND PUSH1 0x60 DUP3 ADD MSTORE JUMPDEST SWAP2 SWAP1 POP JUMP JUMPDEST PUSH1 0xB SLOAD PUSH1 0x0 SWAP1 PUSH1 0x1 PUSH1 0x1 PUSH1 0xA0 SHL SUB AND CALLER EQ PUSH2 0x9F5 JUMPI PUSH1 0x0 DUP1 REVERT JUMPDEST PUSH1 0x1 PUSH1 0x1 PUSH1 0xA0 SHL SUB DUP5 AND PUSH2 0xA08 JUMPI PUSH1 0x0 DUP1 REVERT JUMPDEST PUSH1 0x1 PUSH1 0x1 PUSH1 0xA0 SHL SUB DUP4 AND PUSH2 0xA1B JUMPI PUSH1 0x0 DUP1 REVERT JUMPDEST PUSH1 0x0 DUP3 GT PUSH2 0xA28 JUMPI PUSH1 0x0 DUP1 REVERT JUMPDEST PUSH1 0x40 MLOAD PUSH4 0x40C10F19 PUSH1 0xE0 SHL DUP2 MSTORE PUSH1 0x1 PUSH1 0x1 PUSH1 0xA0 SHL SUB DUP6 AND SWAP1 PUSH4 0x40C10F19 SWAP1 PUSH2 0xA56 SWAP1 DUP7 SWAP1 DUP7 SWAP1 PUSH1 0x4 ADD PUSH2 0x2823 JUMP JUMPDEST PUSH1 0x20 PUSH1 0x40 MLOAD DUP1 DUP4 SUB DUP2 PUSH1 0x0 DUP8 DUP1 EXTCODESIZE ISZERO DUP1 ISZERO PUSH2 0xA70 JUMPI PUSH1 0x0 DUP1 REVERT JUMPDEST POP GAS CALL ISZERO DUP1 ISZERO PUSH2 0xA84 JUMPI RETURNDATASIZE PUSH1 0x0 DUP1 RETURNDATACOPY RETURNDATASIZE PUSH1 0x0 REVERT JUMPDEST POP POP POP POP PUSH1 0x40 MLOAD RETURNDATASIZE PUSH1 0x1F NOT PUSH1 0x1F DUP3 ADD AND DUP3 ADD DUP1 PUSH1 0x40 MSTORE POP DUP2 ADD SWAP1 PUSH2 0xAA8 SWAP2 SWAP1 PUSH2 0x23AF JUMP JUMPDEST POP PUSH1 0x1 SWAP5 SWAP4 POP POP POP POP JUMP JUMPDEST PUSH2 0xABB PUSH2 0x2159 JUMP JUMPDEST PUSH1 0x1 PUSH1 0x1 PUSH1 0xA0 SHL SUB DUP3 AND PUSH2 0xACE JUMPI PUSH1 0x0 DUP1 REVERT JUMPDEST PUSH1 0x1 PUSH1 0x1 PUSH1 0xA0 SHL SUB DUP3 AND PUSH1 0x0 SWAP1 DUP2 MSTORE PUSH1 0x2 PUSH1 0x20 DUP2 DUP2 MSTORE PUSH1 0x40 SWAP3 DUP4 SWAP1 KECCAK256 DUP4 MLOAD PUSH1 0xA0 DUP2 ADD DUP6 MSTORE DUP2 SLOAD DUP2 MSTORE PUSH1 0x1 DUP1 DUP4 ADD DUP1 SLOAD DUP8 MLOAD SWAP3 DUP2 AND ISZERO PUSH2 0x100 MUL PUSH1 0x0 NOT ADD AND SWAP6 SWAP1 SWAP6 DIV PUSH1 0x1F DUP2 ADD DUP6 SWAP1 DIV DUP6 MUL DUP3 ADD DUP6 ADD SWAP1 SWAP7 MSTORE DUP6 DUP2 MSTORE SWAP1 SWAP5 SWAP2 SWAP4 DUP6 DUP5 ADD SWAP4 SWAP2 SWAP3 SWAP1 SWAP2 DUP4 ADD DUP3 DUP3 DUP1 ISZERO PUSH2 0xB80 JUMPI DUP1 PUSH1 0x1F LT PUSH2 0xB55 JUMPI PUSH2 0x100 DUP1 DUP4 SLOAD DIV MUL DUP4 MSTORE SWAP2 PUSH1 0x20 ADD SWAP2 PUSH2 0xB80 JUMP JUMPDEST DUP3 ADD SWAP2 SWAP1 PUSH1 0x0 MSTORE PUSH1 0x20 PUSH1 0x0 KECCAK256 SWAP1 JUMPDEST DUP2 SLOAD DUP2 MSTORE SWAP1 PUSH1 0x1 ADD SWAP1 PUSH1 0x20 ADD DUP1 DUP4 GT PUSH2 0xB63 JUMPI DUP3 SWAP1 SUB PUSH1 0x1F AND DUP3 ADD SWAP2 JUMPDEST POP POP POP SWAP2 DUP4 MSTORE POP POP PUSH1 0x2 DUP3 ADD SLOAD PUSH1 0x1 PUSH1 0x1 PUSH1 0xA0 SHL SUB AND PUSH1 0x20 DUP3 ADD MSTORE PUSH1 0x3 DUP3 ADD SLOAD PUSH1 0x40 DUP3 ADD MSTORE PUSH1 0x4 SWAP1 SWAP2 ADD SLOAD PUSH1 0xFF AND ISZERO ISZERO PUSH1 0x60 SWAP1 SWAP2 ADD MSTORE SWAP3 SWAP2 POP POP JUMP JUMPDEST PUSH1 0xA SLOAD SWAP1 JUMP JUMPDEST PUSH1 0x1 PUSH1 0x1 PUSH1 0xA0 SHL SUB DUP3 AND PUSH1 0x0 SWAP1 DUP2 MSTORE PUSH1 0x8 PUSH1 0x20 MSTORE PUSH1 0x40 DUP2 KECCAK256 SLOAD DUP3 LT PUSH2 0xBE6 JUMPI PUSH1 0x0 DUP1 REVERT JUMPDEST PUSH1 0x1 PUSH1 0x1 PUSH1 0xA0 SHL SUB DUP4 AND PUSH1 0x0 SWAP1 DUP2 MSTORE PUSH1 0x8 PUSH1 0x20 MSTORE PUSH1 0x40 SWAP1 KECCAK256 DUP1 SLOAD DUP4 SWAP1 DUP2 LT PUSH2 0xC0A JUMPI INVALID JUMPDEST PUSH1 0x0 SWAP2 DUP3 MSTORE PUSH1 0x20 SWAP1 SWAP2 KECCAK256 ADD SLOAD PUSH1 0x1 PUSH1 0x1 PUSH1 0xA0 SHL SUB AND SWAP4 SWAP3 POP POP POP JUMP JUMPDEST PUSH1 0x0 SLOAD PUSH1 0x1 PUSH1 0x1 PUSH1 0xA0 SHL SUB AND ISZERO PUSH2 0xC3C JUMPI PUSH1 0x0 DUP1 REVERT JUMPDEST PUSH1 0x0 DUP1 SLOAD PUSH1 0x1 PUSH1 0x1 PUSH1 0xA0 SHL SUB NOT AND CALLER OR DUP1 DUP3 SSTORE PUSH1 0x40 MLOAD PUSH1 0x1 PUSH1 0x1 PUSH1 0xA0 SHL SUB SWAP2 SWAP1 SWAP2 AND SWAP2 SWAP1 PUSH32 0xE9A5158AC7353C7C7322ECECC080BC8E89334EFA5795B6E21E40EB266B0003D6 SWAP1 DUP3 SWAP1 LOG3 JUMP JUMPDEST PUSH1 0xA SLOAD PUSH1 0x0 SWAP1 DUP3 LT PUSH2 0xC98 JUMPI PUSH1 0x0 DUP1 REVERT JUMPDEST PUSH1 0xA DUP3 DUP2 SLOAD DUP2 LT PUSH2 0xCA5 JUMPI INVALID JUMPDEST PUSH1 0x0 SWAP2 DUP3 MSTORE PUSH1 0x20 SWAP1 SWAP2 KECCAK256 ADD SLOAD PUSH1 0x1 PUSH1 0x1 PUSH1 0xA0 SHL SUB AND SWAP3 SWAP2 POP POP JUMP JUMPDEST PUSH1 0xC SLOAD PUSH1 0x0 SWAP1 PUSH1 0x1 PUSH1 0x1 PUSH1 0xA0 SHL SUB AND CALLER EQ DUP1 PUSH2 0xCF4 JUMPI POP PUSH2 0xCDF PUSH2 0x1081 JUMP JUMPDEST PUSH1 0x1 PUSH1 0x1 PUSH1 0xA0 SHL SUB AND CALLER PUSH1 0x1 PUSH1 0x1 PUSH1 0xA0 SHL SUB AND EQ JUMPDEST PUSH2 0xCFD JUMPI PUSH1 0x0 DUP1 REVERT JUMPDEST PUSH1 0x0 PUSH1 0x1 PUSH1 0x1 PUSH1 0xA0 SHL SUB AND PUSH1 0x3 DUP6 PUSH1 0x40 MLOAD PUSH2 0xD18 SWAP2 SWAP1 PUSH2 0x2639 JUMP JUMPDEST SWAP1 DUP2 MSTORE PUSH1 0x40 MLOAD SWAP1 DUP2 SWAP1 SUB PUSH1 0x20 ADD SWAP1 KECCAK256 SLOAD PUSH1 0x1 PUSH1 0x1 PUSH1 0xA0 SHL SUB AND EQ PUSH2 0xD3B JUMPI PUSH1 0x0 DUP1 REVERT JUMPDEST PUSH1 0x0 PUSH2 0xD46 DUP6 PUSH2 0x1BF3 JUMP JUMPDEST SWAP1 POP PUSH2 0xD50 PUSH2 0x2159 JUMP JUMPDEST POP PUSH1 0x40 DUP1 MLOAD PUSH1 0xA0 DUP2 ADD DUP3 MSTORE TIMESTAMP DUP2 MSTORE PUSH1 0x20 DUP1 DUP3 ADD DUP9 DUP2 MSTORE PUSH1 0x1 PUSH1 0x1 PUSH1 0xA0 SHL SUB DUP1 DUP10 AND DUP5 DUP7 ADD MSTORE PUSH1 0x60 DUP5 ADD DUP9 SWAP1 MSTORE PUSH1 0x1 PUSH1 0x80 DUP6 ADD DUP2 SWAP1 MSTORE SWAP1 DUP7 AND PUSH1 0x0 SWAP1 DUP2 MSTORE PUSH1 0x2 DUP5 MSTORE SWAP5 SWAP1 SWAP5 KECCAK256 DUP4 MLOAD DUP2 SSTORE SWAP1 MLOAD DUP1 MLOAD SWAP4 SWAP5 DUP6 SWAP5 SWAP3 SWAP4 PUSH2 0xDB2 SWAP4 SWAP2 DUP6 ADD SWAP3 ADD SWAP1 PUSH2 0x20A6 JUMP JUMPDEST POP PUSH1 0x40 DUP3 DUP2 ADD MLOAD PUSH1 0x2 DUP4 ADD DUP1 SLOAD PUSH1 0x1 PUSH1 0x1 PUSH1 0xA0 SHL SUB NOT AND PUSH1 0x1 PUSH1 0x1 PUSH1 0xA0 SHL SUB SWAP1 SWAP3 AND SWAP2 SWAP1 SWAP2 OR SWAP1 SSTORE PUSH1 0x60 DUP4 ADD MLOAD PUSH1 0x3 DUP1 DUP5 ADD SWAP2 SWAP1 SWAP2 SSTORE PUSH1 0x80 SWAP1 SWAP4 ADD MLOAD PUSH1 0x4 SWAP1 SWAP3 ADD DUP1 SLOAD PUSH1 0xFF NOT AND SWAP3 ISZERO ISZERO SWAP3 SWAP1 SWAP3 OR SWAP1 SWAP2 SSTORE MLOAD DUP4 SWAP2 SWAP1 PUSH2 0xE12 SWAP1 DUP10 SWAP1 PUSH2 0x2639 JUMP JUMPDEST SWAP1 DUP2 MSTORE PUSH1 0x40 MLOAD SWAP1 DUP2 SWAP1 SUB PUSH1 0x20 ADD DUP2 KECCAK256 DUP1 SLOAD PUSH1 0x1 PUSH1 0x1 PUSH1 0xA0 SHL SUB SWAP4 DUP5 AND PUSH1 0x1 PUSH1 0x1 PUSH1 0xA0 SHL SUB NOT SWAP2 DUP3 AND OR SWAP1 SWAP2 SSTORE PUSH1 0x4 DUP1 SLOAD PUSH1 0x1 DUP2 ADD DUP3 SSTORE PUSH1 0x0 SWAP2 SWAP1 SWAP2 MSTORE PUSH32 0x8A35ACFBC15FF81A39AE7D344FD709F28E8600B4AA8C65C6B64BFE7FE36BD19B ADD DUP1 SLOAD SWAP4 DUP7 AND SWAP4 SWAP1 SWAP2 AND SWAP3 SWAP1 SWAP3 OR SWAP1 SWAP2 SSTORE PUSH32 0x24274B76776395E43C450BC3A14D6735E185A9FC58A14861DA6718E3DC67BD30 SWAP1 PUSH2 0xEAF SWAP1 DUP5 SWAP1 DUP9 SWAP1 PUSH2 0x276B JUMP JUMPDEST PUSH1 0x40 MLOAD DUP1 SWAP2 SUB SWAP1 LOG1 POP SWAP5 SWAP4 POP POP POP POP JUMP JUMPDEST PUSH1 0xC SLOAD PUSH1 0x0 SWAP1 PUSH1 0x1 PUSH1 0x1 PUSH1 0xA0 SHL SUB AND CALLER EQ DUP1 PUSH2 0xEF4 JUMPI POP PUSH2 0xEDF PUSH2 0x1081 JUMP JUMPDEST PUSH1 0x1 PUSH1 0x1 PUSH1 0xA0 SHL SUB AND CALLER PUSH1 0x1 PUSH1 0x1 PUSH1 0xA0 SHL SUB AND EQ JUMPDEST PUSH2 0xEFD JUMPI PUSH1 0x0 DUP1 REVERT JUMPDEST PUSH1 0x1 PUSH1 0x1 PUSH1 0xA0 SHL SUB DUP4 AND PUSH2 0xF10 JUMPI PUSH1 0x0 DUP1 REVERT JUMPDEST PUSH1 0x1 PUSH1 0x1 PUSH1 0xA0 SHL SUB DUP4 AND PUSH1 0x0 SWAP1 DUP2 MSTORE PUSH1 0x2 PUSH1 0x20 MSTORE PUSH1 0x40 SWAP1 DUP2 SWAP1 KECCAK256 PUSH1 0x4 ADD DUP1 SLOAD PUSH1 0xFF NOT AND DUP5 ISZERO ISZERO OR SWAP1 SSTORE MLOAD PUSH32 0xA49FA0F4BA79245B51089BFF0CB5F84BC8D07F88F5D4F552FB893BC04F875EA9 SWAP1 PUSH2 0xF6B SWAP1 CALLER SWAP1 DUP7 SWAP1 DUP7 SWAP1 PUSH2 0x27D3 JUMP JUMPDEST PUSH1 0x40 MLOAD DUP1 SWAP2 SUB SWAP1 LOG1 POP PUSH1 0x1 SWAP3 SWAP2 POP POP JUMP JUMPDEST PUSH2 0xF84 PUSH2 0x206E JUMP JUMPDEST PUSH1 0x1 PUSH1 0x1 PUSH1 0xA0 SHL SUB DUP3 AND PUSH2 0xF97 JUMPI PUSH1 0x0 DUP1 REVERT JUMPDEST PUSH1 0x1 PUSH1 0x1 PUSH1 0xA0 SHL SUB DUP3 DUP2 AND PUSH1 0x0 SWAP1 DUP2 MSTORE PUSH1 0x5 PUSH1 0x20 SWAP1 DUP2 MSTORE PUSH1 0x40 SWAP2 DUP3 SWAP1 KECCAK256 DUP3 MLOAD PUSH1 0xA0 DUP2 ADD DUP5 MSTORE DUP2 SLOAD DUP2 MSTORE PUSH1 0x1 DUP1 DUP4 ADD SLOAD SWAP1 SWAP6 AND DUP2 DUP5 ADD MSTORE PUSH1 0x2 DUP1 DUP4 ADD DUP1 SLOAD DUP7 MLOAD PUSH2 0x100 SWAP9 DUP3 AND ISZERO SWAP9 SWAP1 SWAP9 MUL PUSH1 0x0 NOT ADD AND SWAP2 SWAP1 SWAP2 DIV PUSH1 0x1F DUP2 ADD DUP6 SWAP1 DIV DUP6 MUL DUP8 ADD DUP6 ADD DUP7 MSTORE DUP1 DUP8 MSTORE SWAP2 SWAP6 SWAP3 SWAP5 DUP7 ADD SWAP4 SWAP1 SWAP2 SWAP1 DUP4 ADD DUP3 DUP3 DUP1 ISZERO PUSH2 0x1057 JUMPI DUP1 PUSH1 0x1F LT PUSH2 0x102C JUMPI PUSH2 0x100 DUP1 DUP4 SLOAD DIV MUL DUP4 MSTORE SWAP2 PUSH1 0x20 ADD SWAP2 PUSH2 0x1057 JUMP JUMPDEST DUP3 ADD SWAP2 SWAP1 PUSH1 0x0 MSTORE PUSH1 0x20 PUSH1 0x0 KECCAK256 SWAP1 JUMPDEST DUP2 SLOAD DUP2 MSTORE SWAP1 PUSH1 0x1 ADD SWAP1 PUSH1 0x20 ADD DUP1 DUP4 GT PUSH2 0x103A JUMPI DUP3 SWAP1 SUB PUSH1 0x1F AND DUP3 ADD SWAP2 JUMPDEST POP POP POP POP POP DUP2 MSTORE PUSH1 0x20 ADD PUSH1 0x3 DUP3 ADD SLOAD DUP2 MSTORE PUSH1 0x20 ADD PUSH1 0x4 DUP3 ADD SLOAD DUP2 MSTORE POP POP SWAP1 POP SWAP2 SWAP1 POP JUMP JUMPDEST PUSH1 0x4 SLOAD SWAP1 JUMP JUMPDEST PUSH1 0x0 SLOAD PUSH1 0x1 PUSH1 0x1 PUSH1 0xA0 SHL SUB AND SWAP1 JUMP JUMPDEST PUSH1 0x0 PUSH1 0x1 PUSH1 0x1 PUSH1 0xA0 SHL SUB DUP3 AND PUSH2 0x10A5 JUMPI PUSH1 0x0 DUP1 REVERT JUMPDEST POP PUSH1 0x1 PUSH1 0x1 PUSH1 0xA0 SHL SUB AND PUSH1 0x0 SWAP1 DUP2 MSTORE PUSH1 0x6 PUSH1 0x20 MSTORE PUSH1 0x40 SWAP1 KECCAK256 PUSH1 0x4 ADD SLOAD PUSH6 0xFFFFFFFFFFFF AND SWAP1 JUMP JUMPDEST PUSH1 0xC SLOAD PUSH1 0x0 SWAP1 PUSH1 0x1 PUSH1 0x1 PUSH1 0xA0 SHL SUB AND CALLER EQ DUP1 PUSH2 0x1100 JUMPI POP PUSH2 0x10EB PUSH2 0x1081 JUMP JUMPDEST PUSH1 0x1 PUSH1 0x1 PUSH1 0xA0 SHL SUB AND CALLER PUSH1 0x1 PUSH1 0x1 PUSH1 0xA0 SHL SUB AND EQ JUMPDEST PUSH2 0x1109 JUMPI PUSH1 0x0 DUP1 REVERT JUMPDEST DUP2 MLOAD PUSH1 0x1 PUSH1 0x1 PUSH1 0xA0 SHL SUB AND PUSH2 0x111D JUMPI PUSH1 0x0 DUP1 REVERT JUMPDEST PUSH1 0x0 PUSH1 0x1 PUSH1 0x1 PUSH1 0xA0 SHL SUB AND PUSH1 0x7 DUP4 PUSH1 0x20 ADD MLOAD PUSH1 0x40 MLOAD PUSH2 0x113C SWAP2 SWAP1 PUSH2 0x2639 JUMP JUMPDEST SWAP1 DUP2 MSTORE PUSH1 0x40 MLOAD SWAP1 DUP2 SWAP1 SUB PUSH1 0x20 ADD SWAP1 KECCAK256 SLOAD PUSH1 0x1 PUSH1 0x1 PUSH1 0xA0 SHL SUB AND EQ PUSH2 0x115F JUMPI PUSH1 0x0 DUP1 REVERT JUMPDEST DUP2 MLOAD PUSH1 0x1 PUSH1 0x1 PUSH1 0xA0 SHL SUB AND PUSH1 0x0 SWAP1 DUP2 MSTORE PUSH1 0x2 PUSH1 0x20 MSTORE PUSH1 0x40 SWAP1 KECCAK256 SLOAD PUSH2 0x1182 JUMPI PUSH1 0x0 DUP1 REVERT JUMPDEST DUP2 MLOAD PUSH1 0x1 PUSH1 0x1 PUSH1 0xA0 SHL SUB AND PUSH1 0x0 SWAP1 DUP2 MSTORE PUSH1 0x2 PUSH1 0x20 MSTORE PUSH1 0x40 SWAP1 KECCAK256 PUSH1 0x4 ADD SLOAD PUSH1 0xFF AND PUSH2 0x11AB JUMPI PUSH1 0x0 DUP1 REVERT JUMPDEST PUSH1 0xE0 DUP3 ADD MLOAD PUSH1 0x1 PUSH1 0x1 PUSH1 0xA0 SHL SUB SWAP1 DUP2 AND PUSH1 0x0 DUP2 DUP2 MSTORE PUSH1 0x5 PUSH1 0x20 MSTORE PUSH1 0x40 SWAP1 KECCAK256 PUSH1 0x1 ADD SLOAD SWAP1 SWAP2 AND EQ PUSH2 0x11DA JUMPI PUSH1 0x0 DUP1 REVERT JUMPDEST PUSH1 0x0 PUSH2 0x11E9 DUP4 PUSH1 0x20 ADD MLOAD PUSH2 0x1C30 JUMP JUMPDEST SWAP1 POP PUSH2 0x11F3 PUSH2 0x2193 JUMP JUMPDEST POP PUSH1 0x40 DUP1 MLOAD PUSH1 0xC0 DUP2 ADD DUP3 MSTORE DUP5 DUP2 MSTORE TIMESTAMP PUSH1 0x20 DUP1 DUP4 ADD SWAP2 SWAP1 SWAP2 MSTORE PUSH1 0x1 DUP3 DUP5 ADD MSTORE PUSH1 0x1 PUSH1 0x1 PUSH1 0xA0 SHL SUB DUP1 DUP6 AND PUSH1 0x60 DUP1 DUP6 ADD SWAP2 SWAP1 SWAP2 MSTORE PUSH1 0x0 PUSH1 0x80 DUP6 ADD DUP2 SWAP1 MSTORE PUSH1 0xA0 DUP6 ADD DUP2 SWAP1 MSTORE DUP9 MLOAD DUP4 AND DUP2 MSTORE PUSH1 0x2 DUP1 DUP6 MSTORE DUP7 DUP3 KECCAK256 DUP2 ADD SLOAD DUP7 MLOAD SWAP1 DUP6 AND SWAP1 DUP9 ADD MSTORE DUP10 MLOAD DUP5 AND DUP3 MSTORE DUP5 MSTORE DUP6 SWAP1 KECCAK256 PUSH1 0x3 ADD SLOAD DUP5 MLOAD SWAP1 SWAP2 ADD MSTORE PUSH1 0xE0 DUP8 ADD MLOAD DUP5 MLOAD PUSH4 0x313CE567 PUSH1 0xE0 SHL DUP2 MSTORE SWAP5 MLOAD SWAP4 SWAP5 SWAP2 AND SWAP3 PUSH4 0x313CE567 SWAP3 PUSH1 0x4 DUP1 DUP5 ADD SWAP4 SWAP2 SWAP3 SWAP2 DUP3 SWAP1 SUB ADD DUP2 DUP7 DUP1 EXTCODESIZE ISZERO DUP1 ISZERO PUSH2 0x129F JUMPI PUSH1 0x0 DUP1 REVERT JUMPDEST POP GAS STATICCALL ISZERO DUP1 ISZERO PUSH2 0x12B3 JUMPI RETURNDATASIZE PUSH1 0x0 DUP1 RETURNDATACOPY RETURNDATASIZE PUSH1 0x0 REVERT JUMPDEST POP POP POP POP PUSH1 0x40 MLOAD RETURNDATASIZE PUSH1 0x1F NOT PUSH1 0x1F DUP3 ADD AND DUP3 ADD DUP1 PUSH1 0x40 MSTORE POP DUP2 ADD SWAP1 PUSH2 0x12D7 SWAP2 SWAP1 PUSH2 0x25B1 JUMP JUMPDEST DUP2 MLOAD PUSH1 0xFF SWAP2 SWAP1 SWAP2 AND PUSH2 0x120 SWAP1 SWAP2 ADD MSTORE PUSH1 0x1 PUSH1 0x1 PUSH1 0xA0 SHL SUB DUP3 DUP2 AND PUSH1 0x0 SWAP1 DUP2 MSTORE PUSH1 0x6 PUSH1 0x20 SWAP1 DUP2 MSTORE PUSH1 0x40 SWAP1 SWAP2 KECCAK256 DUP4 MLOAD DUP1 MLOAD DUP3 SLOAD PUSH1 0x1 PUSH1 0x1 PUSH1 0xA0 SHL SUB NOT AND SWAP5 AND SWAP4 SWAP1 SWAP4 OR DUP2 SSTORE DUP3 DUP3 ADD MLOAD DUP1 MLOAD DUP6 SWAP5 SWAP3 SWAP4 DUP5 SWAP3 PUSH2 0x1339 SWAP3 PUSH1 0x1 DUP6 ADD SWAP3 SWAP2 SWAP1 SWAP2 ADD SWAP1 PUSH2 0x20A6 JUMP JUMPDEST POP PUSH1 0x40 DUP3 ADD MLOAD PUSH1 0x2 DUP3 ADD DUP1 SLOAD PUSH1 0x1 PUSH1 0x1 PUSH1 0xA0 SHL SUB NOT AND PUSH1 0x1 PUSH1 0x1 PUSH1 0xA0 SHL SUB SWAP1 SWAP3 AND SWAP2 SWAP1 SWAP2 OR SWAP1 SSTORE PUSH1 0x60 DUP3 ADD MLOAD PUSH1 0x3 DUP3 ADD SSTORE PUSH1 0x80 DUP3 ADD MLOAD PUSH1 0x4 DUP3 ADD DUP1 SLOAD PUSH6 0xFFFFFFFFFFFF NOT AND PUSH6 0xFFFFFFFFFFFF SWAP1 SWAP3 AND SWAP2 SWAP1 SWAP2 OR SWAP1 SSTORE PUSH1 0xA0 DUP3 ADD MLOAD DUP1 MLOAD PUSH2 0x13A9 SWAP2 PUSH1 0x5 DUP5 ADD SWAP2 PUSH1 0x20 SWAP1 SWAP2 ADD SWAP1 PUSH2 0x20A6 JUMP JUMPDEST POP PUSH1 0xC0 DUP3 ADD MLOAD PUSH1 0x6 DUP3 ADD SSTORE PUSH1 0xE0 DUP3 ADD MLOAD PUSH1 0x7 DUP1 DUP4 ADD DUP1 SLOAD PUSH1 0x1 PUSH1 0x1 PUSH1 0xA0 SHL SUB NOT SWAP1 DUP2 AND PUSH1 0x1 PUSH1 0x1 PUSH1 0xA0 SHL SUB SWAP5 DUP6 AND OR SWAP1 SWAP2 SSTORE PUSH2 0x100 DUP1 DUP7 ADD MLOAD PUSH1 0x8 DUP7 ADD SSTORE PUSH2 0x120 DUP7 ADD MLOAD PUSH1 0x9 DUP7 ADD SSTORE PUSH2 0x140 SWAP1 SWAP6 ADD MLOAD PUSH1 0xA SWAP1 SWAP5 ADD DUP1 SLOAD PUSH1 0xFF NOT SWAP1 DUP2 AND SWAP6 ISZERO ISZERO SWAP6 SWAP1 SWAP6 OR SWAP1 SSTORE PUSH1 0x20 DUP8 DUP2 ADD MLOAD PUSH1 0xB DUP9 ADD SSTORE PUSH1 0x40 DUP1 DUP10 ADD MLOAD PUSH1 0xC DUP10 ADD DUP1 SLOAD PUSH1 0x60 DUP13 ADD MLOAD SWAP9 AND SWAP2 ISZERO ISZERO SWAP2 SWAP1 SWAP2 OR PUSH2 0x100 PUSH1 0x1 PUSH1 0xA8 SHL SUB NOT AND SWAP7 DUP7 AND SWAP1 SWAP8 MUL SWAP6 SWAP1 SWAP6 OR SWAP1 SWAP6 SSTORE PUSH1 0x80 DUP8 ADD MLOAD PUSH1 0xD DUP8 ADD DUP1 SLOAD DUP4 AND SWAP2 DUP6 AND SWAP2 SWAP1 SWAP2 OR SWAP1 SSTORE PUSH1 0xA0 SWAP1 SWAP7 ADD MLOAD PUSH1 0xE SWAP1 SWAP6 ADD DUP1 SLOAD SWAP1 SWAP7 AND SWAP5 SWAP1 SWAP2 AND SWAP4 SWAP1 SWAP4 OR SWAP1 SWAP4 SSTORE DUP7 ADD MLOAD SWAP2 MLOAD DUP5 SWAP3 PUSH2 0x148D SWAP2 PUSH2 0x2639 JUMP JUMPDEST SWAP1 DUP2 MSTORE PUSH1 0x40 DUP1 MLOAD SWAP2 DUP3 SWAP1 SUB PUSH1 0x20 SWAP1 DUP2 ADD DUP4 KECCAK256 DUP1 SLOAD PUSH1 0x1 PUSH1 0x1 PUSH1 0xA0 SHL SUB SWAP6 DUP7 AND PUSH1 0x1 PUSH1 0x1 PUSH1 0xA0 SHL SUB NOT SWAP2 DUP3 AND OR SWAP1 SWAP2 SSTORE DUP9 MLOAD DUP6 AND PUSH1 0x0 SWAP1 DUP2 MSTORE PUSH1 0x8 DUP4 MSTORE SWAP3 DUP4 KECCAK256 DUP1 SLOAD PUSH1 0x1 DUP2 ADD DUP3 SSTORE SWAP1 DUP5 MSTORE SWAP2 SWAP1 SWAP3 KECCAK256 ADD DUP1 SLOAD SWAP4 DUP7 AND SWAP4 SWAP1 SWAP2 AND SWAP3 SWAP1 SWAP3 OR SWAP1 SWAP2 SSTORE DUP5 MLOAD PUSH32 0x9F8BA93A59C170693AA21C78E910A0F31672D28230A25F09AA4B373A8B233B88 SWAP2 PUSH2 0x151D SWAP2 CALLER SWAP2 DUP7 SWAP1 PUSH2 0x2785 JUMP JUMPDEST PUSH1 0x40 MLOAD DUP1 SWAP2 SUB SWAP1 LOG1 PUSH2 0x152E DUP3 PUSH2 0x1877 JUMP JUMPDEST POP SWAP1 SWAP4 SWAP3 POP POP POP JUMP JUMPDEST PUSH1 0x4 SLOAD PUSH1 0x0 SWAP1 DUP3 LT PUSH2 0x1548 JUMPI PUSH1 0x0 DUP1 REVERT JUMPDEST PUSH1 0x4 DUP3 DUP2 SLOAD DUP2 LT PUSH2 0xCA5 JUMPI INVALID JUMPDEST PUSH1 0x1 PUSH1 0x1 PUSH1 0xA0 SHL SUB AND PUSH1 0x0 SWAP1 DUP2 MSTORE PUSH1 0x8 PUSH1 0x20 MSTORE PUSH1 0x40 SWAP1 KECCAK256 SLOAD SWAP1 JUMP JUMPDEST PUSH1 0xC SLOAD PUSH1 0x1 PUSH1 0x1 PUSH1 0xA0 SHL SUB AND DUP2 JUMP JUMPDEST PUSH2 0x1587 PUSH2 0x2193 JUMP JUMPDEST PUSH1 0x1 PUSH1 0x1 PUSH1 0xA0 SHL SUB DUP3 AND PUSH2 0x159A JUMPI PUSH1 0x0 DUP1 REVERT JUMPDEST PUSH1 0x1 PUSH1 0x1 PUSH1 0xA0 SHL SUB DUP3 DUP2 AND PUSH1 0x0 SWAP1 DUP2 MSTORE PUSH1 0x6 PUSH1 0x20 SWAP1 DUP2 MSTORE PUSH1 0x40 SWAP2 DUP3 SWAP1 KECCAK256 DUP3 MLOAD PUSH2 0x220 DUP2 ADD DUP5 MSTORE DUP2 SLOAD SWAP1 SWAP5 AND PUSH1 0xC0 DUP6 ADD SWAP1 DUP2 MSTORE PUSH1 0x1 DUP1 DUP4 ADD DUP1 SLOAD DUP7 MLOAD PUSH1 0x2 PUSH2 0x100 SWAP5 DUP4 AND ISZERO SWAP5 SWAP1 SWAP5 MUL PUSH1 0x0 NOT ADD SWAP1 SWAP2 AND SWAP3 SWAP1 SWAP3 DIV PUSH1 0x1F DUP2 ADD DUP7 SWAP1 DIV DUP7 MUL DUP4 ADD DUP7 ADD SWAP1 SWAP7 MSTORE DUP6 DUP3 MSTORE SWAP3 SWAP5 DUP7 SWAP5 SWAP3 SWAP4 DUP7 SWAP4 PUSH1 0xE0 DUP8 ADD SWAP4 SWAP3 SWAP1 DUP4 ADD DUP3 DUP3 DUP1 ISZERO PUSH2 0x1660 JUMPI DUP1 PUSH1 0x1F LT PUSH2 0x1635 JUMPI PUSH2 0x100 DUP1 DUP4 SLOAD DIV MUL DUP4 MSTORE SWAP2 PUSH1 0x20 ADD SWAP2 PUSH2 0x1660 JUMP JUMPDEST DUP3 ADD SWAP2 SWAP1 PUSH1 0x0 MSTORE PUSH1 0x20 PUSH1 0x0 KECCAK256 SWAP1 JUMPDEST DUP2 SLOAD DUP2 MSTORE SWAP1 PUSH1 0x1 ADD SWAP1 PUSH1 0x20 ADD DUP1 DUP4 GT PUSH2 0x1643 JUMPI DUP3 SWAP1 SUB PUSH1 0x1F AND DUP3 ADD SWAP2 JUMPDEST POP POP POP SWAP2 DUP4 MSTORE POP POP PUSH1 0x2 DUP3 DUP2 ADD SLOAD PUSH1 0x1 PUSH1 0x1 PUSH1 0xA0 SHL SUB AND PUSH1 0x20 DUP1 DUP5 ADD SWAP2 SWAP1 SWAP2 MSTORE PUSH1 0x3 DUP5 ADD SLOAD PUSH1 0x40 DUP1 DUP6 ADD SWAP2 SWAP1 SWAP2 MSTORE PUSH1 0x4 DUP6 ADD SLOAD PUSH6 0xFFFFFFFFFFFF AND PUSH1 0x60 DUP6 ADD MSTORE PUSH1 0x5 DUP6 ADD DUP1 SLOAD DUP3 MLOAD PUSH2 0x100 PUSH1 0x1 DUP4 AND ISZERO MUL PUSH1 0x0 NOT ADD SWAP1 SWAP2 AND SWAP5 SWAP1 SWAP5 DIV PUSH1 0x1F DUP2 ADD DUP5 SWAP1 DIV DUP5 MUL DUP6 ADD DUP5 ADD SWAP1 SWAP3 MSTORE DUP2 DUP5 MSTORE PUSH1 0x80 SWAP1 SWAP5 ADD SWAP4 SWAP2 DUP4 ADD DUP3 DUP3 DUP1 ISZERO PUSH2 0x1727 JUMPI DUP1 PUSH1 0x1F LT PUSH2 0x16FC JUMPI PUSH2 0x100 DUP1 DUP4 SLOAD DIV MUL DUP4 MSTORE SWAP2 PUSH1 0x20 ADD SWAP2 PUSH2 0x1727 JUMP JUMPDEST DUP3 ADD SWAP2 SWAP1 PUSH1 0x0 MSTORE PUSH1 0x20 PUSH1 0x0 KECCAK256 SWAP1 JUMPDEST DUP2 SLOAD DUP2 MSTORE SWAP1 PUSH1 0x1 ADD SWAP1 PUSH1 0x20 ADD DUP1 DUP4 GT PUSH2 0x170A JUMPI DUP3 SWAP1 SUB PUSH1 0x1F AND DUP3 ADD SWAP2 JUMPDEST POP POP POP SWAP2 DUP4 MSTORE POP POP PUSH1 0x6 DUP3 ADD SLOAD PUSH1 0x20 DUP1 DUP4 ADD SWAP2 SWAP1 SWAP2 MSTORE PUSH1 0x7 DUP4 ADD SLOAD PUSH1 0x1 PUSH1 0x1 PUSH1 0xA0 SHL SUB SWAP1 DUP2 AND PUSH1 0x40 DUP1 DUP6 ADD SWAP2 SWAP1 SWAP2 MSTORE PUSH1 0x8 DUP6 ADD SLOAD PUSH1 0x60 DUP1 DUP7 ADD SWAP2 SWAP1 SWAP2 MSTORE PUSH1 0x9 DUP7 ADD SLOAD PUSH1 0x80 DUP1 DUP8 ADD SWAP2 SWAP1 SWAP2 MSTORE PUSH1 0xA SWAP1 SWAP7 ADD SLOAD PUSH1 0xFF SWAP1 DUP2 AND ISZERO ISZERO PUSH1 0xA0 SWAP7 DUP8 ADD MSTORE SWAP7 DUP9 MSTORE PUSH1 0xB DUP10 ADD SLOAD SWAP4 DUP9 ADD SWAP4 SWAP1 SWAP4 MSTORE PUSH1 0xC DUP9 ADD SLOAD SWAP6 DUP7 AND ISZERO ISZERO SWAP1 DUP8 ADD MSTORE PUSH2 0x100 SWAP1 SWAP5 DIV DUP5 AND SWAP1 DUP6 ADD MSTORE PUSH1 0xD DUP6 ADD SLOAD DUP4 AND SWAP2 DUP5 ADD SWAP2 SWAP1 SWAP2 MSTORE PUSH1 0xE SWAP1 SWAP4 ADD SLOAD AND SWAP2 ADD MSTORE SWAP3 SWAP2 POP POP JUMP JUMPDEST PUSH1 0xC SLOAD PUSH1 0x0 SWAP1 PUSH1 0x1 PUSH1 0x1 PUSH1 0xA0 SHL SUB AND CALLER EQ DUP1 PUSH2 0x1800 JUMPI POP PUSH2 0x17EB PUSH2 0x1081 JUMP JUMPDEST PUSH1 0x1 PUSH1 0x1 PUSH1 0xA0 SHL SUB AND CALLER PUSH1 0x1 PUSH1 0x1 PUSH1 0xA0 SHL SUB AND EQ JUMPDEST PUSH2 0x1809 JUMPI PUSH1 0x0 DUP1 REVERT JUMPDEST PUSH1 0x1 PUSH1 0x1 PUSH1 0xA0 SHL SUB DUP4 AND PUSH2 0x181C JUMPI PUSH1 0x0 DUP1 REVERT JUMPDEST PUSH1 0x1 PUSH1 0x1 PUSH1 0xA0 SHL SUB DUP4 AND PUSH1 0x0 SWAP1 DUP2 MSTORE PUSH1 0x6 PUSH1 0x20 MSTORE PUSH1 0x40 SWAP1 DUP2 SWAP1 KECCAK256 PUSH1 0xC ADD DUP1 SLOAD PUSH1 0xFF NOT AND DUP5 ISZERO ISZERO OR SWAP1 SSTORE MLOAD PUSH32 0x699CA8C3D74640DEE53DF76E71689E18BEFE9ECFDDB53638A54526DF787D8777 SWAP1 PUSH2 0xF6B SWAP1 CALLER SWAP1 DUP7 SWAP1 DUP7 SWAP1 PUSH2 0x27D3 JUMP JUMPDEST PUSH1 0xC SLOAD PUSH1 0x0 SWAP1 PUSH1 0x1 PUSH1 0x1 PUSH1 0xA0 SHL SUB AND CALLER EQ DUP1 PUSH2 0x18AB JUMPI POP PUSH2 0x1896 PUSH2 0x1081 JUMP JUMPDEST PUSH1 0x1 PUSH1 0x1 PUSH1 0xA0 SHL SUB AND CALLER PUSH1 0x1 PUSH1 0x1 PUSH1 0xA0 SHL SUB AND EQ JUMPDEST PUSH2 0x18B4 JUMPI PUSH1 0x0 DUP1 REVERT JUMPDEST PUSH1 0x1 PUSH1 0x1 PUSH1 0xA0 SHL SUB DUP3 AND PUSH2 0x18C7 JUMPI PUSH1 0x0 DUP1 REVERT JUMPDEST PUSH1 0x1 PUSH1 0x1 PUSH1 0xA0 SHL SUB DUP3 AND PUSH1 0x0 SWAP1 DUP2 MSTORE PUSH1 0x6 PUSH1 0x20 MSTORE PUSH1 0x40 SWAP1 KECCAK256 PUSH1 0xC ADD SLOAD PUSH1 0xFF AND PUSH2 0x18EF JUMPI PUSH1 0x0 DUP1 REVERT JUMPDEST PUSH1 0x1 PUSH1 0x1 PUSH1 0xA0 SHL SUB DUP3 DUP2 AND PUSH1 0x0 SWAP1 DUP2 MSTORE PUSH1 0x9 PUSH1 0x20 MSTORE PUSH1 0x40 SWAP1 KECCAK256 SLOAD AND ISZERO PUSH2 0x1914 JUMPI PUSH1 0x0 DUP1 REVERT JUMPDEST PUSH1 0x0 PUSH2 0x193D DUP4 PUSH1 0x40 MLOAD DUP1 PUSH1 0x40 ADD PUSH1 0x40 MSTORE DUP1 PUSH1 0x5 DUP2 MSTORE PUSH1 0x20 ADD PUSH5 0x434C41494D PUSH1 0xD8 SHL DUP2 MSTORE POP PUSH2 0x1C4A JUMP JUMPDEST SWAP1 POP PUSH1 0x0 PUSH2 0x196A DUP5 PUSH1 0x40 MLOAD DUP1 PUSH1 0x40 ADD PUSH1 0x40 MSTORE DUP1 PUSH1 0x7 DUP2 MSTORE PUSH1 0x20 ADD PUSH7 0x554E434C41494D PUSH1 0xC8 SHL DUP2 MSTORE POP PUSH2 0x1C4A JUMP JUMPDEST SWAP1 POP PUSH2 0x1974 PUSH2 0x2132 JUMP JUMPDEST POP PUSH1 0x40 DUP1 MLOAD PUSH1 0x80 DUP2 ADD DUP3 MSTORE PUSH1 0x1 PUSH1 0x1 PUSH1 0xA0 SHL SUB DUP1 DUP8 AND DUP1 DUP4 MSTORE TIMESTAMP PUSH1 0x20 DUP1 DUP6 ADD SWAP2 DUP3 MSTORE DUP8 DUP5 AND DUP6 DUP8 ADD DUP2 DUP2 MSTORE DUP9 DUP7 AND PUSH1 0x60 DUP9 ADD DUP2 DUP2 MSTORE PUSH1 0x0 SWAP7 DUP8 MSTORE PUSH1 0x9 DUP6 MSTORE DUP10 DUP8 KECCAK256 DUP10 MLOAD DUP2 SLOAD SWAP1 DUP11 AND PUSH1 0x1 PUSH1 0x1 PUSH1 0xA0 SHL SUB NOT SWAP2 DUP3 AND OR DUP3 SSTORE SWAP7 MLOAD PUSH1 0x1 DUP3 ADD SSTORE SWAP3 MLOAD PUSH1 0x2 DUP5 ADD DUP1 SLOAD SWAP2 DUP11 AND SWAP2 DUP9 AND SWAP2 SWAP1 SWAP2 OR SWAP1 SSTORE MLOAD PUSH1 0x3 SWAP1 SWAP3 ADD DUP1 SLOAD SWAP3 SWAP1 SWAP8 AND SWAP2 DUP6 AND SWAP2 SWAP1 SWAP2 OR SWAP1 SWAP6 SSTORE PUSH1 0x6 SWAP1 SWAP2 MSTORE SWAP2 DUP6 SWAP1 KECCAK256 PUSH1 0xD DUP2 ADD DUP1 SLOAD DUP4 AND SWAP1 SWAP4 OR SWAP1 SWAP3 SSTORE PUSH1 0xE SWAP1 SWAP2 ADD DUP1 SLOAD SWAP1 SWAP2 AND SWAP1 SWAP2 OR SWAP1 SSTORE SWAP1 MLOAD PUSH32 0x83E59BB5882A866A5914AE28CEC9938541DA93086C0A9FF9092EA9B6AF7DC8F4 SWAP1 PUSH2 0x1A57 SWAP1 CALLER SWAP1 DUP9 SWAP1 DUP8 SWAP1 DUP8 SWAP1 PUSH2 0x27A8 JUMP JUMPDEST PUSH1 0x40 MLOAD DUP1 SWAP2 SUB SWAP1 LOG1 POP PUSH1 0x1 SWAP5 SWAP4 POP POP POP POP JUMP JUMPDEST PUSH1 0xB SLOAD PUSH1 0x1 PUSH1 0x1 PUSH1 0xA0 SHL SUB AND DUP2 JUMP JUMPDEST PUSH1 0xB SLOAD PUSH1 0x0 SWAP1 PUSH1 0x1 PUSH1 0x1 PUSH1 0xA0 SHL SUB AND CALLER EQ PUSH2 0x1A93 JUMPI PUSH1 0x0 DUP1 REVERT JUMPDEST PUSH1 0x1 PUSH1 0x1 PUSH1 0xA0 SHL SUB DUP5 AND PUSH2 0x1AA6 JUMPI PUSH1 0x0 DUP1 REVERT JUMPDEST PUSH1 0x1 PUSH1 0x1 PUSH1 0xA0 SHL SUB DUP4 AND PUSH2 0x1AB9 JUMPI PUSH1 0x0 DUP1 REVERT JUMPDEST PUSH1 0x0 DUP3 GT PUSH2 0x1AC6 JUMPI PUSH1 0x0 DUP1 REVERT JUMPDEST PUSH1 0x40 MLOAD PUSH4 0x2770A7EB PUSH1 0xE2 SHL DUP2 MSTORE PUSH1 0x1 PUSH1 0x1 PUSH1 0xA0 SHL SUB DUP6 AND SWAP1 PUSH4 0x9DC29FAC SWAP1 PUSH2 0xA56 SWAP1 DUP7 SWAP1 DUP7 SWAP1 PUSH1 0x4 ADD PUSH2 0x2823 JUMP JUMPDEST PUSH1 0x0 SLOAD PUSH1 0x1 PUSH1 0x1 PUSH1 0xA0 SHL SUB AND CALLER EQ PUSH2 0x1B53 JUMPI PUSH1 0x40 DUP1 MLOAD PUSH3 0x461BCD PUSH1 0xE5 SHL DUP2 MSTORE PUSH1 0x20 PUSH1 0x4 DUP3 ADD DUP2 SWAP1 MSTORE PUSH1 0x24 DUP3 ADD MSTORE PUSH32 0x4F776E61626C653A2063616C6C6572206973206E6F7420746865206F776E6572 PUSH1 0x44 DUP3 ADD MSTORE SWAP1 MLOAD SWAP1 DUP2 SWAP1 SUB PUSH1 0x64 ADD SWAP1 REVERT JUMPDEST PUSH1 0x1 PUSH1 0x1 PUSH1 0xA0 SHL SUB DUP2 AND PUSH2 0x1B98 JUMPI PUSH1 0x40 MLOAD PUSH3 0x461BCD PUSH1 0xE5 SHL DUP2 MSTORE PUSH1 0x4 ADD DUP1 DUP1 PUSH1 0x20 ADD DUP3 DUP2 SUB DUP3 MSTORE PUSH1 0x26 DUP2 MSTORE PUSH1 0x20 ADD DUP1 PUSH2 0x32A7 PUSH1 0x26 SWAP2 CODECOPY PUSH1 0x40 ADD SWAP2 POP POP PUSH1 0x40 MLOAD DUP1 SWAP2 SUB SWAP1 REVERT JUMPDEST PUSH1 0x0 DUP1 SLOAD PUSH1 0x40 MLOAD PUSH1 0x1 PUSH1 0x1 PUSH1 0xA0 SHL SUB DUP1 DUP6 AND SWAP4 SWAP3 AND SWAP2 PUSH32 0xB150023A879FD806E3599B6CA8EE3B60F0E360AB3846D128D67EBCE1A391639A SWAP2 LOG3 PUSH1 0x0 DUP1 SLOAD PUSH1 0x1 PUSH1 0x1 PUSH1 0xA0 SHL SUB NOT AND PUSH1 0x1 PUSH1 0x1 PUSH1 0xA0 SHL SUB SWAP3 SWAP1 SWAP3 AND SWAP2 SWAP1 SWAP2 OR SWAP1 SSTORE JUMP JUMPDEST PUSH1 0x0 DUP1 DUP3 PUSH1 0x40 MLOAD PUSH1 0x20 ADD PUSH2 0x1C07 SWAP2 SWAP1 PUSH2 0x2639 JUMP JUMPDEST PUSH1 0x40 MLOAD PUSH1 0x20 DUP2 DUP4 SUB SUB DUP2 MSTORE SWAP1 PUSH1 0x40 MSTORE DUP1 MLOAD SWAP1 PUSH1 0x20 ADD KECCAK256 SWAP1 POP PUSH2 0x1C29 DUP2 ADDRESS PUSH2 0x1EBE JUMP JUMPDEST SWAP4 SWAP3 POP POP POP JUMP JUMPDEST PUSH1 0x0 DUP1 DUP3 TIMESTAMP NUMBER DIFFICULTY PUSH1 0x40 MLOAD PUSH1 0x20 ADD PUSH2 0x1C07 SWAP5 SWAP4 SWAP3 SWAP2 SWAP1 PUSH2 0x2691 JUMP JUMPDEST PUSH1 0x1 PUSH1 0x1 PUSH1 0xA0 SHL SUB DUP3 AND PUSH1 0x0 SWAP1 DUP2 MSTORE PUSH1 0x6 PUSH1 0x20 SWAP1 DUP2 MSTORE PUSH1 0x40 DUP1 DUP4 KECCAK256 PUSH1 0x1 SWAP1 DUP2 ADD DUP1 SLOAD DUP4 MLOAD PUSH1 0x2 SWAP4 DUP3 AND ISZERO PUSH2 0x100 MUL PUSH1 0x0 NOT ADD SWAP1 SWAP2 AND SWAP3 SWAP1 SWAP3 DIV PUSH1 0x1F DUP2 ADD DUP6 SWAP1 DIV DUP6 MUL DUP4 ADD DUP6 ADD SWAP1 SWAP4 MSTORE DUP3 DUP3 MSTORE PUSH1 0x60 SWAP4 SWAP2 SWAP3 SWAP1 SWAP2 DUP4 ADD DUP3 DUP3 DUP1 ISZERO PUSH2 0x1CEE JUMPI DUP1 PUSH1 0x1F LT PUSH2 0x1CC3 JUMPI PUSH2 0x100 DUP1 DUP4 SLOAD DIV MUL DUP4 MSTORE SWAP2 PUSH1 0x20 ADD SWAP2 PUSH2 0x1CEE JUMP JUMPDEST DUP3 ADD SWAP2 SWAP1 PUSH1 0x0 MSTORE PUSH1 0x20 PUSH1 0x0 KECCAK256 SWAP1 JUMPDEST DUP2 SLOAD DUP2 MSTORE SWAP1 PUSH1 0x1 ADD SWAP1 PUSH1 0x20 ADD DUP1 DUP4 GT PUSH2 0x1CD1 JUMPI DUP3 SWAP1 SUB PUSH1 0x1F AND DUP3 ADD SWAP2 JUMPDEST POP POP POP POP POP SWAP1 POP PUSH1 0x60 PUSH1 0x40 MLOAD DUP1 PUSH1 0x20 ADD PUSH2 0x1D07 SWAP1 PUSH2 0x21CF JUMP JUMPDEST PUSH1 0x1F NOT DUP3 DUP3 SUB DUP2 ADD DUP4 MSTORE PUSH1 0x1F SWAP1 SWAP2 ADD AND PUSH1 0x40 DUP2 DUP2 MSTORE PUSH1 0x1 PUSH1 0x1 PUSH1 0xA0 SHL SUB DUP9 AND PUSH1 0x0 SWAP1 DUP2 MSTORE PUSH1 0x6 PUSH1 0x20 DUP2 DUP2 MSTORE SWAP3 DUP3 KECCAK256 PUSH1 0x4 DUP2 ADD SLOAD SWAP2 DUP2 ADD SLOAD SWAP6 SWAP7 POP SWAP2 SWAP5 PUSH2 0x1D62 SWAP5 PUSH1 0x1 SWAP1 SWAP4 ADD SWAP4 PUSH6 0xFFFFFFFFFFFF SWAP1 SWAP3 AND SWAP3 SWAP1 SWAP2 DUP11 SWAP2 ADD PUSH2 0x26C0 JUMP JUMPDEST PUSH1 0x40 MLOAD PUSH1 0x20 DUP2 DUP4 SUB SUB DUP2 MSTORE SWAP1 PUSH1 0x40 MSTORE DUP1 MLOAD SWAP1 PUSH1 0x20 ADD KECCAK256 SWAP1 POP PUSH1 0x0 PUSH2 0x1D88 PUSH1 0x0 DUP4 DUP6 PUSH2 0x1F02 JUMP JUMPDEST SWAP1 POP PUSH1 0x60 PUSH32 0xF62D188800B594EDA156757988DE1A22139F89FBCB7BFC58E96E79B054B5CB47 DUP6 DUP9 PUSH1 0x40 MLOAD PUSH1 0x20 ADD PUSH2 0x1DC0 SWAP3 SWAP2 SWAP1 PUSH2 0x2655 JUMP JUMPDEST PUSH1 0x40 DUP1 MLOAD PUSH1 0x1F NOT DUP2 DUP5 SUB ADD DUP2 MSTORE SWAP1 DUP3 SWAP1 MSTORE PUSH2 0x1DDD SWAP2 PUSH1 0x24 ADD PUSH2 0x2847 JUMP JUMPDEST PUSH1 0x40 DUP1 MLOAD PUSH1 0x1F NOT DUP2 DUP5 SUB ADD DUP2 MSTORE SWAP2 DUP2 MSTORE PUSH1 0x20 DUP3 ADD DUP1 MLOAD PUSH1 0x1 PUSH1 0x1 PUSH1 0xE0 SHL SUB AND PUSH1 0x1 PUSH1 0x1 PUSH1 0xE0 SHL SUB NOT SWAP1 SWAP5 AND SWAP4 SWAP1 SWAP4 OR SWAP1 SWAP3 MSTORE PUSH1 0x1 SLOAD SWAP2 MLOAD PUSH4 0xCF7A1D77 PUSH1 0xE0 SHL DUP2 MSTORE SWAP1 SWAP3 POP PUSH1 0x1 PUSH1 0x1 PUSH1 0xA0 SHL SUB DUP1 DUP6 AND SWAP3 PUSH4 0xCF7A1D77 SWAP3 PUSH2 0x1E48 SWAP3 SWAP2 SWAP1 SWAP2 AND SWAP1 ADDRESS SWAP1 DUP7 SWAP1 PUSH1 0x4 ADD PUSH2 0x27F7 JUMP JUMPDEST PUSH1 0x0 PUSH1 0x40 MLOAD DUP1 DUP4 SUB DUP2 PUSH1 0x0 DUP8 DUP1 EXTCODESIZE ISZERO DUP1 ISZERO PUSH2 0x1E62 JUMPI PUSH1 0x0 DUP1 REVERT JUMPDEST POP GAS CALL ISZERO DUP1 ISZERO PUSH2 0x1E76 JUMPI RETURNDATASIZE PUSH1 0x0 DUP1 RETURNDATACOPY RETURNDATASIZE PUSH1 0x0 REVERT JUMPDEST POP POP POP POP PUSH32 0x62EC089D6C661DE888091DD8FD0550160F8A27E337AD3F847B01A94D7064207F CALLER DUP4 PUSH1 0x40 MLOAD PUSH2 0x1EAB SWAP3 SWAP2 SWAP1 PUSH2 0x276B JUMP JUMPDEST PUSH1 0x40 MLOAD DUP1 SWAP2 SUB SWAP1 LOG1 POP SWAP7 SWAP6 POP POP POP POP POP POP JUMP JUMPDEST PUSH1 0x0 PUSH1 0x60 PUSH1 0x40 MLOAD DUP1 PUSH1 0x20 ADD PUSH2 0x1ED2 SWAP1 PUSH2 0x21CF JUMP JUMPDEST PUSH1 0x20 DUP3 ADD DUP2 SUB DUP3 MSTORE PUSH1 0x1F NOT PUSH1 0x1F DUP3 ADD AND PUSH1 0x40 MSTORE POP SWAP1 POP PUSH2 0x1EFA DUP5 DUP3 DUP1 MLOAD SWAP1 PUSH1 0x20 ADD KECCAK256 DUP6 PUSH2 0x2013 JUMP JUMPDEST SWAP5 SWAP4 POP POP POP POP JUMP JUMPDEST PUSH1 0x0 DUP1 DUP5 SELFBALANCE LT ISZERO PUSH2 0x1F5A JUMPI PUSH1 0x40 DUP1 MLOAD PUSH3 0x461BCD PUSH1 0xE5 SHL DUP2 MSTORE PUSH1 0x20 PUSH1 0x4 DUP3 ADD MSTORE PUSH1 0x1D PUSH1 0x24 DUP3 ADD MSTORE PUSH32 0x437265617465323A20696E73756666696369656E742062616C616E6365000000 PUSH1 0x44 DUP3 ADD MSTORE SWAP1 MLOAD SWAP1 DUP2 SWAP1 SUB PUSH1 0x64 ADD SWAP1 REVERT JUMPDEST DUP3 MLOAD PUSH2 0x1FAD JUMPI PUSH1 0x40 DUP1 MLOAD PUSH3 0x461BCD PUSH1 0xE5 SHL DUP2 MSTORE PUSH1 0x20 PUSH1 0x4 DUP3 ADD DUP2 SWAP1 MSTORE PUSH1 0x24 DUP3 ADD MSTORE PUSH32 0x437265617465323A2062797465636F6465206C656E677468206973207A65726F PUSH1 0x44 DUP3 ADD MSTORE SWAP1 MLOAD SWAP1 DUP2 SWAP1 SUB PUSH1 0x64 ADD SWAP1 REVERT JUMPDEST DUP4 DUP4 MLOAD PUSH1 0x20 DUP6 ADD DUP8 CREATE2 SWAP1 POP PUSH1 0x1 PUSH1 0x1 PUSH1 0xA0 SHL SUB DUP2 AND PUSH2 0x1EFA JUMPI PUSH1 0x40 DUP1 MLOAD PUSH3 0x461BCD PUSH1 0xE5 SHL DUP2 MSTORE PUSH1 0x20 PUSH1 0x4 DUP3 ADD MSTORE PUSH1 0x19 PUSH1 0x24 DUP3 ADD MSTORE PUSH32 0x437265617465323A204661696C6564206F6E206465706C6F7900000000000000 PUSH1 0x44 DUP3 ADD MSTORE SWAP1 MLOAD SWAP1 DUP2 SWAP1 SUB PUSH1 0x64 ADD SWAP1 REVERT JUMPDEST PUSH1 0x40 DUP1 MLOAD PUSH1 0x1 PUSH1 0x1 PUSH1 0xF8 SHL SUB NOT PUSH1 0x20 DUP1 DUP4 ADD SWAP2 SWAP1 SWAP2 MSTORE PUSH1 0x60 SWAP4 SWAP1 SWAP4 SHL PUSH12 0xFFFFFFFFFFFFFFFFFFFFFFFF NOT AND PUSH1 0x21 DUP3 ADD MSTORE PUSH1 0x35 DUP2 ADD SWAP5 SWAP1 SWAP5 MSTORE PUSH1 0x55 DUP1 DUP6 ADD SWAP4 SWAP1 SWAP4 MSTORE DUP1 MLOAD DUP1 DUP6 SUB SWAP1 SWAP4 ADD DUP4 MSTORE PUSH1 0x75 SWAP1 SWAP4 ADD SWAP1 SWAP3 MSTORE DUP1 MLOAD SWAP2 ADD KECCAK256 SWAP1 JUMP JUMPDEST PUSH1 0x40 MLOAD DUP1 PUSH1 0xA0 ADD PUSH1 0x40 MSTORE DUP1 PUSH1 0x0 DUP2 MSTORE PUSH1 0x20 ADD PUSH1 0x0 PUSH1 0x1 PUSH1 0x1 PUSH1 0xA0 SHL SUB AND DUP2 MSTORE PUSH1 0x20 ADD PUSH1 0x60 DUP2 MSTORE PUSH1 0x20 ADD PUSH1 0x0 DUP2 MSTORE PUSH1 0x20 ADD PUSH1 0x0 DUP2 MSTORE POP SWAP1 JUMP JUMPDEST DUP3 DUP1 SLOAD PUSH1 0x1 DUP2 PUSH1 0x1 AND ISZERO PUSH2 0x100 MUL SUB AND PUSH1 0x2 SWAP1 DIV SWAP1 PUSH1 0x0 MSTORE PUSH1 0x20 PUSH1 0x0 KECCAK256 SWAP1 PUSH1 0x1F ADD PUSH1 0x20 SWAP1 DIV DUP2 ADD SWAP3 DUP3 PUSH2 0x20DC JUMPI PUSH1 0x0 DUP6 SSTORE PUSH2 0x2122 JUMP JUMPDEST DUP3 PUSH1 0x1F LT PUSH2 0x20F5 JUMPI DUP1 MLOAD PUSH1 0xFF NOT AND DUP4 DUP1 ADD OR DUP6 SSTORE PUSH2 0x2122 JUMP JUMPDEST DUP3 DUP1 ADD PUSH1 0x1 ADD DUP6 SSTORE DUP3 ISZERO PUSH2 0x2122 JUMPI SWAP2 DUP3 ADD JUMPDEST DUP3 DUP2 GT ISZERO PUSH2 0x2122 JUMPI DUP3 MLOAD DUP3 SSTORE SWAP2 PUSH1 0x20 ADD SWAP2 SWAP1 PUSH1 0x1 ADD SWAP1 PUSH2 0x2107 JUMP JUMPDEST POP PUSH2 0x212E SWAP3 SWAP2 POP PUSH2 0x21DC JUMP JUMPDEST POP SWAP1 JUMP JUMPDEST PUSH1 0x40 DUP1 MLOAD PUSH1 0x80 DUP2 ADD DUP3 MSTORE PUSH1 0x0 DUP1 DUP3 MSTORE PUSH1 0x20 DUP3 ADD DUP2 SWAP1 MSTORE SWAP2 DUP2 ADD DUP3 SWAP1 MSTORE PUSH1 0x60 DUP2 ADD SWAP2 SWAP1 SWAP2 MSTORE SWAP1 JUMP JUMPDEST PUSH1 0x40 MLOAD DUP1 PUSH1 0xA0 ADD PUSH1 0x40 MSTORE DUP1 PUSH1 0x0 DUP2 MSTORE PUSH1 0x20 ADD PUSH1 0x60 DUP2 MSTORE PUSH1 0x20 ADD PUSH1 0x0 PUSH1 0x1 PUSH1 0x1 PUSH1 0xA0 SHL SUB AND DUP2 MSTORE PUSH1 0x20 ADD PUSH1 0x0 DUP2 MSTORE PUSH1 0x20 ADD PUSH1 0x0 ISZERO ISZERO DUP2 MSTORE POP SWAP1 JUMP JUMPDEST PUSH1 0x40 MLOAD DUP1 PUSH1 0xC0 ADD PUSH1 0x40 MSTORE DUP1 PUSH2 0x21A6 PUSH2 0x21F1 JUMP JUMPDEST DUP2 MSTORE PUSH1 0x0 PUSH1 0x20 DUP3 ADD DUP2 SWAP1 MSTORE PUSH1 0x40 DUP3 ADD DUP2 SWAP1 MSTORE PUSH1 0x60 DUP3 ADD DUP2 SWAP1 MSTORE PUSH1 0x80 DUP3 ADD DUP2 SWAP1 MSTORE PUSH1 0xA0 SWAP1 SWAP2 ADD MSTORE SWAP1 JUMP JUMPDEST PUSH2 0x767 DUP1 PUSH2 0x2B40 DUP4 CODECOPY ADD SWAP1 JUMP JUMPDEST JUMPDEST DUP1 DUP3 GT ISZERO PUSH2 0x212E JUMPI PUSH1 0x0 DUP2 SSTORE PUSH1 0x1 ADD PUSH2 0x21DD JUMP JUMPDEST PUSH1 0x40 MLOAD DUP1 PUSH2 0x160 ADD PUSH1 0x40 MSTORE DUP1 PUSH1 0x0 PUSH1 0x1 PUSH1 0x1 PUSH1 0xA0 SHL SUB AND DUP2 MSTORE PUSH1 0x20 ADD PUSH1 0x60 DUP2 MSTORE PUSH1 0x20 ADD PUSH1 0x0 PUSH1 0x1 PUSH1 0x1 PUSH1 0xA0 SHL SUB AND DUP2 MSTORE PUSH1 0x20 ADD PUSH1 0x0 DUP2 MSTORE PUSH1 0x20 ADD PUSH1 0x0 PUSH6 0xFFFFFFFFFFFF AND DUP2 MSTORE PUSH1 0x20 ADD PUSH1 0x60 DUP2 MSTORE PUSH1 0x20 ADD PUSH1 0x0 DUP2 MSTORE PUSH1 0x20 ADD PUSH1 0x0 PUSH1 0x1 PUSH1 0x1 PUSH1 0xA0 SHL SUB AND DUP2 MSTORE PUSH1 0x20 ADD PUSH1 0x0 DUP2 MSTORE PUSH1 0x20 ADD PUSH1 0x0 DUP2 MSTORE PUSH1 0x20 ADD PUSH1 0x0 ISZERO ISZERO DUP2 MSTORE POP SWAP1 JUMP JUMPDEST DUP1 CALLDATALOAD PUSH1 0x1 PUSH1 0x1 PUSH1 0xA0 SHL SUB DUP2 AND DUP2 EQ PUSH2 0x9D6 JUMPI PUSH1 0x0 DUP1 REVERT JUMPDEST DUP1 CALLDATALOAD PUSH2 0x9D6 DUP2 PUSH2 0x2B2E JUMP JUMPDEST PUSH1 0x0 DUP3 PUSH1 0x1F DUP4 ADD SLT PUSH2 0x22A2 JUMPI DUP1 DUP2 REVERT JUMPDEST DUP2 CALLDATALOAD PUSH2 0x22B5 PUSH2 0x22B0 DUP3 PUSH2 0x2ADC JUMP JUMPDEST PUSH2 0x2AB8 JUMP JUMPDEST SWAP2 POP DUP1 DUP3 MSTORE DUP4 PUSH1 0x20 DUP3 DUP6 ADD ADD GT ISZERO PUSH2 0x22CC JUMPI PUSH1 0x0 DUP1 REVERT JUMPDEST DUP1 PUSH1 0x20 DUP5 ADD PUSH1 0x20 DUP5 ADD CALLDATACOPY PUSH1 0x0 SWAP1 DUP3 ADD PUSH1 0x20 ADD MSTORE SWAP3 SWAP2 POP POP JUMP JUMPDEST DUP1 CALLDATALOAD PUSH6 0xFFFFFFFFFFFF DUP2 AND DUP2 EQ PUSH2 0x9D6 JUMPI PUSH1 0x0 DUP1 REVERT JUMPDEST PUSH1 0x0 PUSH1 0x20 DUP3 DUP5 SUB SLT ISZERO PUSH2 0x230C JUMPI DUP1 DUP2 REVERT JUMPDEST PUSH2 0x1C29 DUP3 PUSH2 0x2270 JUMP JUMPDEST PUSH1 0x0 DUP1 PUSH1 0x0 PUSH1 0x60 DUP5 DUP7 SUB SLT ISZERO PUSH2 0x2329 JUMPI DUP2 DUP3 REVERT JUMPDEST PUSH2 0x2332 DUP5 PUSH2 0x2270 JUMP JUMPDEST SWAP3 POP PUSH2 0x2340 PUSH1 0x20 DUP6 ADD PUSH2 0x2270 JUMP JUMPDEST SWAP2 POP PUSH1 0x40 DUP5 ADD CALLDATALOAD SWAP1 POP SWAP3 POP SWAP3 POP SWAP3 JUMP JUMPDEST PUSH1 0x0 DUP1 PUSH1 0x40 DUP4 DUP6 SUB SLT ISZERO PUSH2 0x2362 JUMPI DUP2 DUP3 REVERT JUMPDEST PUSH2 0x236B DUP4 PUSH2 0x2270 JUMP JUMPDEST SWAP2 POP PUSH1 0x20 DUP4 ADD CALLDATALOAD PUSH2 0x237B DUP2 PUSH2 0x2B2E JUMP JUMPDEST DUP1 SWAP2 POP POP SWAP3 POP SWAP3 SWAP1 POP JUMP JUMPDEST PUSH1 0x0 DUP1 PUSH1 0x40 DUP4 DUP6 SUB SLT ISZERO PUSH2 0x2398 JUMPI DUP2 DUP3 REVERT JUMPDEST PUSH2 0x23A1 DUP4 PUSH2 0x2270 JUMP JUMPDEST SWAP5 PUSH1 0x20 SWAP4 SWAP1 SWAP4 ADD CALLDATALOAD SWAP4 POP POP POP JUMP JUMPDEST PUSH1 0x0 PUSH1 0x20 DUP3 DUP5 SUB SLT ISZERO PUSH2 0x23C0 JUMPI DUP1 DUP2 REVERT JUMPDEST DUP2 MLOAD PUSH2 0x1C29 DUP2 PUSH2 0x2B2E JUMP JUMPDEST PUSH1 0x0 PUSH1 0x20 DUP3 DUP5 SUB SLT ISZERO PUSH2 0x23DC JUMPI DUP1 DUP2 REVERT JUMPDEST DUP2 MLOAD PUSH8 0xFFFFFFFFFFFFFFFF DUP2 GT ISZERO PUSH2 0x23F2 JUMPI DUP2 DUP3 REVERT JUMPDEST DUP3 ADD PUSH1 0x1F DUP2 ADD DUP5 SGT PUSH2 0x2402 JUMPI DUP2 DUP3 REVERT JUMPDEST DUP1 MLOAD PUSH2 0x2410 PUSH2 0x22B0 DUP3 PUSH2 0x2ADC JUMP JUMPDEST DUP2 DUP2 MSTORE DUP6 PUSH1 0x20 DUP4 DUP6 ADD ADD GT ISZERO PUSH2 0x2424 JUMPI DUP4 DUP5 REVERT JUMPDEST PUSH2 0x2435 DUP3 PUSH1 0x20 DUP4 ADD PUSH1 0x20 DUP7 ADD PUSH2 0x2AFE JUMP JUMPDEST SWAP6 SWAP5 POP POP POP POP POP JUMP JUMPDEST PUSH1 0x0 DUP1 PUSH1 0x0 PUSH1 0x60 DUP5 DUP7 SUB SLT ISZERO PUSH2 0x2452 JUMPI DUP3 DUP4 REVERT JUMPDEST DUP4 CALLDATALOAD PUSH8 0xFFFFFFFFFFFFFFFF DUP2 GT ISZERO PUSH2 0x2468 JUMPI DUP4 DUP5 REVERT JUMPDEST PUSH2 0x2474 DUP7 DUP3 DUP8 ADD PUSH2 0x2292 JUMP JUMPDEST SWAP4 POP POP PUSH2 0x2340 PUSH1 0x20 DUP6 ADD PUSH2 0x2270 JUMP JUMPDEST PUSH1 0x0 PUSH1 0x20 DUP3 DUP5 SUB SLT ISZERO PUSH2 0x2494 JUMPI DUP1 DUP2 REVERT JUMPDEST DUP2 CALLDATALOAD PUSH8 0xFFFFFFFFFFFFFFFF DUP1 DUP3 GT ISZERO PUSH2 0x24AB JUMPI DUP3 DUP4 REVERT JUMPDEST DUP2 DUP5 ADD SWAP2 POP PUSH2 0x160 DUP1 DUP4 DUP8 SUB SLT ISZERO PUSH2 0x24C1 JUMPI DUP4 DUP5 REVERT JUMPDEST PUSH2 0x24CA DUP2 PUSH2 0x2AB8 JUMP JUMPDEST SWAP1 POP PUSH2 0x24D5 DUP4 PUSH2 0x2270 JUMP JUMPDEST DUP2 MSTORE PUSH1 0x20 DUP4 ADD CALLDATALOAD DUP3 DUP2 GT ISZERO PUSH2 0x24E8 JUMPI DUP5 DUP6 REVERT JUMPDEST PUSH2 0x24F4 DUP8 DUP3 DUP7 ADD PUSH2 0x2292 JUMP JUMPDEST PUSH1 0x20 DUP4 ADD MSTORE POP PUSH2 0x2506 PUSH1 0x40 DUP5 ADD PUSH2 0x2270 JUMP JUMPDEST PUSH1 0x40 DUP3 ADD MSTORE PUSH1 0x60 DUP4 ADD CALLDATALOAD PUSH1 0x60 DUP3 ADD MSTORE PUSH2 0x2521 PUSH1 0x80 DUP5 ADD PUSH2 0x22E5 JUMP JUMPDEST PUSH1 0x80 DUP3 ADD MSTORE PUSH1 0xA0 DUP4 ADD CALLDATALOAD DUP3 DUP2 GT ISZERO PUSH2 0x2537 JUMPI DUP5 DUP6 REVERT JUMPDEST PUSH2 0x2543 DUP8 DUP3 DUP7 ADD PUSH2 0x2292 JUMP JUMPDEST PUSH1 0xA0 DUP4 ADD MSTORE POP PUSH1 0xC0 DUP4 ADD CALLDATALOAD PUSH1 0xC0 DUP3 ADD MSTORE PUSH2 0x255F PUSH1 0xE0 DUP5 ADD PUSH2 0x2270 JUMP JUMPDEST PUSH1 0xE0 DUP3 ADD MSTORE PUSH2 0x100 DUP4 DUP2 ADD CALLDATALOAD SWAP1 DUP3 ADD MSTORE PUSH2 0x120 DUP1 DUP5 ADD CALLDATALOAD SWAP1 DUP3 ADD MSTORE PUSH2 0x140 SWAP2 POP PUSH2 0x258A DUP3 DUP5 ADD PUSH2 0x2287 JUMP JUMPDEST SWAP2 DUP2 ADD SWAP2 SWAP1 SWAP2 MSTORE SWAP5 SWAP4 POP POP POP POP JUMP JUMPDEST PUSH1 0x0 PUSH1 0x20 DUP3 DUP5 SUB SLT ISZERO PUSH2 0x25AA JUMPI DUP1 DUP2 REVERT JUMPDEST POP CALLDATALOAD SWAP2 SWAP1 POP JUMP JUMPDEST PUSH1 0x0 PUSH1 0x20 DUP3 DUP5 SUB SLT ISZERO PUSH2 0x25C2 JUMPI DUP1 DUP2 REVERT JUMPDEST DUP2 MLOAD PUSH1 0xFF DUP2 AND DUP2 EQ PUSH2 0x1C29 JUMPI DUP2 DUP3 REVERT JUMPDEST PUSH1 0x1 PUSH1 0x1 PUSH1 0xA0 SHL SUB AND SWAP1 MSTORE JUMP JUMPDEST ISZERO ISZERO SWAP1 MSTORE JUMP JUMPDEST PUSH1 0x0 DUP2 MLOAD DUP1 DUP5 MSTORE PUSH2 0x25FD DUP2 PUSH1 0x20 DUP7 ADD PUSH1 0x20 DUP7 ADD PUSH2 0x2AFE JUMP JUMPDEST PUSH1 0x1F ADD PUSH1 0x1F NOT AND SWAP3 SWAP1 SWAP3 ADD PUSH1 0x20 ADD SWAP3 SWAP2 POP POP JUMP JUMPDEST PUSH1 0x0 DUP2 MLOAD PUSH2 0x2623 DUP2 DUP6 PUSH1 0x20 DUP7 ADD PUSH2 0x2AFE JUMP JUMPDEST SWAP3 SWAP1 SWAP3 ADD SWAP3 SWAP2 POP POP JUMP JUMPDEST PUSH6 0xFFFFFFFFFFFF AND SWAP1 MSTORE JUMP JUMPDEST PUSH1 0x0 DUP3 MLOAD PUSH2 0x264B DUP2 DUP5 PUSH1 0x20 DUP8 ADD PUSH2 0x2AFE JUMP JUMPDEST SWAP2 SWAP1 SWAP2 ADD SWAP3 SWAP2 POP POP JUMP JUMPDEST PUSH1 0x0 DUP4 MLOAD PUSH2 0x2667 DUP2 DUP5 PUSH1 0x20 DUP9 ADD PUSH2 0x2AFE JUMP JUMPDEST PUSH1 0x5F PUSH1 0xF8 SHL SWAP1 DUP4 ADD SWAP1 DUP2 MSTORE DUP4 MLOAD PUSH2 0x2685 DUP2 PUSH1 0x1 DUP5 ADD PUSH1 0x20 DUP9 ADD PUSH2 0x2AFE JUMP JUMPDEST ADD PUSH1 0x1 ADD SWAP5 SWAP4 POP POP POP POP JUMP JUMPDEST PUSH1 0x0 DUP6 MLOAD PUSH2 0x26A3 DUP2 DUP5 PUSH1 0x20 DUP11 ADD PUSH2 0x2AFE JUMP JUMPDEST SWAP2 SWAP1 SWAP2 ADD SWAP4 DUP5 MSTORE POP PUSH1 0x20 DUP4 ADD SWAP2 SWAP1 SWAP2 MSTORE PUSH1 0x40 DUP3 ADD MSTORE PUSH1 0x60 ADD SWAP2 SWAP1 POP JUMP JUMPDEST PUSH1 0x0 DUP1 DUP7 SLOAD PUSH1 0x1 DUP1 DUP3 AND PUSH1 0x0 DUP2 EQ PUSH2 0x26DF JUMPI PUSH1 0x1 DUP2 EQ PUSH2 0x26F6 JUMPI PUSH2 0x2725 JUMP JUMPDEST PUSH1 0xFF NOT DUP4 AND DUP7 MSTORE PUSH1 0x2 DUP4 DIV PUSH1 0x7F AND DUP7 ADD SWAP4 POP PUSH2 0x2725 JUMP JUMPDEST PUSH1 0x2 DUP4 DIV DUP11 DUP7 MSTORE PUSH1 0x20 DUP1 DUP8 KECCAK256 DUP8 JUMPDEST DUP4 DUP2 LT ISZERO PUSH2 0x271D JUMPI DUP2 SLOAD DUP11 DUP3 ADD MSTORE SWAP1 DUP6 ADD SWAP1 DUP3 ADD PUSH2 0x2704 JUMP JUMPDEST POP POP POP DUP7 ADD SWAP4 POP JUMPDEST POP POP POP PUSH6 0xFFFFFFFFFFFF PUSH1 0xD0 SHL DUP7 PUSH1 0xD0 SHL AND DUP2 MSTORE DUP5 PUSH1 0x6 DUP3 ADD MSTORE PUSH2 0x274C PUSH1 0x26 DUP3 ADD DUP6 PUSH2 0x2611 JUMP JUMPDEST SWAP8 SWAP7 POP POP POP POP POP POP POP JUMP JUMPDEST PUSH1 0x1 PUSH1 0x1 PUSH1 0xA0 SHL SUB SWAP2 SWAP1 SWAP2 AND DUP2 MSTORE PUSH1 0x20 ADD SWAP1 JUMP JUMPDEST PUSH1 0x1 PUSH1 0x1 PUSH1 0xA0 SHL SUB SWAP3 DUP4 AND DUP2 MSTORE SWAP2 AND PUSH1 0x20 DUP3 ADD MSTORE PUSH1 0x40 ADD SWAP1 JUMP JUMPDEST PUSH1 0x1 PUSH1 0x1 PUSH1 0xA0 SHL SUB SWAP4 DUP5 AND DUP2 MSTORE SWAP2 DUP4 AND PUSH1 0x20 DUP4 ADD MSTORE SWAP1 SWAP2 AND PUSH1 0x40 DUP3 ADD MSTORE PUSH1 0x60 ADD SWAP1 JUMP JUMPDEST PUSH1 0x1 PUSH1 0x1 PUSH1 0xA0 SHL SUB SWAP5 DUP6 AND DUP2 MSTORE SWAP3 DUP5 AND PUSH1 0x20 DUP5 ADD MSTORE SWAP1 DUP4 AND PUSH1 0x40 DUP4 ADD MSTORE SWAP1 SWAP2 AND PUSH1 0x60 DUP3 ADD MSTORE PUSH1 0x80 ADD SWAP1 JUMP JUMPDEST PUSH1 0x1 PUSH1 0x1 PUSH1 0xA0 SHL SUB SWAP4 DUP5 AND DUP2 MSTORE SWAP2 SWAP1 SWAP3 AND PUSH1 0x20 DUP3 ADD MSTORE SWAP1 ISZERO ISZERO PUSH1 0x40 DUP3 ADD MSTORE PUSH1 0x60 ADD SWAP1 JUMP JUMPDEST PUSH1 0x1 PUSH1 0x1 PUSH1 0xA0 SHL SUB DUP5 DUP2 AND DUP3 MSTORE DUP4 AND PUSH1 0x20 DUP3 ADD MSTORE PUSH1 0x60 PUSH1 0x40 DUP3 ADD DUP2 SWAP1 MSTORE PUSH1 0x0 SWAP1 PUSH2 0x2435 SWAP1 DUP4 ADD DUP5 PUSH2 0x25E5 JUMP JUMPDEST PUSH1 0x1 PUSH1 0x1 PUSH1 0xA0 SHL SUB SWAP3 SWAP1 SWAP3 AND DUP3 MSTORE PUSH1 0x20 DUP3 ADD MSTORE PUSH1 0x40 ADD SWAP1 JUMP JUMPDEST SWAP1 ISZERO ISZERO DUP2 MSTORE PUSH1 0x20 ADD SWAP1 JUMP JUMPDEST PUSH1 0x0 PUSH1 0x20 DUP3 MSTORE PUSH2 0x1C29 PUSH1 0x20 DUP4 ADD DUP5 PUSH2 0x25E5 JUMP JUMPDEST PUSH1 0x0 PUSH1 0x20 DUP3 MSTORE DUP3 MLOAD PUSH1 0x20 DUP4 ADD MSTORE PUSH1 0x1 DUP1 PUSH1 0xA0 SHL SUB PUSH1 0x20 DUP5 ADD MLOAD AND PUSH1 0x40 DUP4 ADD MSTORE PUSH1 0x40 DUP4 ADD MLOAD PUSH1 0xA0 PUSH1 0x60 DUP5 ADD MSTORE PUSH2 0x2892 PUSH1 0xC0 DUP5 ADD DUP3 PUSH2 0x25E5 JUMP JUMPDEST SWAP1 POP PUSH1 0x60 DUP5 ADD MLOAD PUSH1 0x80 DUP5 ADD MSTORE PUSH1 0x80 DUP5 ADD MLOAD PUSH1 0xA0 DUP5 ADD MSTORE DUP1 SWAP2 POP POP SWAP3 SWAP2 POP POP JUMP JUMPDEST PUSH1 0x0 PUSH1 0x20 DUP3 MSTORE DUP3 MLOAD PUSH1 0xC0 PUSH1 0x20 DUP5 ADD MSTORE PUSH2 0x28CF PUSH1 0xE0 DUP5 ADD DUP3 MLOAD PUSH2 0x25D2 JUMP JUMPDEST PUSH1 0x20 DUP2 ADD MLOAD PUSH2 0x160 PUSH2 0x100 DUP2 DUP2 DUP8 ADD MSTORE PUSH2 0x28ED PUSH2 0x240 DUP8 ADD DUP5 PUSH2 0x25E5 JUMP JUMPDEST SWAP3 POP PUSH1 0x40 DUP5 ADD MLOAD PUSH2 0x120 PUSH2 0x2903 DUP2 DUP10 ADD DUP4 PUSH2 0x25D2 JUMP JUMPDEST PUSH1 0x60 DUP7 ADD MLOAD SWAP2 POP PUSH2 0x140 DUP3 DUP2 DUP11 ADD MSTORE PUSH1 0x80 DUP8 ADD MLOAD SWAP3 POP PUSH2 0x2925 DUP6 DUP11 ADD DUP5 PUSH2 0x262D JUMP JUMPDEST PUSH1 0xA0 DUP8 ADD MLOAD DUP10 DUP8 SUB PUSH1 0xDF NOT ADD PUSH2 0x180 DUP12 ADD MSTORE SWAP5 POP PUSH2 0x2943 DUP7 DUP7 PUSH2 0x25E5 JUMP JUMPDEST SWAP6 POP PUSH1 0xC0 DUP8 ADD MLOAD PUSH2 0x1A0 DUP11 ADD MSTORE PUSH1 0xE0 DUP8 ADD MLOAD SWAP5 POP PUSH2 0x2965 PUSH2 0x1C0 DUP11 ADD DUP7 PUSH2 0x25D2 JUMP JUMPDEST SWAP3 DUP7 ADD MLOAD PUSH2 0x1E0 DUP10 ADD MSTORE DUP6 ADD MLOAD PUSH2 0x200 DUP9 ADD MSTORE POP SWAP1 SWAP3 ADD MLOAD SWAP2 POP PUSH2 0x298D PUSH2 0x220 DUP6 ADD DUP4 PUSH2 0x25DF JUMP JUMPDEST PUSH1 0x20 DUP6 ADD MLOAD PUSH1 0x40 DUP6 ADD MSTORE PUSH1 0x40 DUP6 ADD MLOAD SWAP2 POP PUSH2 0x29AB PUSH1 0x60 DUP6 ADD DUP4 PUSH2 0x25DF JUMP JUMPDEST PUSH1 0x60 DUP6 ADD MLOAD SWAP2 POP PUSH2 0x29BF PUSH1 0x80 DUP6 ADD DUP4 PUSH2 0x25D2 JUMP JUMPDEST PUSH1 0x80 DUP6 ADD MLOAD SWAP2 POP PUSH2 0x29D3 PUSH1 0xA0 DUP6 ADD DUP4 PUSH2 0x25D2 JUMP JUMPDEST PUSH1 0xA0 DUP6 ADD MLOAD SWAP2 POP PUSH2 0x1EFA PUSH1 0xC0 DUP6 ADD DUP4 PUSH2 0x25D2 JUMP JUMPDEST DUP2 MLOAD PUSH1 0x1 PUSH1 0x1 PUSH1 0xA0 SHL SUB SWAP1 DUP2 AND DUP3 MSTORE PUSH1 0x20 DUP1 DUP5 ADD MLOAD SWAP1 DUP4 ADD MSTORE PUSH1 0x40 DUP1 DUP5 ADD MLOAD DUP3 AND SWAP1 DUP4 ADD MSTORE PUSH1 0x60 SWAP3 DUP4 ADD MLOAD AND SWAP2 DUP2 ADD SWAP2 SWAP1 SWAP2 MSTORE PUSH1 0x80 ADD SWAP1 JUMP JUMPDEST PUSH1 0x0 PUSH1 0x20 DUP3 MSTORE DUP3 MLOAD PUSH1 0x20 DUP4 ADD MSTORE PUSH1 0x20 DUP4 ADD MLOAD PUSH1 0xA0 PUSH1 0x40 DUP5 ADD MSTORE PUSH2 0x2A46 PUSH1 0xC0 DUP5 ADD DUP3 PUSH2 0x25E5 JUMP JUMPDEST SWAP1 POP PUSH1 0x1 DUP1 PUSH1 0xA0 SHL SUB PUSH1 0x40 DUP6 ADD MLOAD AND PUSH1 0x60 DUP5 ADD MSTORE PUSH1 0x60 DUP5 ADD MLOAD PUSH1 0x80 DUP5 ADD MSTORE PUSH1 0x80 DUP5 ADD MLOAD ISZERO ISZERO PUSH1 0xA0 DUP5 ADD MSTORE DUP1 SWAP2 POP POP SWAP3 SWAP2 POP POP JUMP JUMPDEST SWAP1 DUP2 MSTORE PUSH1 0x20 ADD SWAP1 JUMP JUMPDEST PUSH1 0x0 DUP5 DUP3 MSTORE PUSH1 0x60 PUSH1 0x20 DUP4 ADD MSTORE PUSH2 0x2A9C PUSH1 0x60 DUP4 ADD DUP6 PUSH2 0x25E5 JUMP JUMPDEST DUP3 DUP2 SUB PUSH1 0x40 DUP5 ADD MSTORE PUSH2 0x2AAE DUP2 DUP6 PUSH2 0x25E5 JUMP JUMPDEST SWAP7 SWAP6 POP POP POP POP POP POP JUMP JUMPDEST PUSH1 0x40 MLOAD DUP2 DUP2 ADD PUSH8 0xFFFFFFFFFFFFFFFF DUP2 GT DUP3 DUP3 LT OR ISZERO PUSH2 0x2AD4 JUMPI INVALID JUMPDEST PUSH1 0x40 MSTORE SWAP2 SWAP1 POP JUMP JUMPDEST PUSH1 0x0 PUSH8 0xFFFFFFFFFFFFFFFF DUP3 GT ISZERO PUSH2 0x2AF0 JUMPI INVALID JUMPDEST POP PUSH1 0x1F ADD PUSH1 0x1F NOT AND PUSH1 0x20 ADD SWAP1 JUMP JUMPDEST PUSH1 0x0 JUMPDEST DUP4 DUP2 LT ISZERO PUSH2 0x2B19 JUMPI DUP2 DUP2 ADD MLOAD DUP4 DUP3 ADD MSTORE PUSH1 0x20 ADD PUSH2 0x2B01 JUMP JUMPDEST DUP4 DUP2 GT ISZERO PUSH2 0x2B28 JUMPI PUSH1 0x0 DUP5 DUP5 ADD MSTORE JUMPDEST POP POP POP POP JUMP JUMPDEST DUP1 ISZERO ISZERO DUP2 EQ PUSH2 0x2B3C JUMPI PUSH1 0x0 DUP1 REVERT JUMPDEST POP JUMP INVALID PUSH1 0x80 PUSH1 0x40 MSTORE CALLVALUE DUP1 ISZERO PUSH2 0x10 JUMPI PUSH1 0x0 DUP1 REVERT JUMPDEST POP PUSH2 0x747 DUP1 PUSH2 0x20 PUSH1 0x0 CODECOPY PUSH1 0x0 RETURN INVALID PUSH1 0x80 PUSH1 0x40 MSTORE PUSH1 0x4 CALLDATASIZE LT PUSH2 0x59 JUMPI PUSH1 0x0 CALLDATALOAD PUSH1 0xE0 SHR DUP1 PUSH4 0x3659CFE6 EQ PUSH2 0x70 JUMPI DUP1 PUSH4 0x4F1EF286 EQ PUSH2 0xA3 JUMPI DUP1 PUSH4 0x5C60DA1B EQ PUSH2 0x123 JUMPI DUP1 PUSH4 0x8F283970 EQ PUSH2 0x154 JUMPI DUP1 PUSH4 0xCF7A1D77 EQ PUSH2 0x187 JUMPI DUP1 PUSH4 0xF851A440 EQ PUSH2 0x246 JUMPI PUSH2 0x68 JUMP JUMPDEST CALLDATASIZE PUSH2 0x68 JUMPI PUSH2 0x66 PUSH2 0x25B JUMP JUMPDEST STOP JUMPDEST PUSH2 0x66 PUSH2 0x25B JUMP JUMPDEST CALLVALUE DUP1 ISZERO PUSH2 0x7C JUMPI PUSH1 0x0 DUP1 REVERT JUMPDEST POP PUSH2 0x66 PUSH1 0x4 DUP1 CALLDATASIZE SUB PUSH1 0x20 DUP2 LT ISZERO PUSH2 0x93 JUMPI PUSH1 0x0 DUP1 REVERT JUMPDEST POP CALLDATALOAD PUSH1 0x1 PUSH1 0x1 PUSH1 0xA0 SHL SUB AND PUSH2 0x275 JUMP JUMPDEST PUSH2 0x66 PUSH1 0x4 DUP1 CALLDATASIZE SUB PUSH1 0x40 DUP2 LT ISZERO PUSH2 0xB9 JUMPI PUSH1 0x0 DUP1 REVERT JUMPDEST PUSH1 0x1 PUSH1 0x1 PUSH1 0xA0 SHL SUB DUP3 CALLDATALOAD AND SWAP2 SWAP1 DUP2 ADD SWAP1 PUSH1 0x40 DUP2 ADD PUSH1 0x20 DUP3 ADD CALLDATALOAD PUSH5 0x100000000 DUP2 GT ISZERO PUSH2 0xE4 JUMPI PUSH1 0x0 DUP1 REVERT JUMPDEST DUP3 ADD DUP4 PUSH1 0x20 DUP3 ADD GT ISZERO PUSH2 0xF6 JUMPI PUSH1 0x0 DUP1 REVERT JUMPDEST DUP1 CALLDATALOAD SWAP1 PUSH1 0x20 ADD SWAP2 DUP5 PUSH1 0x1 DUP4 MUL DUP5 ADD GT PUSH5 0x100000000 DUP4 GT OR ISZERO PUSH2 0x118 JUMPI PUSH1 0x0 DUP1 REVERT JUMPDEST POP SWAP1 SWAP3 POP SWAP1 POP PUSH2 0x2AF JUMP JUMPDEST CALLVALUE DUP1 ISZERO PUSH2 0x12F JUMPI PUSH1 0x0 DUP1 REVERT JUMPDEST POP PUSH2 0x138 PUSH2 0x35C JUMP JUMPDEST PUSH1 0x40 DUP1 MLOAD PUSH1 0x1 PUSH1 0x1 PUSH1 0xA0 SHL SUB SWAP1 SWAP3 AND DUP3 MSTORE MLOAD SWAP1 DUP2 SWAP1 SUB PUSH1 0x20 ADD SWAP1 RETURN JUMPDEST CALLVALUE DUP1 ISZERO PUSH2 0x160 JUMPI PUSH1 0x0 DUP1 REVERT JUMPDEST POP PUSH2 0x66 PUSH1 0x4 DUP1 CALLDATASIZE SUB PUSH1 0x20 DUP2 LT ISZERO PUSH2 0x177 JUMPI PUSH1 0x0 DUP1 REVERT JUMPDEST POP CALLDATALOAD PUSH1 0x1 PUSH1 0x1 PUSH1 0xA0 SHL SUB AND PUSH2 0x399 JUMP JUMPDEST PUSH2 0x66 PUSH1 0x4 DUP1 CALLDATASIZE SUB PUSH1 0x60 DUP2 LT ISZERO PUSH2 0x19D JUMPI PUSH1 0x0 DUP1 REVERT JUMPDEST PUSH1 0x1 PUSH1 0x1 PUSH1 0xA0 SHL SUB DUP3 CALLDATALOAD DUP2 AND SWAP3 PUSH1 0x20 DUP2 ADD CALLDATALOAD SWAP1 SWAP2 AND SWAP2 DUP2 ADD SWAP1 PUSH1 0x60 DUP2 ADD PUSH1 0x40 DUP3 ADD CALLDATALOAD PUSH5 0x100000000 DUP2 GT ISZERO PUSH2 0x1D1 JUMPI PUSH1 0x0 DUP1 REVERT JUMPDEST DUP3 ADD DUP4 PUSH1 0x20 DUP3 ADD GT ISZERO PUSH2 0x1E3 JUMPI PUSH1 0x0 DUP1 REVERT JUMPDEST DUP1 CALLDATALOAD SWAP1 PUSH1 0x20 ADD SWAP2 DUP5 PUSH1 0x1 DUP4 MUL DUP5 ADD GT PUSH5 0x100000000 DUP4 GT OR ISZERO PUSH2 0x205 JUMPI PUSH1 0x0 DUP1 REVERT JUMPDEST SWAP2 SWAP1 DUP1 DUP1 PUSH1 0x1F ADD PUSH1 0x20 DUP1 SWAP2 DIV MUL PUSH1 0x20 ADD PUSH1 0x40 MLOAD SWAP1 DUP2 ADD PUSH1 0x40 MSTORE DUP1 SWAP4 SWAP3 SWAP2 SWAP1 DUP2 DUP2 MSTORE PUSH1 0x20 ADD DUP4 DUP4 DUP1 DUP3 DUP5 CALLDATACOPY PUSH1 0x0 SWAP3 ADD SWAP2 SWAP1 SWAP2 MSTORE POP SWAP3 SWAP6 POP PUSH2 0x453 SWAP5 POP POP POP POP POP JUMP JUMPDEST CALLVALUE DUP1 ISZERO PUSH2 0x252 JUMPI PUSH1 0x0 DUP1 REVERT JUMPDEST POP PUSH2 0x138 PUSH2 0x53A JUMP JUMPDEST PUSH2 0x263 PUSH2 0x273 JUMP JUMPDEST PUSH2 0x273 PUSH2 0x26E PUSH2 0x565 JUMP JUMPDEST PUSH2 0x58A JUMP JUMPDEST JUMP JUMPDEST PUSH2 0x27D PUSH2 0x5AE JUMP JUMPDEST PUSH1 0x1 PUSH1 0x1 PUSH1 0xA0 SHL SUB AND CALLER PUSH1 0x1 PUSH1 0x1 PUSH1 0xA0 SHL SUB AND EQ ISZERO PUSH2 0x2A4 JUMPI PUSH2 0x29F DUP2 PUSH2 0x5D3 JUMP JUMPDEST PUSH2 0x2AC JUMP JUMPDEST PUSH2 0x2AC PUSH2 0x25B JUMP JUMPDEST POP JUMP JUMPDEST PUSH2 0x2B7 PUSH2 0x5AE JUMP JUMPDEST PUSH1 0x1 PUSH1 0x1 PUSH1 0xA0 SHL SUB AND CALLER PUSH1 0x1 PUSH1 0x1 PUSH1 0xA0 SHL SUB AND EQ ISZERO PUSH2 0x34F JUMPI PUSH2 0x2D9 DUP4 PUSH2 0x5D3 JUMP JUMPDEST PUSH1 0x0 DUP4 PUSH1 0x1 PUSH1 0x1 PUSH1 0xA0 SHL SUB AND DUP4 DUP4 PUSH1 0x40 MLOAD DUP1 DUP4 DUP4 DUP1 DUP3 DUP5 CALLDATACOPY PUSH1 0x40 MLOAD SWAP3 ADD SWAP5 POP PUSH1 0x0 SWAP4 POP SWAP1 SWAP2 POP POP DUP1 DUP4 SUB DUP2 DUP6 GAS DELEGATECALL SWAP2 POP POP RETURNDATASIZE DUP1 PUSH1 0x0 DUP2 EQ PUSH2 0x336 JUMPI PUSH1 0x40 MLOAD SWAP2 POP PUSH1 0x1F NOT PUSH1 0x3F RETURNDATASIZE ADD AND DUP3 ADD PUSH1 0x40 MSTORE RETURNDATASIZE DUP3 MSTORE RETURNDATASIZE PUSH1 0x0 PUSH1 0x20 DUP5 ADD RETURNDATACOPY PUSH2 0x33B JUMP JUMPDEST PUSH1 0x60 SWAP2 POP JUMPDEST POP POP SWAP1 POP DUP1 PUSH2 0x349 JUMPI PUSH1 0x0 DUP1 REVERT JUMPDEST POP PUSH2 0x357 JUMP JUMPDEST PUSH2 0x357 PUSH2 0x25B JUMP JUMPDEST POP POP POP JUMP JUMPDEST PUSH1 0x0 PUSH2 0x366 PUSH2 0x5AE JUMP JUMPDEST PUSH1 0x1 PUSH1 0x1 PUSH1 0xA0 SHL SUB AND CALLER PUSH1 0x1 PUSH1 0x1 PUSH1 0xA0 SHL SUB AND EQ ISZERO PUSH2 0x38E JUMPI PUSH2 0x387 PUSH2 0x565 JUMP JUMPDEST SWAP1 POP PUSH2 0x396 JUMP JUMPDEST PUSH2 0x396 PUSH2 0x25B JUMP JUMPDEST SWAP1 JUMP JUMPDEST PUSH2 0x3A1 PUSH2 0x5AE JUMP JUMPDEST PUSH1 0x1 PUSH1 0x1 PUSH1 0xA0 SHL SUB AND CALLER PUSH1 0x1 PUSH1 0x1 PUSH1 0xA0 SHL SUB AND EQ ISZERO PUSH2 0x2A4 JUMPI PUSH1 0x1 PUSH1 0x1 PUSH1 0xA0 SHL SUB DUP2 AND PUSH2 0x3FF JUMPI PUSH1 0x40 MLOAD PUSH3 0x461BCD PUSH1 0xE5 SHL DUP2 MSTORE PUSH1 0x4 ADD DUP1 DUP1 PUSH1 0x20 ADD DUP3 DUP2 SUB DUP3 MSTORE PUSH1 0x36 DUP2 MSTORE PUSH1 0x20 ADD DUP1 PUSH2 0x6A6 PUSH1 0x36 SWAP2 CODECOPY PUSH1 0x40 ADD SWAP2 POP POP PUSH1 0x40 MLOAD DUP1 SWAP2 SUB SWAP1 REVERT JUMPDEST PUSH32 0x7E644D79422F17C01E4894B5F4F588D331EBFA28653D42AE832DC59E38C9798F PUSH2 0x428 PUSH2 0x5AE JUMP JUMPDEST PUSH1 0x40 DUP1 MLOAD PUSH1 0x1 PUSH1 0x1 PUSH1 0xA0 SHL SUB SWAP3 DUP4 AND DUP2 MSTORE SWAP2 DUP5 AND PUSH1 0x20 DUP4 ADD MSTORE DUP1 MLOAD SWAP2 DUP3 SWAP1 SUB ADD SWAP1 LOG1 PUSH2 0x29F DUP2 PUSH2 0x613 JUMP JUMPDEST PUSH1 0x0 PUSH2 0x45D PUSH2 0x565 JUMP JUMPDEST PUSH1 0x1 PUSH1 0x1 PUSH1 0xA0 SHL SUB AND EQ PUSH2 0x470 JUMPI PUSH1 0x0 DUP1 REVERT JUMPDEST PUSH2 0x479 DUP4 PUSH2 0x637 JUMP JUMPDEST DUP1 MLOAD ISZERO PUSH2 0x531 JUMPI PUSH1 0x0 DUP4 PUSH1 0x1 PUSH1 0x1 PUSH1 0xA0 SHL SUB AND DUP3 PUSH1 0x40 MLOAD DUP1 DUP3 DUP1 MLOAD SWAP1 PUSH1 0x20 ADD SWAP1 DUP1 DUP4 DUP4 JUMPDEST PUSH1 0x20 DUP4 LT PUSH2 0x4BC JUMPI DUP1 MLOAD DUP3 MSTORE PUSH1 0x1F NOT SWAP1 SWAP3 ADD SWAP2 PUSH1 0x20 SWAP2 DUP3 ADD SWAP2 ADD PUSH2 0x49D JUMP JUMPDEST PUSH1 0x1 DUP4 PUSH1 0x20 SUB PUSH2 0x100 EXP SUB DUP1 NOT DUP3 MLOAD AND DUP2 DUP5 MLOAD AND DUP1 DUP3 OR DUP6 MSTORE POP POP POP POP POP POP SWAP1 POP ADD SWAP2 POP POP PUSH1 0x0 PUSH1 0x40 MLOAD DUP1 DUP4 SUB DUP2 DUP6 GAS DELEGATECALL SWAP2 POP POP RETURNDATASIZE DUP1 PUSH1 0x0 DUP2 EQ PUSH2 0x51C JUMPI PUSH1 0x40 MLOAD SWAP2 POP PUSH1 0x1F NOT PUSH1 0x3F RETURNDATASIZE ADD AND DUP3 ADD PUSH1 0x40 MSTORE RETURNDATASIZE DUP3 MSTORE RETURNDATASIZE PUSH1 0x0 PUSH1 0x20 DUP5 ADD RETURNDATACOPY PUSH2 0x521 JUMP JUMPDEST PUSH1 0x60 SWAP2 POP JUMPDEST POP POP SWAP1 POP DUP1 PUSH2 0x52F JUMPI PUSH1 0x0 DUP1 REVERT JUMPDEST POP JUMPDEST PUSH2 0x357 DUP3 PUSH2 0x613 JUMP JUMPDEST PUSH1 0x0 PUSH2 0x544 PUSH2 0x5AE JUMP JUMPDEST PUSH1 0x1 PUSH1 0x1 PUSH1 0xA0 SHL SUB AND CALLER PUSH1 0x1 PUSH1 0x1 PUSH1 0xA0 SHL SUB AND EQ ISZERO PUSH2 0x38E JUMPI PUSH2 0x387 PUSH2 0x5AE JUMP JUMPDEST PUSH32 0x360894A13BA1A3210667C828492DB98DCA3E2076CC3735A920A3CA505D382BBC SLOAD SWAP1 JUMP JUMPDEST CALLDATASIZE PUSH1 0x0 DUP1 CALLDATACOPY PUSH1 0x0 DUP1 CALLDATASIZE PUSH1 0x0 DUP5 GAS DELEGATECALL RETURNDATASIZE PUSH1 0x0 DUP1 RETURNDATACOPY DUP1 DUP1 ISZERO PUSH2 0x5A9 JUMPI RETURNDATASIZE PUSH1 0x0 RETURN JUMPDEST RETURNDATASIZE PUSH1 0x0 REVERT JUMPDEST PUSH32 0xB53127684A568B3173AE13B9F8A6016E243E63B6E8EE1178D6A717850B5D6103 SLOAD SWAP1 JUMP JUMPDEST PUSH2 0x5DC DUP2 PUSH2 0x637 JUMP JUMPDEST PUSH1 0x40 MLOAD PUSH1 0x1 PUSH1 0x1 PUSH1 0xA0 SHL SUB DUP3 AND SWAP1 PUSH32 0xBC7CD75A20EE27FD9ADEBAB32041F755214DBC6BFFA90CC0225B39DA2E5C2D3B SWAP1 PUSH1 0x0 SWAP1 LOG2 POP JUMP JUMPDEST PUSH32 0xB53127684A568B3173AE13B9F8A6016E243E63B6E8EE1178D6A717850B5D6103 SSTORE JUMP JUMPDEST PUSH2 0x640 DUP2 PUSH2 0x69F JUMP JUMPDEST PUSH2 0x67B JUMPI PUSH1 0x40 MLOAD PUSH3 0x461BCD PUSH1 0xE5 SHL DUP2 MSTORE PUSH1 0x4 ADD DUP1 DUP1 PUSH1 0x20 ADD DUP3 DUP2 SUB DUP3 MSTORE PUSH1 0x36 DUP2 MSTORE PUSH1 0x20 ADD DUP1 PUSH2 0x6DC PUSH1 0x36 SWAP2 CODECOPY PUSH1 0x40 ADD SWAP2 POP POP PUSH1 0x40 MLOAD DUP1 SWAP2 SUB SWAP1 REVERT JUMPDEST PUSH32 0x360894A13BA1A3210667C828492DB98DCA3E2076CC3735A920A3CA505D382BBC SSTORE JUMP JUMPDEST EXTCODESIZE ISZERO ISZERO SWAP1 JUMP INVALID NUMBER PUSH2 0x6E6E PUSH16 0x74206368616E6765207468652061646D PUSH10 0x6E206F6620612070726F PUSH25 0x7920746F20746865207A65726F206164647265737355706772 PUSH2 0x6465 PUSH2 0x626C PUSH6 0x50726F78793A KECCAK256 PUSH15 0x657720696D706C656D656E74617469 PUSH16 0x6E206973206E6F74206120636F6E7472 PUSH2 0x6374 LOG2 PUSH5 0x6970667358 0x22 SLT KECCAK256 PUSH17 0xAE27BC6C675C66B87C1D4103F3B8E1C44D 0xEA SWAP7 CALLDATASIZE COINBASE EQ PUSH2 0x7FD0 0xFB GT 0xE1 0xF8 DUP5 0xD4 PUSH5 0x736F6C6343 STOP SMOD DIV STOP CALLER 0x4F PUSH24 0x6E61626C653A206E6577206F776E65722069732074686520 PUSH27 0x65726F2061646472657373A26469706673582212201E797D271F4C SHR 0xC7 TIMESTAMP DUP14 TIMESTAMP 0xC9 PUSH26 0xDEDD0EFBBC26965423FF41C93F7C861F2AFA1A64736F6C634300 SMOD DIV STOP CALLER "
		},
		"gasEstimates": {
			"creation": {
				"codeDepositCost": "2611600",
				"executionCost": "infinite",
				"totalCost": "infinite"
			},
			"external": {
				"ISMActuary()": "1115",
				"ISMERC20Implementation()": "1116",
				"ISMPolicy()": "1136",
				"addProtocols(string,address,uint256)": "infinite",
				"addcollateral(address)": "infinite",
				"addproduct((address,string,address,uint256,uint48,string,uint256,address,uint256,uint256,bool))": "infinite",
				"burnClaimAndUnclaim(address,address,uint256)": "infinite",
				"createPremiumToken(address)": "infinite",
				"getProtocols(address)": "infinite",
				"getcollateral(address)": "infinite",
				"getcollaterallist()": "1096",
				"getcollaterallistData(uint256)": "2936",
				"getexpirationTimestamps(address)": "1367",
				"getexpirationTimestampsAndName(address)": "infinite",
				"getproductTokens(address)": "infinite",
				"getproducts(address)": "infinite",
				"getprotocolAddress()": "1096",
				"getprotocolAddressData(uint256)": "2958",
				"getprotocolProductAdddress(address)": "1381",
				"getprotocolProductAdddressData(address,uint256)": "3234",
				"initializeOwner()": "23416",
				"mintClaimAndUnclaim(address,address,uint256)": "infinite",
				"owner()": "1160",
				"setISMActuary(address)": "23980",
				"setISMPolicy(address)": "23224",
				"setProtocols(address,bool)": "24998",
				"setproduct(address,bool)": "24976",
				"transferOwnership(address)": "infinite"
			},
			"internal": {
				"computeAddress(bytes32,address)": "infinite",
				"createToken(address,string memory)": "infinite",
				"getAddress(string memory)": "infinite",
				"getProtocolAddr(string memory)": "infinite"
			}
		},
		"methodIdentifiers": {
			"ISMActuary()": "c18958ea",
			"ISMERC20Implementation()": "157d129f",
			"ISMPolicy()": "ec026651",
			"addProtocols(string,address,uint256)": "72b8dc04",
			"addcollateral(address)": "1f1c8744",
			"addproduct((address,string,address,uint256,uint48,string,uint256,address,uint256,uint256,bool))": "a4f6fc5e",
			"burnClaimAndUnclaim(address,address,uint256)": "f044c3be",
			"createPremiumToken(address)": "eb1969ea",
			"getProtocols(address)": "2a133502",
			"getcollateral(address)": "85444053",
			"getcollaterallist()": "494bedad",
			"getcollaterallistData(uint256)": "6d34d7da",
			"getexpirationTimestamps(address)": "8e74a7de",
			"getexpirationTimestampsAndName(address)": "0a6d41b0",
			"getproductTokens(address)": "1fd57f9b",
			"getproducts(address)": "c4228d81",
			"getprotocolAddress()": "8ae84766",
			"getprotocolAddressData(uint256)": "af121711",
			"getprotocolProductAdddress(address)": "be6cc6d4",
			"getprotocolProductAdddressData(address,uint256)": "5660d937",
			"initializeOwner()": "5f53837f",
			"mintClaimAndUnclaim(address,address,uint256)": "28947a34",
			"owner()": "8da5cb5b",
			"setISMActuary(address)": "09c2202c",
			"setISMPolicy(address)": "1010c8e3",
			"setProtocols(address,bool)": "7ec0d1b4",
			"setproduct(address,bool)": "cfcfdd36",
			"transferOwnership(address)": "f2fde38b"
		}
	},
	"abi": [
		{
			"inputs": [
				{
					"internalType": "address",
					"name": "_ISMERC20Implementation",
					"type": "address"
				}
			],
			"stateMutability": "nonpayable",
			"type": "constructor"
		},
		{
			"anonymous": false,
			"inputs": [
				{
					"indexed": false,
					"internalType": "address",
					"name": "protocolAddress",
					"type": "address"
				},
				{
					"indexed": false,
					"internalType": "address",
					"name": "coverAddress",
					"type": "address"
				}
			],
			"name": "AddProtocol",
			"type": "event"
		},
		{
			"anonymous": false,
			"inputs": [
				{
					"indexed": false,
					"internalType": "address",
					"name": "who",
					"type": "address"
				},
				{
					"indexed": false,
					"internalType": "address",
					"name": "protocolAddress",
					"type": "address"
				},
				{
					"indexed": false,
					"internalType": "address",
					"name": "productAddress",
					"type": "address"
				}
			],
			"name": "Addproduct",
			"type": "event"
		},
		{
			"anonymous": false,
			"inputs": [
				{
					"indexed": false,
					"internalType": "address",
					"name": "who",
					"type": "address"
				},
				{
					"indexed": false,
					"internalType": "address",
					"name": "productAddress",
					"type": "address"
				},
				{
					"indexed": false,
					"internalType": "address",
					"name": "CLAIMAddr",
					"type": "address"
				},
				{
					"indexed": false,
					"internalType": "address",
					"name": "UNCLAIMAddr",
					"type": "address"
				}
			],
			"name": "CreatePremiumToken",
			"type": "event"
		},
		{
			"anonymous": false,
			"inputs": [
				{
					"indexed": false,
					"internalType": "address",
					"name": "who",
					"type": "address"
				},
				{
					"indexed": false,
					"internalType": "address",
					"name": "tokenAddress",
					"type": "address"
				}
			],
			"name": "CreateToken",
			"type": "event"
		},
		{
			"anonymous": false,
			"inputs": [
				{
					"indexed": false,
					"internalType": "address",
					"name": "ISMActuary",
					"type": "address"
				}
			],
			"name": "LogISMActuaryUpdated",
			"type": "event"
		},
		{
			"anonymous": false,
			"inputs": [
				{
					"indexed": false,
					"internalType": "address",
					"name": "ISMPolicy",
					"type": "address"
				}
			],
			"name": "LogISMPolicyUpdated",
			"type": "event"
		},
		{
			"anonymous": false,
			"inputs": [
				{
					"indexed": true,
					"internalType": "address",
					"name": "previousOwner",
					"type": "address"
				},
				{
					"indexed": true,
					"internalType": "address",
					"name": "newOwner",
					"type": "address"
				}
			],
			"name": "OwnershipTransferCompleted",
			"type": "event"
		},
		{
			"anonymous": false,
			"inputs": [
				{
					"indexed": true,
					"internalType": "address",
					"name": "previousOwner",
					"type": "address"
				},
				{
					"indexed": true,
					"internalType": "address",
					"name": "newOwner",
					"type": "address"
				}
			],
			"name": "OwnershipTransferInitiated",
			"type": "event"
		},
		{
			"anonymous": false,
			"inputs": [
				{
					"indexed": false,
					"internalType": "address",
					"name": "who",
					"type": "address"
				},
				{
					"indexed": false,
					"internalType": "address",
					"name": "protocolAddress",
					"type": "address"
				},
				{
					"indexed": false,
					"internalType": "bool",
					"name": "active",
					"type": "bool"
				}
			],
			"name": "SetProtocols",
			"type": "event"
		},
		{
			"anonymous": false,
			"inputs": [
				{
					"indexed": false,
					"internalType": "address",
					"name": "who",
					"type": "address"
				},
				{
					"indexed": false,
					"internalType": "address",
					"name": "productAddress",
					"type": "address"
				},
				{
					"indexed": false,
					"internalType": "bool",
					"name": "active",
					"type": "bool"
				}
			],
			"name": "Setproduct",
			"type": "event"
		},
		{
			"inputs": [],
			"name": "ISMActuary",
			"outputs": [
				{
					"internalType": "address",
					"name": "",
					"type": "address"
				}
			],
			"stateMutability": "view",
			"type": "function"
		},
		{
			"inputs": [],
			"name": "ISMERC20Implementation",
			"outputs": [
				{
					"internalType": "address",
					"name": "",
					"type": "address"
				}
			],
			"stateMutability": "view",
			"type": "function"
		},
		{
			"inputs": [],
			"name": "ISMPolicy",
			"outputs": [
				{
					"internalType": "address",
					"name": "",
					"type": "address"
				}
			],
			"stateMutability": "view",
			"type": "function"
		},
		{
			"inputs": [
				{
					"internalType": "string",
					"name": "protocolName",
					"type": "string"
				},
				{
					"internalType": "address",
					"name": "coverAddress",
					"type": "address"
				},
				{
					"internalType": "uint256",
					"name": "coverdecimals",
					"type": "uint256"
				}
			],
			"name": "addProtocols",
			"outputs": [
				{
					"internalType": "address",
					"name": "",
					"type": "address"
				}
			],
			"stateMutability": "nonpayable",
			"type": "function"
		},
		{
			"inputs": [
				{
					"internalType": "address",
					"name": "collateral",
					"type": "address"
				}
			],
			"name": "addcollateral",
			"outputs": [
				{
					"internalType": "bool",
					"name": "",
					"type": "bool"
				}
			],
			"stateMutability": "nonpayable",
			"type": "function"
		},
		{
			"inputs": [
				{
					"components": [
						{
							"internalType": "address",
							"name": "protocolAddress",
							"type": "address"
						},
						{
							"internalType": "string",
							"name": "productName",
							"type": "string"
						},
						{
							"internalType": "address",
							"name": "coverAddress",
							"type": "address"
						},
						{
							"internalType": "uint256",
							"name": "coverdecimals",
							"type": "uint256"
						},
						{
							"internalType": "uint48",
							"name": "expirationTimestamps",
							"type": "uint48"
						},
						{
							"internalType": "string",
							"name": "expirationTimestampsName",
							"type": "string"
						},
						{
							"internalType": "uint256",
							"name": "noice",
							"type": "uint256"
						},
						{
							"internalType": "address",
							"name": "collateral",
							"type": "address"
						},
						{
							"internalType": "uint256",
							"name": "collateralPrice",
							"type": "uint256"
						},
						{
							"internalType": "uint256",
							"name": "collateraldecimals",
							"type": "uint256"
						},
						{
							"internalType": "bool",
							"name": "usdtType",
							"type": "bool"
						}
					],
					"internalType": "struct ISMFactory.productInfoHead",
					"name": "productHead",
					"type": "tuple"
				}
			],
			"name": "addproduct",
			"outputs": [
				{
					"internalType": "address",
					"name": "",
					"type": "address"
				}
			],
			"stateMutability": "nonpayable",
			"type": "function"
		},
		{
			"inputs": [
				{
					"internalType": "address",
					"name": "token",
					"type": "address"
				},
				{
					"internalType": "address",
					"name": "who",
					"type": "address"
				},
				{
					"internalType": "uint256",
					"name": "amount",
					"type": "uint256"
				}
			],
			"name": "burnClaimAndUnclaim",
			"outputs": [
				{
					"internalType": "bool",
					"name": "",
					"type": "bool"
				}
			],
			"stateMutability": "nonpayable",
			"type": "function"
		},
		{
			"inputs": [
				{
					"internalType": "address",
					"name": "productAddress",
					"type": "address"
				}
			],
			"name": "createPremiumToken",
			"outputs": [
				{
					"internalType": "bool",
					"name": "",
					"type": "bool"
				}
			],
			"stateMutability": "nonpayable",
			"type": "function"
		},
		{
			"inputs": [
				{
					"internalType": "address",
					"name": "addr",
					"type": "address"
				}
			],
			"name": "getProtocols",
			"outputs": [
				{
					"components": [
						{
							"internalType": "uint256",
							"name": "timestamps",
							"type": "uint256"
						},
						{
							"internalType": "string",
							"name": "protocolName",
							"type": "string"
						},
						{
							"internalType": "address",
							"name": "coverAddress",
							"type": "address"
						},
						{
							"internalType": "uint256",
							"name": "coverdecimals",
							"type": "uint256"
						},
						{
							"internalType": "bool",
							"name": "active",
							"type": "bool"
						}
					],
					"internalType": "struct ISMFactory.protocolInfo",
					"name": "",
					"type": "tuple"
				}
			],
			"stateMutability": "view",
			"type": "function"
		},
		{
			"inputs": [
				{
					"internalType": "address",
					"name": "collateral",
					"type": "address"
				}
			],
			"name": "getcollateral",
			"outputs": [
				{
					"components": [
						{
							"internalType": "uint256",
							"name": "timestamps",
							"type": "uint256"
						},
						{
							"internalType": "address",
							"name": "collateral",
							"type": "address"
						},
						{
							"internalType": "string",
							"name": "symbol",
							"type": "string"
						},
						{
							"internalType": "uint256",
							"name": "decimals",
							"type": "uint256"
						},
						{
							"internalType": "uint256",
							"name": "collateralTotal",
							"type": "uint256"
						}
					],
					"internalType": "struct ISMFactory.collateralInfo",
					"name": "",
					"type": "tuple"
				}
			],
			"stateMutability": "view",
			"type": "function"
		},
		{
			"inputs": [],
			"name": "getcollaterallist",
			"outputs": [
				{
					"internalType": "uint256",
					"name": "",
					"type": "uint256"
				}
			],
			"stateMutability": "view",
			"type": "function"
		},
		{
			"inputs": [
				{
					"internalType": "uint256",
					"name": "index",
					"type": "uint256"
				}
			],
			"name": "getcollaterallistData",
			"outputs": [
				{
					"internalType": "address",
					"name": "",
					"type": "address"
				}
			],
			"stateMutability": "view",
			"type": "function"
		},
		{
			"inputs": [
				{
					"internalType": "address",
					"name": "productAddress",
					"type": "address"
				}
			],
			"name": "getexpirationTimestamps",
			"outputs": [
				{
					"internalType": "uint256",
					"name": "",
					"type": "uint256"
				}
			],
			"stateMutability": "view",
			"type": "function"
		},
		{
			"inputs": [
				{
					"internalType": "address",
					"name": "productAddress",
					"type": "address"
				}
			],
			"name": "getexpirationTimestampsAndName",
			"outputs": [
				{
					"internalType": "uint256",
					"name": "",
					"type": "uint256"
				},
				{
					"internalType": "string",
					"name": "",
					"type": "string"
				},
				{
					"internalType": "string",
					"name": "",
					"type": "string"
				}
			],
			"stateMutability": "view",
			"type": "function"
		},
		{
			"inputs": [
				{
					"internalType": "address",
					"name": "productAddress",
					"type": "address"
				}
			],
			"name": "getproductTokens",
			"outputs": [
				{
					"components": [
						{
							"internalType": "address",
							"name": "productAddress",
							"type": "address"
						},
						{
							"internalType": "uint256",
							"name": "timestamps",
							"type": "uint256"
						},
						{
							"internalType": "address",
							"name": "CLAIMTOKEN",
							"type": "address"
						},
						{
							"internalType": "address",
							"name": "UNCLAIMTOKEN",
							"type": "address"
						}
					],
					"internalType": "struct ISMFactory.productTokenInfo",
					"name": "",
					"type": "tuple"
				}
			],
			"stateMutability": "view",
			"type": "function"
		},
		{
			"inputs": [
				{
					"internalType": "address",
					"name": "addr",
					"type": "address"
				}
			],
			"name": "getproducts",
			"outputs": [
				{
					"components": [
						{
							"components": [
								{
									"internalType": "address",
									"name": "protocolAddress",
									"type": "address"
								},
								{
									"internalType": "string",
									"name": "productName",
									"type": "string"
								},
								{
									"internalType": "address",
									"name": "coverAddress",
									"type": "address"
								},
								{
									"internalType": "uint256",
									"name": "coverdecimals",
									"type": "uint256"
								},
								{
									"internalType": "uint48",
									"name": "expirationTimestamps",
									"type": "uint48"
								},
								{
									"internalType": "string",
									"name": "expirationTimestampsName",
									"type": "string"
								},
								{
									"internalType": "uint256",
									"name": "noice",
									"type": "uint256"
								},
								{
									"internalType": "address",
									"name": "collateral",
									"type": "address"
								},
								{
									"internalType": "uint256",
									"name": "collateralPrice",
									"type": "uint256"
								},
								{
									"internalType": "uint256",
									"name": "collateraldecimals",
									"type": "uint256"
								},
								{
									"internalType": "bool",
									"name": "usdtType",
									"type": "bool"
								}
							],
							"internalType": "struct ISMFactory.productInfoHead",
							"name": "productHead",
							"type": "tuple"
						},
						{
							"internalType": "uint256",
							"name": "timestamps",
							"type": "uint256"
						},
						{
							"internalType": "bool",
							"name": "active",
							"type": "bool"
						},
						{
							"internalType": "address",
							"name": "productAddress",
							"type": "address"
						},
						{
							"internalType": "address",
							"name": "CLAIMTOKEN",
							"type": "address"
						},
						{
							"internalType": "address",
							"name": "UNCLAIMTOKEN",
							"type": "address"
						}
					],
					"internalType": "struct ISMFactory.productInfo",
					"name": "",
					"type": "tuple"
				}
			],
			"stateMutability": "view",
			"type": "function"
		},
		{
			"inputs": [],
			"name": "getprotocolAddress",
			"outputs": [
				{
					"internalType": "uint256",
					"name": "",
					"type": "uint256"
				}
			],
			"stateMutability": "view",
			"type": "function"
		},
		{
			"inputs": [
				{
					"internalType": "uint256",
					"name": "index",
					"type": "uint256"
				}
			],
			"name": "getprotocolAddressData",
			"outputs": [
				{
					"internalType": "address",
					"name": "",
					"type": "address"
				}
			],
			"stateMutability": "view",
			"type": "function"
		},
		{
			"inputs": [
				{
					"internalType": "address",
					"name": "addr",
					"type": "address"
				}
			],
			"name": "getprotocolProductAdddress",
			"outputs": [
				{
					"internalType": "uint256",
					"name": "",
					"type": "uint256"
				}
			],
			"stateMutability": "view",
			"type": "function"
		},
		{
			"inputs": [
				{
					"internalType": "address",
					"name": "addr",
					"type": "address"
				},
				{
					"internalType": "uint256",
					"name": "index",
					"type": "uint256"
				}
			],
			"name": "getprotocolProductAdddressData",
			"outputs": [
				{
					"internalType": "address",
					"name": "",
					"type": "address"
				}
			],
			"stateMutability": "view",
			"type": "function"
		},
		{
			"inputs": [],
			"name": "initializeOwner",
			"outputs": [],
			"stateMutability": "nonpayable",
			"type": "function"
		},
		{
			"inputs": [
				{
					"internalType": "address",
					"name": "token",
					"type": "address"
				},
				{
					"internalType": "address",
					"name": "who",
					"type": "address"
				},
				{
					"internalType": "uint256",
					"name": "amount",
					"type": "uint256"
				}
			],
			"name": "mintClaimAndUnclaim",
			"outputs": [
				{
					"internalType": "bool",
					"name": "",
					"type": "bool"
				}
			],
			"stateMutability": "nonpayable",
			"type": "function"
		},
		{
			"inputs": [],
			"name": "owner",
			"outputs": [
				{
					"internalType": "address",
					"name": "",
					"type": "address"
				}
			],
			"stateMutability": "view",
			"type": "function"
		},
		{
			"inputs": [
				{
					"internalType": "address",
					"name": "ISMActuary_",
					"type": "address"
				}
			],
			"name": "setISMActuary",
			"outputs": [],
			"stateMutability": "nonpayable",
			"type": "function"
		},
		{
			"inputs": [
				{
					"internalType": "address",
					"name": "ISMPolicy_",
					"type": "address"
				}
			],
			"name": "setISMPolicy",
			"outputs": [],
			"stateMutability": "nonpayable",
			"type": "function"
		},
		{
			"inputs": [
				{
					"internalType": "address",
					"name": "protocolAddress",
					"type": "address"
				},
				{
					"internalType": "bool",
					"name": "active",
					"type": "bool"
				}
			],
			"name": "setProtocols",
			"outputs": [
				{
					"internalType": "bool",
					"name": "",
					"type": "bool"
				}
			],
			"stateMutability": "nonpayable",
			"type": "function"
		},
		{
			"inputs": [
				{
					"internalType": "address",
					"name": "productAddress",
					"type": "address"
				},
				{
					"internalType": "bool",
					"name": "active",
					"type": "bool"
				}
			],
			"name": "setproduct",
			"outputs": [
				{
					"internalType": "bool",
					"name": "",
					"type": "bool"
				}
			],
			"stateMutability": "nonpayable",
			"type": "function"
		},
		{
			"inputs": [
				{
					"internalType": "address",
					"name": "newOwner",
					"type": "address"
				}
			],
			"name": "transferOwnership",
			"outputs": [],
			"stateMutability": "nonpayable",
			"type": "function"
		}
	]
}